{
	"contracts/Counter.sol": {
		"DocumentLocker": {
			"abi": [
				{
					"anonymous": false,
					"inputs": [
						{
							"indexed": true,
							"internalType": "bytes32",
							"name": "docId",
							"type": "bytes32"
						},
						{
							"indexed": true,
							"internalType": "address",
							"name": "owner",
							"type": "address"
						},
						{
							"indexed": false,
							"internalType": "string",
							"name": "hash",
							"type": "string"
						},
						{
							"indexed": false,
							"internalType": "string",
							"name": "name",
							"type": "string"
						}
					],
					"name": "DocumentAdded",
					"type": "event"
				},
				{
					"anonymous": false,
					"inputs": [
						{
							"indexed": true,
							"internalType": "bytes32",
							"name": "docId",
							"type": "bytes32"
						},
						{
							"indexed": true,
							"internalType": "address",
							"name": "owner",
							"type": "address"
						}
					],
					"name": "DocumentRevoked",
					"type": "event"
				},
				{
					"inputs": [
						{
							"internalType": "string",
							"name": "hash",
							"type": "string"
						},
						{
							"internalType": "string",
							"name": "name",
							"type": "string"
						}
					],
					"name": "addDocument",
					"outputs": [],
					"stateMutability": "nonpayable",
					"type": "function"
				},
				{
					"inputs": [
						{
							"internalType": "address",
							"name": "owner",
							"type": "address"
						},
						{
							"internalType": "string",
							"name": "hash",
							"type": "string"
						}
					],
					"name": "computeDocId",
					"outputs": [
						{
							"internalType": "bytes32",
							"name": "",
							"type": "bytes32"
						}
					],
					"stateMutability": "pure",
					"type": "function"
				},
				{
					"inputs": [
						{
							"internalType": "bytes32",
							"name": "docId",
							"type": "bytes32"
						}
					],
					"name": "getDocument",
					"outputs": [
						{
							"internalType": "string",
							"name": "hash",
							"type": "string"
						},
						{
							"internalType": "string",
							"name": "name",
							"type": "string"
						},
						{
							"internalType": "uint256",
							"name": "createdAt",
							"type": "uint256"
						},
						{
							"internalType": "bool",
							"name": "active",
							"type": "bool"
						},
						{
							"internalType": "address",
							"name": "owner",
							"type": "address"
						}
					],
					"stateMutability": "view",
					"type": "function"
				},
				{
					"inputs": [
						{
							"internalType": "address",
							"name": "owner",
							"type": "address"
						}
					],
					"name": "listDocuments",
					"outputs": [
						{
							"internalType": "bytes32[]",
							"name": "",
							"type": "bytes32[]"
						}
					],
					"stateMutability": "view",
					"type": "function"
				},
				{
					"inputs": [
						{
							"internalType": "bytes32",
							"name": "docId",
							"type": "bytes32"
						}
					],
					"name": "revokeDocument",
					"outputs": [],
					"stateMutability": "nonpayable",
					"type": "function"
				}
			],
			"devdoc": {
				"kind": "dev",
				"methods": {},
				"version": 1
			},
			"evm": {
				"assembly": "    /* \"contracts/Counter.sol\":307:2768  contract DocumentLocker {... */\n  mstore(0x40, 0x80)\n  callvalue\n  dup1\n  iszero\n  tag_1\n  jumpi\n  revert(0x00, 0x00)\ntag_1:\n  pop\n  dataSize(sub_0)\n  dup1\n  dataOffset(sub_0)\n  0x00\n  codecopy\n  0x00\n  return\nstop\n\nsub_0: assembly {\n        /* \"contracts/Counter.sol\":307:2768  contract DocumentLocker {... */\n      mstore(0x40, 0x80)\n      callvalue\n      dup1\n      iszero\n      tag_1\n      jumpi\n      revert(0x00, 0x00)\n    tag_1:\n      pop\n      jumpi(tag_2, lt(calldatasize, 0x04))\n      shr(0xe0, calldataload(0x00))\n      dup1\n      0x3301292b\n      eq\n      tag_3\n      jumpi\n      dup1\n      0x4d2b1978\n      eq\n      tag_4\n      jumpi\n      dup1\n      0x952be80d\n      eq\n      tag_5\n      jumpi\n      dup1\n      0xb10d6b41\n      eq\n      tag_6\n      jumpi\n      dup1\n      0xc463b718\n      eq\n      tag_7\n      jumpi\n    tag_2:\n      revert(0x00, 0x00)\n        /* \"contracts/Counter.sol\":2647:2766  function listDocuments(address owner) external view returns (bytes32[] memory) {... */\n    tag_3:\n      tag_8\n      0x04\n      dup1\n      calldatasize\n      sub\n      dup2\n      add\n      swap1\n      tag_9\n      swap2\n      swap1\n      tag_10\n      jump\t// in\n    tag_9:\n      tag_11\n      jump\t// in\n    tag_8:\n      mload(0x40)\n      tag_12\n      swap2\n      swap1\n      tag_13\n      jump\t// in\n    tag_12:\n      mload(0x40)\n      dup1\n      swap2\n      sub\n      swap1\n      return\n        /* \"contracts/Counter.sol\":1243:1841  function addDocument(string calldata hash, string calldata name) external {... */\n    tag_4:\n      tag_14\n      0x04\n      dup1\n      calldatasize\n      sub\n      dup2\n      add\n      swap1\n      tag_15\n      swap2\n      swap1\n      tag_16\n      jump\t// in\n    tag_15:\n      tag_17\n      jump\t// in\n    tag_14:\n      stop\n        /* \"contracts/Counter.sol\":1912:2190  function revokeDocument(bytes32 docId) external {... */\n    tag_5:\n      tag_18\n      0x04\n      dup1\n      calldatasize\n      sub\n      dup2\n      add\n      swap1\n      tag_19\n      swap2\n      swap1\n      tag_20\n      jump\t// in\n    tag_19:\n      tag_21\n      jump\t// in\n    tag_18:\n      stop\n        /* \"contracts/Counter.sol\":2240:2586  function getDocument(bytes32 docId)... */\n    tag_6:\n      tag_22\n      0x04\n      dup1\n      calldatasize\n      sub\n      dup2\n      add\n      swap1\n      tag_23\n      swap2\n      swap1\n      tag_20\n      jump\t// in\n    tag_23:\n      tag_24\n      jump\t// in\n    tag_22:\n      mload(0x40)\n      tag_25\n      swap6\n      swap5\n      swap4\n      swap3\n      swap2\n      swap1\n      tag_26\n      jump\t// in\n    tag_25:\n      mload(0x40)\n      dup1\n      swap2\n      sub\n      swap1\n      return\n        /* \"contracts/Counter.sol\":1013:1158  function computeDocId(address owner, string memory hash) public pure returns (bytes32) {... */\n    tag_7:\n      tag_27\n      0x04\n      dup1\n      calldatasize\n      sub\n      dup2\n      add\n      swap1\n      tag_28\n      swap2\n      swap1\n      tag_29\n      jump\t// in\n    tag_28:\n      tag_30\n      jump\t// in\n    tag_27:\n      mload(0x40)\n      tag_31\n      swap2\n      swap1\n      tag_32\n      jump\t// in\n    tag_31:\n      mload(0x40)\n      dup1\n      swap2\n      sub\n      swap1\n      return\n        /* \"contracts/Counter.sol\":2647:2766  function listDocuments(address owner) external view returns (bytes32[] memory) {... */\n    tag_11:\n        /* \"contracts/Counter.sol\":2708:2724  bytes32[] memory */\n      0x60\n        /* \"contracts/Counter.sol\":2743:2752  ownerDocs */\n      0x01\n        /* \"contracts/Counter.sol\":2743:2759  ownerDocs[owner] */\n      0x00\n        /* \"contracts/Counter.sol\":2753:2758  owner */\n      dup4\n        /* \"contracts/Counter.sol\":2743:2759  ownerDocs[owner] */\n      0xffffffffffffffffffffffffffffffffffffffff\n      and\n      0xffffffffffffffffffffffffffffffffffffffff\n      and\n      dup2\n      mstore\n      0x20\n      add\n      swap1\n      dup2\n      mstore\n      0x20\n      add\n      0x00\n      keccak256\n        /* \"contracts/Counter.sol\":2736:2759  return ownerDocs[owner] */\n      dup1\n      sload\n      dup1\n      0x20\n      mul\n      0x20\n      add\n      mload(0x40)\n      swap1\n      dup2\n      add\n      0x40\n      mstore\n      dup1\n      swap3\n      swap2\n      swap1\n      dup2\n      dup2\n      mstore\n      0x20\n      add\n      dup3\n      dup1\n      sload\n      dup1\n      iszero\n      tag_34\n      jumpi\n      0x20\n      mul\n      dup3\n      add\n      swap2\n      swap1\n      0x00\n      mstore\n      keccak256(0x00, 0x20)\n      swap1\n    tag_35:\n      dup2\n      sload\n      dup2\n      mstore\n      0x20\n      add\n      swap1\n      0x01\n      add\n      swap1\n      dup1\n      dup4\n      gt\n      tag_35\n      jumpi\n    tag_34:\n      pop\n      pop\n      pop\n      pop\n      pop\n      swap1\n      pop\n        /* \"contracts/Counter.sol\":2647:2766  function listDocuments(address owner) external view returns (bytes32[] memory) {... */\n      swap2\n      swap1\n      pop\n      jump\t// out\n        /* \"contracts/Counter.sol\":1243:1841  function addDocument(string calldata hash, string calldata name) external {... */\n    tag_17:\n        /* \"contracts/Counter.sol\":1356:1357  0 */\n      0x00\n        /* \"contracts/Counter.sol\":1341:1345  hash */\n      dup5\n      dup5\n        /* \"contracts/Counter.sol\":1335:1353  bytes(hash).length */\n      swap1\n      pop\n        /* \"contracts/Counter.sol\":1335:1357  bytes(hash).length > 0 */\n      gt\n        /* \"contracts/Counter.sol\":1327:1375  require(bytes(hash).length > 0, \"Hash required\") */\n      tag_37\n      jumpi\n      mload(0x40)\n      0x08c379a000000000000000000000000000000000000000000000000000000000\n      dup2\n      mstore\n      0x04\n      add\n      tag_38\n      swap1\n      tag_39\n      jump\t// in\n    tag_38:\n      mload(0x40)\n      dup1\n      swap2\n      sub\n      swap1\n      revert\n    tag_37:\n        /* \"contracts/Counter.sol\":1386:1399  bytes32 docId */\n      0x00\n        /* \"contracts/Counter.sol\":1402:1432  computeDocId(msg.sender, hash) */\n      tag_40\n        /* \"contracts/Counter.sol\":1415:1425  msg.sender */\n      caller\n        /* \"contracts/Counter.sol\":1427:1431  hash */\n      dup7\n      dup7\n        /* \"contracts/Counter.sol\":1402:1432  computeDocId(msg.sender, hash) */\n      dup1\n      dup1\n      0x1f\n      add\n      0x20\n      dup1\n      swap2\n      div\n      mul\n      0x20\n      add\n      mload(0x40)\n      swap1\n      dup2\n      add\n      0x40\n      mstore\n      dup1\n      swap4\n      swap3\n      swap2\n      swap1\n      dup2\n      dup2\n      mstore\n      0x20\n      add\n      dup4\n      dup4\n      dup1\n      dup3\n      dup5\n      calldatacopy\n      0x00\n      dup2\n      dup5\n      add\n      mstore\n      not(0x1f)\n      0x1f\n      dup3\n      add\n      and\n      swap1\n      pop\n      dup1\n      dup4\n      add\n      swap3\n      pop\n      pop\n      pop\n      pop\n      pop\n      pop\n      pop\n        /* \"contracts/Counter.sol\":1402:1414  computeDocId */\n      tag_30\n        /* \"contracts/Counter.sol\":1402:1432  computeDocId(msg.sender, hash) */\n      jump\t// in\n    tag_40:\n        /* \"contracts/Counter.sol\":1386:1432  bytes32 docId = computeDocId(msg.sender, hash) */\n      swap1\n      pop\n        /* \"contracts/Counter.sol\":1442:1460  Document storage d */\n      0x00\n        /* \"contracts/Counter.sol\":1463:1472  documents */\n      0x00\n        /* \"contracts/Counter.sol\":1463:1479  documents[docId] */\n      0x00\n        /* \"contracts/Counter.sol\":1473:1478  docId */\n      dup4\n        /* \"contracts/Counter.sol\":1463:1479  documents[docId] */\n      dup2\n      mstore\n      0x20\n      add\n      swap1\n      dup2\n      mstore\n      0x20\n      add\n      0x00\n      keccak256\n        /* \"contracts/Counter.sol\":1442:1479  Document storage d = documents[docId] */\n      swap1\n      pop\n        /* \"contracts/Counter.sol\":1499:1500  d */\n      dup1\n        /* \"contracts/Counter.sol\":1499:1507  d.active */\n      0x03\n      add\n      0x00\n      swap1\n      sload\n      swap1\n      0x0100\n      exp\n      swap1\n      div\n      0xff\n      and\n        /* \"contracts/Counter.sol\":1498:1507  !d.active */\n      iszero\n        /* \"contracts/Counter.sol\":1490:1535  require(!d.active, \"Document already exists\") */\n      tag_41\n      jumpi\n      mload(0x40)\n      0x08c379a000000000000000000000000000000000000000000000000000000000\n      dup2\n      mstore\n      0x04\n      add\n      tag_42\n      swap1\n      tag_43\n      jump\t// in\n    tag_42:\n      mload(0x40)\n      dup1\n      swap2\n      sub\n      swap1\n      revert\n    tag_41:\n        /* \"contracts/Counter.sol\":1565:1730  Document({... */\n      mload(0x40)\n      dup1\n      0xa0\n      add\n      0x40\n      mstore\n      dup1\n        /* \"contracts/Counter.sol\":1594:1598  hash */\n      dup8\n      dup8\n        /* \"contracts/Counter.sol\":1565:1730  Document({... */\n      dup1\n      dup1\n      0x1f\n      add\n      0x20\n      dup1\n      swap2\n      div\n      mul\n      0x20\n      add\n      mload(0x40)\n      swap1\n      dup2\n      add\n      0x40\n      mstore\n      dup1\n      swap4\n      swap3\n      swap2\n      swap1\n      dup2\n      dup2\n      mstore\n      0x20\n      add\n      dup4\n      dup4\n      dup1\n      dup3\n      dup5\n      calldatacopy\n      0x00\n      dup2\n      dup5\n      add\n      mstore\n      not(0x1f)\n      0x1f\n      dup3\n      add\n      and\n      swap1\n      pop\n      dup1\n      dup4\n      add\n      swap3\n      pop\n      pop\n      pop\n      pop\n      pop\n      pop\n      pop\n      dup2\n      mstore\n      0x20\n      add\n        /* \"contracts/Counter.sol\":1618:1622  name */\n      dup6\n      dup6\n        /* \"contracts/Counter.sol\":1565:1730  Document({... */\n      dup1\n      dup1\n      0x1f\n      add\n      0x20\n      dup1\n      swap2\n      div\n      mul\n      0x20\n      add\n      mload(0x40)\n      swap1\n      dup2\n      add\n      0x40\n      mstore\n      dup1\n      swap4\n      swap3\n      swap2\n      swap1\n      dup2\n      dup2\n      mstore\n      0x20\n      add\n      dup4\n      dup4\n      dup1\n      dup3\n      dup5\n      calldatacopy\n      0x00\n      dup2\n      dup5\n      add\n      mstore\n      not(0x1f)\n      0x1f\n      dup3\n      add\n      and\n      swap1\n      pop\n      dup1\n      dup4\n      add\n      swap3\n      pop\n      pop\n      pop\n      pop\n      pop\n      pop\n      pop\n      dup2\n      mstore\n      0x20\n      add\n        /* \"contracts/Counter.sol\":1647:1662  block.timestamp */\n      timestamp\n        /* \"contracts/Counter.sol\":1565:1730  Document({... */\n      dup2\n      mstore\n      0x20\n      add\n        /* \"contracts/Counter.sol\":1684:1688  true */\n      0x01\n        /* \"contracts/Counter.sol\":1565:1730  Document({... */\n      iszero\n      iszero\n      dup2\n      mstore\n      0x20\n      add\n        /* \"contracts/Counter.sol\":1709:1719  msg.sender */\n      caller\n        /* \"contracts/Counter.sol\":1565:1730  Document({... */\n      0xffffffffffffffffffffffffffffffffffffffff\n      and\n      dup2\n      mstore\n      pop\n        /* \"contracts/Counter.sol\":1546:1555  documents */\n      0x00\n        /* \"contracts/Counter.sol\":1546:1562  documents[docId] */\n      0x00\n        /* \"contracts/Counter.sol\":1556:1561  docId */\n      dup5\n        /* \"contracts/Counter.sol\":1546:1562  documents[docId] */\n      dup2\n      mstore\n      0x20\n      add\n      swap1\n      dup2\n      mstore\n      0x20\n      add\n      0x00\n      keccak256\n        /* \"contracts/Counter.sol\":1546:1730  documents[docId] = Document({... */\n      0x00\n      dup3\n      add\n      mload\n      dup2\n      0x00\n      add\n      swap1\n      dup2\n      tag_44\n      swap2\n      swap1\n      tag_45\n      jump\t// in\n    tag_44:\n      pop\n      0x20\n      dup3\n      add\n      mload\n      dup2\n      0x01\n      add\n      swap1\n      dup2\n      tag_46\n      swap2\n      swap1\n      tag_45\n      jump\t// in\n    tag_46:\n      pop\n      0x40\n      dup3\n      add\n      mload\n      dup2\n      0x02\n      add\n      sstore\n      0x60\n      dup3\n      add\n      mload\n      dup2\n      0x03\n      add\n      exp(0x0100, 0x00)\n      dup2\n      sload\n      dup2\n      0xff\n      mul\n      not\n      and\n      swap1\n      dup4\n      iszero\n      iszero\n      mul\n      or\n      swap1\n      sstore\n      pop\n      0x80\n      dup3\n      add\n      mload\n      dup2\n      0x03\n      add\n      exp(0x0100, 0x01)\n      dup2\n      sload\n      dup2\n      0xffffffffffffffffffffffffffffffffffffffff\n      mul\n      not\n      and\n      swap1\n      dup4\n      0xffffffffffffffffffffffffffffffffffffffff\n      and\n      mul\n      or\n      swap1\n      sstore\n      pop\n      swap1\n      pop\n      pop\n        /* \"contracts/Counter.sol\":1741:1750  ownerDocs */\n      0x01\n        /* \"contracts/Counter.sol\":1741:1762  ownerDocs[msg.sender] */\n      0x00\n        /* \"contracts/Counter.sol\":1751:1761  msg.sender */\n      caller\n        /* \"contracts/Counter.sol\":1741:1762  ownerDocs[msg.sender] */\n      0xffffffffffffffffffffffffffffffffffffffff\n      and\n      0xffffffffffffffffffffffffffffffffffffffff\n      and\n      dup2\n      mstore\n      0x20\n      add\n      swap1\n      dup2\n      mstore\n      0x20\n      add\n      0x00\n      keccak256\n        /* \"contracts/Counter.sol\":1768:1773  docId */\n      dup3\n        /* \"contracts/Counter.sol\":1741:1774  ownerDocs[msg.sender].push(docId) */\n      swap1\n      dup1\n      0x01\n      dup2\n      sload\n      add\n      dup1\n      dup3\n      sstore\n      dup1\n      swap2\n      pop\n      pop\n      0x01\n      swap1\n      sub\n      swap1\n      0x00\n      mstore\n      keccak256(0x00, 0x20)\n      add\n      0x00\n      swap1\n      swap2\n      swap1\n      swap2\n      swap1\n      swap2\n      pop\n      sstore\n        /* \"contracts/Counter.sol\":1811:1821  msg.sender */\n      caller\n        /* \"contracts/Counter.sol\":1790:1834  DocumentAdded(docId, msg.sender, hash, name) */\n      0xffffffffffffffffffffffffffffffffffffffff\n      and\n        /* \"contracts/Counter.sol\":1804:1809  docId */\n      dup3\n        /* \"contracts/Counter.sol\":1790:1834  DocumentAdded(docId, msg.sender, hash, name) */\n      0x49876385ba0704e774b447f377bc9bbec7f83ad4e3b4f83ff78320341e597935\n        /* \"contracts/Counter.sol\":1823:1827  hash */\n      dup9\n      dup9\n        /* \"contracts/Counter.sol\":1829:1833  name */\n      dup9\n      dup9\n        /* \"contracts/Counter.sol\":1790:1834  DocumentAdded(docId, msg.sender, hash, name) */\n      mload(0x40)\n      tag_48\n      swap5\n      swap4\n      swap3\n      swap2\n      swap1\n      tag_49\n      jump\t// in\n    tag_48:\n      mload(0x40)\n      dup1\n      swap2\n      sub\n      swap1\n      log3\n        /* \"contracts/Counter.sol\":1317:1841  {... */\n      pop\n      pop\n        /* \"contracts/Counter.sol\":1243:1841  function addDocument(string calldata hash, string calldata name) external {... */\n      pop\n      pop\n      pop\n      pop\n      jump\t// out\n        /* \"contracts/Counter.sol\":1912:2190  function revokeDocument(bytes32 docId) external {... */\n    tag_21:\n        /* \"contracts/Counter.sol\":1970:1988  Document storage d */\n      0x00\n        /* \"contracts/Counter.sol\":1991:2000  documents */\n      0x00\n        /* \"contracts/Counter.sol\":1991:2007  documents[docId] */\n      0x00\n        /* \"contracts/Counter.sol\":2001:2006  docId */\n      dup4\n        /* \"contracts/Counter.sol\":1991:2007  documents[docId] */\n      dup2\n      mstore\n      0x20\n      add\n      swap1\n      dup2\n      mstore\n      0x20\n      add\n      0x00\n      keccak256\n        /* \"contracts/Counter.sol\":1970:2007  Document storage d = documents[docId] */\n      swap1\n      pop\n        /* \"contracts/Counter.sol\":2036:2046  msg.sender */\n      caller\n        /* \"contracts/Counter.sol\":2025:2046  d.owner == msg.sender */\n      0xffffffffffffffffffffffffffffffffffffffff\n      and\n        /* \"contracts/Counter.sol\":2025:2026  d */\n      dup2\n        /* \"contracts/Counter.sol\":2025:2032  d.owner */\n      0x03\n      add\n      0x01\n      swap1\n      sload\n      swap1\n      0x0100\n      exp\n      swap1\n      div\n      0xffffffffffffffffffffffffffffffffffffffff\n      and\n        /* \"contracts/Counter.sol\":2025:2046  d.owner == msg.sender */\n      0xffffffffffffffffffffffffffffffffffffffff\n      and\n      eq\n        /* \"contracts/Counter.sol\":2017:2060  require(d.owner == msg.sender, \"Not owner\") */\n      tag_51\n      jumpi\n      mload(0x40)\n      0x08c379a000000000000000000000000000000000000000000000000000000000\n      dup2\n      mstore\n      0x04\n      add\n      tag_52\n      swap1\n      tag_53\n      jump\t// in\n    tag_52:\n      mload(0x40)\n      dup1\n      swap2\n      sub\n      swap1\n      revert\n    tag_51:\n        /* \"contracts/Counter.sol\":2078:2079  d */\n      dup1\n        /* \"contracts/Counter.sol\":2078:2086  d.active */\n      0x03\n      add\n      0x00\n      swap1\n      sload\n      swap1\n      0x0100\n      exp\n      swap1\n      div\n      0xff\n      and\n        /* \"contracts/Counter.sol\":2070:2106  require(d.active, \"Already revoked\") */\n      tag_54\n      jumpi\n      mload(0x40)\n      0x08c379a000000000000000000000000000000000000000000000000000000000\n      dup2\n      mstore\n      0x04\n      add\n      tag_55\n      swap1\n      tag_56\n      jump\t// in\n    tag_55:\n      mload(0x40)\n      dup1\n      swap2\n      sub\n      swap1\n      revert\n    tag_54:\n        /* \"contracts/Counter.sol\":2128:2133  false */\n      0x00\n        /* \"contracts/Counter.sol\":2117:2118  d */\n      dup2\n        /* \"contracts/Counter.sol\":2117:2125  d.active */\n      0x03\n      add\n      0x00\n        /* \"contracts/Counter.sol\":2117:2133  d.active = false */\n      0x0100\n      exp\n      dup2\n      sload\n      dup2\n      0xff\n      mul\n      not\n      and\n      swap1\n      dup4\n      iszero\n      iszero\n      mul\n      or\n      swap1\n      sstore\n      pop\n        /* \"contracts/Counter.sol\":2172:2182  msg.sender */\n      caller\n        /* \"contracts/Counter.sol\":2149:2183  DocumentRevoked(docId, msg.sender) */\n      0xffffffffffffffffffffffffffffffffffffffff\n      and\n        /* \"contracts/Counter.sol\":2165:2170  docId */\n      dup3\n        /* \"contracts/Counter.sol\":2149:2183  DocumentRevoked(docId, msg.sender) */\n      0x0a7643bfbd115d98595cc7bd15944172c7ef0e4a7f48dcaf676dec4b74be9367\n      mload(0x40)\n      mload(0x40)\n      dup1\n      swap2\n      sub\n      swap1\n      log3\n        /* \"contracts/Counter.sol\":1960:2190  {... */\n      pop\n        /* \"contracts/Counter.sol\":1912:2190  function revokeDocument(bytes32 docId) external {... */\n      pop\n      jump\t// out\n        /* \"contracts/Counter.sol\":2240:2586  function getDocument(bytes32 docId)... */\n    tag_24:\n        /* \"contracts/Counter.sol\":2323:2341  string memory hash */\n      0x60\n        /* \"contracts/Counter.sol\":2343:2361  string memory name */\n      dup1\n        /* \"contracts/Counter.sol\":2363:2380  uint256 createdAt */\n      0x00\n        /* \"contracts/Counter.sol\":2382:2393  bool active */\n      0x00\n        /* \"contracts/Counter.sol\":2395:2408  address owner */\n      0x00\n        /* \"contracts/Counter.sol\":2424:2442  Document storage d */\n      0x00\n        /* \"contracts/Counter.sol\":2445:2454  documents */\n      0x00\n        /* \"contracts/Counter.sol\":2445:2461  documents[docId] */\n      0x00\n        /* \"contracts/Counter.sol\":2455:2460  docId */\n      dup9\n        /* \"contracts/Counter.sol\":2445:2461  documents[docId] */\n      dup2\n      mstore\n      0x20\n      add\n      swap1\n      dup2\n      mstore\n      0x20\n      add\n      0x00\n      keccak256\n        /* \"contracts/Counter.sol\":2424:2461  Document storage d = documents[docId] */\n      swap1\n      pop\n        /* \"contracts/Counter.sol\":2498:2499  0 */\n      0x00\n        /* \"contracts/Counter.sol\":2479:2500  d.owner != address(0) */\n      0xffffffffffffffffffffffffffffffffffffffff\n      and\n        /* \"contracts/Counter.sol\":2479:2480  d */\n      dup2\n        /* \"contracts/Counter.sol\":2479:2486  d.owner */\n      0x03\n      add\n      0x01\n      swap1\n      sload\n      swap1\n      0x0100\n      exp\n      swap1\n      div\n      0xffffffffffffffffffffffffffffffffffffffff\n      and\n        /* \"contracts/Counter.sol\":2479:2500  d.owner != address(0) */\n      0xffffffffffffffffffffffffffffffffffffffff\n      and\n      sub\n        /* \"contracts/Counter.sol\":2471:2514  require(d.owner != address(0), \"Not found\") */\n      tag_58\n      jumpi\n      mload(0x40)\n      0x08c379a000000000000000000000000000000000000000000000000000000000\n      dup2\n      mstore\n      0x04\n      add\n      tag_59\n      swap1\n      tag_60\n      jump\t// in\n    tag_59:\n      mload(0x40)\n      dup1\n      swap2\n      sub\n      swap1\n      revert\n    tag_58:\n        /* \"contracts/Counter.sol\":2532:2533  d */\n      dup1\n        /* \"contracts/Counter.sol\":2532:2538  d.hash */\n      0x00\n      add\n        /* \"contracts/Counter.sol\":2540:2541  d */\n      dup2\n        /* \"contracts/Counter.sol\":2540:2546  d.name */\n      0x01\n      add\n        /* \"contracts/Counter.sol\":2548:2549  d */\n      dup3\n        /* \"contracts/Counter.sol\":2548:2559  d.createdAt */\n      0x02\n      add\n      sload\n        /* \"contracts/Counter.sol\":2561:2562  d */\n      dup4\n        /* \"contracts/Counter.sol\":2561:2569  d.active */\n      0x03\n      add\n      0x00\n      swap1\n      sload\n      swap1\n      0x0100\n      exp\n      swap1\n      div\n      0xff\n      and\n        /* \"contracts/Counter.sol\":2571:2572  d */\n      dup5\n        /* \"contracts/Counter.sol\":2571:2578  d.owner */\n      0x03\n      add\n      0x01\n      swap1\n      sload\n      swap1\n      0x0100\n      exp\n      swap1\n      div\n      0xffffffffffffffffffffffffffffffffffffffff\n      and\n        /* \"contracts/Counter.sol\":2524:2579  return (d.hash, d.name, d.createdAt, d.active, d.owner) */\n      dup5\n      dup1\n      sload\n      tag_61\n      swap1\n      tag_62\n      jump\t// in\n    tag_61:\n      dup1\n      0x1f\n      add\n      0x20\n      dup1\n      swap2\n      div\n      mul\n      0x20\n      add\n      mload(0x40)\n      swap1\n      dup2\n      add\n      0x40\n      mstore\n      dup1\n      swap3\n      swap2\n      swap1\n      dup2\n      dup2\n      mstore\n      0x20\n      add\n      dup3\n      dup1\n      sload\n      tag_63\n      swap1\n      tag_62\n      jump\t// in\n    tag_63:\n      dup1\n      iszero\n      tag_64\n      jumpi\n      dup1\n      0x1f\n      lt\n      tag_65\n      jumpi\n      0x0100\n      dup1\n      dup4\n      sload\n      div\n      mul\n      dup4\n      mstore\n      swap2\n      0x20\n      add\n      swap2\n      jump(tag_64)\n    tag_65:\n      dup3\n      add\n      swap2\n      swap1\n      0x00\n      mstore\n      keccak256(0x00, 0x20)\n      swap1\n    tag_66:\n      dup2\n      sload\n      dup2\n      mstore\n      swap1\n      0x01\n      add\n      swap1\n      0x20\n      add\n      dup1\n      dup4\n      gt\n      tag_66\n      jumpi\n      dup3\n      swap1\n      sub\n      0x1f\n      and\n      dup3\n      add\n      swap2\n    tag_64:\n      pop\n      pop\n      pop\n      pop\n      pop\n      swap5\n      pop\n      dup4\n      dup1\n      sload\n      tag_67\n      swap1\n      tag_62\n      jump\t// in\n    tag_67:\n      dup1\n      0x1f\n      add\n      0x20\n      dup1\n      swap2\n      div\n      mul\n      0x20\n      add\n      mload(0x40)\n      swap1\n      dup2\n      add\n      0x40\n      mstore\n      dup1\n      swap3\n      swap2\n      swap1\n      dup2\n      dup2\n      mstore\n      0x20\n      add\n      dup3\n      dup1\n      sload\n      tag_68\n      swap1\n      tag_62\n      jump\t// in\n    tag_68:\n      dup1\n      iszero\n      tag_69\n      jumpi\n      dup1\n      0x1f\n      lt\n      tag_70\n      jumpi\n      0x0100\n      dup1\n      dup4\n      sload\n      div\n      mul\n      dup4\n      mstore\n      swap2\n      0x20\n      add\n      swap2\n      jump(tag_69)\n    tag_70:\n      dup3\n      add\n      swap2\n      swap1\n      0x00\n      mstore\n      keccak256(0x00, 0x20)\n      swap1\n    tag_71:\n      dup2\n      sload\n      dup2\n      mstore\n      swap1\n      0x01\n      add\n      swap1\n      0x20\n      add\n      dup1\n      dup4\n      gt\n      tag_71\n      jumpi\n      dup3\n      swap1\n      sub\n      0x1f\n      and\n      dup3\n      add\n      swap2\n    tag_69:\n      pop\n      pop\n      pop\n      pop\n      pop\n      swap4\n      pop\n      swap6\n      pop\n      swap6\n      pop\n      swap6\n      pop\n      swap6\n      pop\n      swap6\n      pop\n      pop\n        /* \"contracts/Counter.sol\":2240:2586  function getDocument(bytes32 docId)... */\n      swap2\n      swap4\n      swap6\n      swap1\n      swap3\n      swap5\n      pop\n      jump\t// out\n        /* \"contracts/Counter.sol\":1013:1158  function computeDocId(address owner, string memory hash) public pure returns (bytes32) {... */\n    tag_30:\n        /* \"contracts/Counter.sol\":1091:1098  bytes32 */\n      0x00\n        /* \"contracts/Counter.sol\":1138:1143  owner */\n      dup3\n        /* \"contracts/Counter.sol\":1145:1149  hash */\n      dup3\n        /* \"contracts/Counter.sol\":1127:1150  abi.encode(owner, hash) */\n      add(0x20, mload(0x40))\n      tag_73\n      swap3\n      swap2\n      swap1\n      tag_74\n      jump\t// in\n    tag_73:\n      mload(0x40)\n      0x20\n      dup2\n      dup4\n      sub\n      sub\n      dup2\n      mstore\n      swap1\n      0x40\n      mstore\n        /* \"contracts/Counter.sol\":1117:1151  keccak256(abi.encode(owner, hash)) */\n      dup1\n      mload\n      swap1\n      0x20\n      add\n      keccak256\n        /* \"contracts/Counter.sol\":1110:1151  return keccak256(abi.encode(owner, hash)) */\n      swap1\n      pop\n        /* \"contracts/Counter.sol\":1013:1158  function computeDocId(address owner, string memory hash) public pure returns (bytes32) {... */\n      swap3\n      swap2\n      pop\n      pop\n      jump\t// out\n        /* \"#utility.yul\":7:82   */\n    tag_75:\n        /* \"#utility.yul\":40:46   */\n      0x00\n        /* \"#utility.yul\":73:75   */\n      0x40\n        /* \"#utility.yul\":67:76   */\n      mload\n        /* \"#utility.yul\":57:76   */\n      swap1\n      pop\n        /* \"#utility.yul\":7:82   */\n      swap1\n      jump\t// out\n        /* \"#utility.yul\":88:205   */\n    tag_76:\n        /* \"#utility.yul\":197:198   */\n      0x00\n        /* \"#utility.yul\":194:195   */\n      0x00\n        /* \"#utility.yul\":187:199   */\n      revert\n        /* \"#utility.yul\":211:328   */\n    tag_77:\n        /* \"#utility.yul\":320:321   */\n      0x00\n        /* \"#utility.yul\":317:318   */\n      0x00\n        /* \"#utility.yul\":310:322   */\n      revert\n        /* \"#utility.yul\":334:460   */\n    tag_78:\n        /* \"#utility.yul\":371:378   */\n      0x00\n        /* \"#utility.yul\":411:453   */\n      0xffffffffffffffffffffffffffffffffffffffff\n        /* \"#utility.yul\":404:409   */\n      dup3\n        /* \"#utility.yul\":400:454   */\n      and\n        /* \"#utility.yul\":389:454   */\n      swap1\n      pop\n        /* \"#utility.yul\":334:460   */\n      swap2\n      swap1\n      pop\n      jump\t// out\n        /* \"#utility.yul\":466:562   */\n    tag_79:\n        /* \"#utility.yul\":503:510   */\n      0x00\n        /* \"#utility.yul\":532:556   */\n      tag_148\n        /* \"#utility.yul\":550:555   */\n      dup3\n        /* \"#utility.yul\":532:556   */\n      tag_78\n      jump\t// in\n    tag_148:\n        /* \"#utility.yul\":521:556   */\n      swap1\n      pop\n        /* \"#utility.yul\":466:562   */\n      swap2\n      swap1\n      pop\n      jump\t// out\n        /* \"#utility.yul\":568:690   */\n    tag_80:\n        /* \"#utility.yul\":641:665   */\n      tag_150\n        /* \"#utility.yul\":659:664   */\n      dup2\n        /* \"#utility.yul\":641:665   */\n      tag_79\n      jump\t// in\n    tag_150:\n        /* \"#utility.yul\":634:639   */\n      dup2\n        /* \"#utility.yul\":631:666   */\n      eq\n        /* \"#utility.yul\":621:684   */\n      tag_151\n      jumpi\n        /* \"#utility.yul\":680:681   */\n      0x00\n        /* \"#utility.yul\":677:678   */\n      0x00\n        /* \"#utility.yul\":670:682   */\n      revert\n        /* \"#utility.yul\":621:684   */\n    tag_151:\n        /* \"#utility.yul\":568:690   */\n      pop\n      jump\t// out\n        /* \"#utility.yul\":696:835   */\n    tag_81:\n        /* \"#utility.yul\":742:747   */\n      0x00\n        /* \"#utility.yul\":780:786   */\n      dup2\n        /* \"#utility.yul\":767:787   */\n      calldataload\n        /* \"#utility.yul\":758:787   */\n      swap1\n      pop\n        /* \"#utility.yul\":796:829   */\n      tag_153\n        /* \"#utility.yul\":823:828   */\n      dup2\n        /* \"#utility.yul\":796:829   */\n      tag_80\n      jump\t// in\n    tag_153:\n        /* \"#utility.yul\":696:835   */\n      swap3\n      swap2\n      pop\n      pop\n      jump\t// out\n        /* \"#utility.yul\":841:1170   */\n    tag_10:\n        /* \"#utility.yul\":900:906   */\n      0x00\n        /* \"#utility.yul\":949:951   */\n      0x20\n        /* \"#utility.yul\":937:946   */\n      dup3\n        /* \"#utility.yul\":928:935   */\n      dup5\n        /* \"#utility.yul\":924:947   */\n      sub\n        /* \"#utility.yul\":920:952   */\n      slt\n        /* \"#utility.yul\":917:1036   */\n      iszero\n      tag_155\n      jumpi\n        /* \"#utility.yul\":955:1034   */\n      tag_156\n      tag_76\n      jump\t// in\n    tag_156:\n        /* \"#utility.yul\":917:1036   */\n    tag_155:\n        /* \"#utility.yul\":1075:1076   */\n      0x00\n        /* \"#utility.yul\":1100:1153   */\n      tag_157\n        /* \"#utility.yul\":1145:1152   */\n      dup5\n        /* \"#utility.yul\":1136:1142   */\n      dup3\n        /* \"#utility.yul\":1125:1134   */\n      dup6\n        /* \"#utility.yul\":1121:1143   */\n      add\n        /* \"#utility.yul\":1100:1153   */\n      tag_81\n      jump\t// in\n    tag_157:\n        /* \"#utility.yul\":1090:1153   */\n      swap2\n      pop\n        /* \"#utility.yul\":1046:1163   */\n      pop\n        /* \"#utility.yul\":841:1170   */\n      swap3\n      swap2\n      pop\n      pop\n      jump\t// out\n        /* \"#utility.yul\":1176:1290   */\n    tag_82:\n        /* \"#utility.yul\":1243:1249   */\n      0x00\n        /* \"#utility.yul\":1277:1282   */\n      dup2\n        /* \"#utility.yul\":1271:1283   */\n      mload\n        /* \"#utility.yul\":1261:1283   */\n      swap1\n      pop\n        /* \"#utility.yul\":1176:1290   */\n      swap2\n      swap1\n      pop\n      jump\t// out\n        /* \"#utility.yul\":1296:1480   */\n    tag_83:\n        /* \"#utility.yul\":1395:1406   */\n      0x00\n        /* \"#utility.yul\":1429:1435   */\n      dup3\n        /* \"#utility.yul\":1424:1427   */\n      dup3\n        /* \"#utility.yul\":1417:1436   */\n      mstore\n        /* \"#utility.yul\":1469:1473   */\n      0x20\n        /* \"#utility.yul\":1464:1467   */\n      dup3\n        /* \"#utility.yul\":1460:1474   */\n      add\n        /* \"#utility.yul\":1445:1474   */\n      swap1\n      pop\n        /* \"#utility.yul\":1296:1480   */\n      swap3\n      swap2\n      pop\n      pop\n      jump\t// out\n        /* \"#utility.yul\":1486:1618   */\n    tag_84:\n        /* \"#utility.yul\":1553:1557   */\n      0x00\n        /* \"#utility.yul\":1576:1579   */\n      dup2\n        /* \"#utility.yul\":1568:1579   */\n      swap1\n      pop\n        /* \"#utility.yul\":1606:1610   */\n      0x20\n        /* \"#utility.yul\":1601:1604   */\n      dup3\n        /* \"#utility.yul\":1597:1611   */\n      add\n        /* \"#utility.yul\":1589:1611   */\n      swap1\n      pop\n        /* \"#utility.yul\":1486:1618   */\n      swap2\n      swap1\n      pop\n      jump\t// out\n        /* \"#utility.yul\":1624:1701   */\n    tag_85:\n        /* \"#utility.yul\":1661:1668   */\n      0x00\n        /* \"#utility.yul\":1690:1695   */\n      dup2\n        /* \"#utility.yul\":1679:1695   */\n      swap1\n      pop\n        /* \"#utility.yul\":1624:1701   */\n      swap2\n      swap1\n      pop\n      jump\t// out\n        /* \"#utility.yul\":1707:1815   */\n    tag_86:\n        /* \"#utility.yul\":1784:1808   */\n      tag_163\n        /* \"#utility.yul\":1802:1807   */\n      dup2\n        /* \"#utility.yul\":1784:1808   */\n      tag_85\n      jump\t// in\n    tag_163:\n        /* \"#utility.yul\":1779:1782   */\n      dup3\n        /* \"#utility.yul\":1772:1809   */\n      mstore\n        /* \"#utility.yul\":1707:1815   */\n      pop\n      pop\n      jump\t// out\n        /* \"#utility.yul\":1821:2000   */\n    tag_87:\n        /* \"#utility.yul\":1890:1900   */\n      0x00\n        /* \"#utility.yul\":1911:1957   */\n      tag_165\n        /* \"#utility.yul\":1953:1956   */\n      dup4\n        /* \"#utility.yul\":1945:1951   */\n      dup4\n        /* \"#utility.yul\":1911:1957   */\n      tag_86\n      jump\t// in\n    tag_165:\n        /* \"#utility.yul\":1989:1993   */\n      0x20\n        /* \"#utility.yul\":1984:1987   */\n      dup4\n        /* \"#utility.yul\":1980:1994   */\n      add\n        /* \"#utility.yul\":1966:1994   */\n      swap1\n      pop\n        /* \"#utility.yul\":1821:2000   */\n      swap3\n      swap2\n      pop\n      pop\n      jump\t// out\n        /* \"#utility.yul\":2006:2119   */\n    tag_88:\n        /* \"#utility.yul\":2076:2080   */\n      0x00\n        /* \"#utility.yul\":2108:2112   */\n      0x20\n        /* \"#utility.yul\":2103:2106   */\n      dup3\n        /* \"#utility.yul\":2099:2113   */\n      add\n        /* \"#utility.yul\":2091:2113   */\n      swap1\n      pop\n        /* \"#utility.yul\":2006:2119   */\n      swap2\n      swap1\n      pop\n      jump\t// out\n        /* \"#utility.yul\":2155:2887   */\n    tag_89:\n        /* \"#utility.yul\":2274:2277   */\n      0x00\n        /* \"#utility.yul\":2303:2357   */\n      tag_168\n        /* \"#utility.yul\":2351:2356   */\n      dup3\n        /* \"#utility.yul\":2303:2357   */\n      tag_82\n      jump\t// in\n    tag_168:\n        /* \"#utility.yul\":2373:2459   */\n      tag_169\n        /* \"#utility.yul\":2452:2458   */\n      dup2\n        /* \"#utility.yul\":2447:2450   */\n      dup6\n        /* \"#utility.yul\":2373:2459   */\n      tag_83\n      jump\t// in\n    tag_169:\n        /* \"#utility.yul\":2366:2459   */\n      swap4\n      pop\n        /* \"#utility.yul\":2483:2539   */\n      tag_170\n        /* \"#utility.yul\":2533:2538   */\n      dup4\n        /* \"#utility.yul\":2483:2539   */\n      tag_84\n      jump\t// in\n    tag_170:\n        /* \"#utility.yul\":2562:2569   */\n      dup1\n        /* \"#utility.yul\":2593:2594   */\n      0x00\n        /* \"#utility.yul\":2578:2862   */\n    tag_171:\n        /* \"#utility.yul\":2603:2609   */\n      dup4\n        /* \"#utility.yul\":2600:2601   */\n      dup2\n        /* \"#utility.yul\":2597:2610   */\n      lt\n        /* \"#utility.yul\":2578:2862   */\n      iszero\n      tag_173\n      jumpi\n        /* \"#utility.yul\":2679:2685   */\n      dup2\n        /* \"#utility.yul\":2673:2686   */\n      mload\n        /* \"#utility.yul\":2706:2769   */\n      tag_174\n        /* \"#utility.yul\":2765:2768   */\n      dup9\n        /* \"#utility.yul\":2750:2763   */\n      dup3\n        /* \"#utility.yul\":2706:2769   */\n      tag_87\n      jump\t// in\n    tag_174:\n        /* \"#utility.yul\":2699:2769   */\n      swap8\n      pop\n        /* \"#utility.yul\":2792:2852   */\n      tag_175\n        /* \"#utility.yul\":2845:2851   */\n      dup4\n        /* \"#utility.yul\":2792:2852   */\n      tag_88\n      jump\t// in\n    tag_175:\n        /* \"#utility.yul\":2782:2852   */\n      swap3\n      pop\n        /* \"#utility.yul\":2638:2862   */\n      pop\n        /* \"#utility.yul\":2625:2626   */\n      0x01\n        /* \"#utility.yul\":2622:2623   */\n      dup2\n        /* \"#utility.yul\":2618:2627   */\n      add\n        /* \"#utility.yul\":2613:2627   */\n      swap1\n      pop\n        /* \"#utility.yul\":2578:2862   */\n      jump(tag_171)\n    tag_173:\n        /* \"#utility.yul\":2582:2596   */\n      pop\n        /* \"#utility.yul\":2878:2881   */\n      dup6\n        /* \"#utility.yul\":2871:2881   */\n      swap4\n      pop\n        /* \"#utility.yul\":2279:2887   */\n      pop\n      pop\n      pop\n        /* \"#utility.yul\":2155:2887   */\n      swap3\n      swap2\n      pop\n      pop\n      jump\t// out\n        /* \"#utility.yul\":2893:3266   */\n    tag_13:\n        /* \"#utility.yul\":3036:3040   */\n      0x00\n        /* \"#utility.yul\":3074:3076   */\n      0x20\n        /* \"#utility.yul\":3063:3072   */\n      dup3\n        /* \"#utility.yul\":3059:3077   */\n      add\n        /* \"#utility.yul\":3051:3077   */\n      swap1\n      pop\n        /* \"#utility.yul\":3123:3132   */\n      dup2\n        /* \"#utility.yul\":3117:3121   */\n      dup2\n        /* \"#utility.yul\":3113:3133   */\n      sub\n        /* \"#utility.yul\":3109:3110   */\n      0x00\n        /* \"#utility.yul\":3098:3107   */\n      dup4\n        /* \"#utility.yul\":3094:3111   */\n      add\n        /* \"#utility.yul\":3087:3134   */\n      mstore\n        /* \"#utility.yul\":3151:3259   */\n      tag_177\n        /* \"#utility.yul\":3254:3258   */\n      dup2\n        /* \"#utility.yul\":3245:3251   */\n      dup5\n        /* \"#utility.yul\":3151:3259   */\n      tag_89\n      jump\t// in\n    tag_177:\n        /* \"#utility.yul\":3143:3259   */\n      swap1\n      pop\n        /* \"#utility.yul\":2893:3266   */\n      swap3\n      swap2\n      pop\n      pop\n      jump\t// out\n        /* \"#utility.yul\":3272:3389   */\n    tag_90:\n        /* \"#utility.yul\":3381:3382   */\n      0x00\n        /* \"#utility.yul\":3378:3379   */\n      0x00\n        /* \"#utility.yul\":3371:3383   */\n      revert\n        /* \"#utility.yul\":3395:3512   */\n    tag_91:\n        /* \"#utility.yul\":3504:3505   */\n      0x00\n        /* \"#utility.yul\":3501:3502   */\n      0x00\n        /* \"#utility.yul\":3494:3506   */\n      revert\n        /* \"#utility.yul\":3518:3635   */\n    tag_92:\n        /* \"#utility.yul\":3627:3628   */\n      0x00\n        /* \"#utility.yul\":3624:3625   */\n      0x00\n        /* \"#utility.yul\":3617:3629   */\n      revert\n        /* \"#utility.yul\":3655:4208   */\n    tag_93:\n        /* \"#utility.yul\":3713:3721   */\n      0x00\n        /* \"#utility.yul\":3723:3729   */\n      0x00\n        /* \"#utility.yul\":3773:3776   */\n      dup4\n        /* \"#utility.yul\":3766:3770   */\n      0x1f\n        /* \"#utility.yul\":3758:3764   */\n      dup5\n        /* \"#utility.yul\":3754:3771   */\n      add\n        /* \"#utility.yul\":3750:3777   */\n      slt\n        /* \"#utility.yul\":3740:3862   */\n      tag_182\n      jumpi\n        /* \"#utility.yul\":3781:3860   */\n      tag_183\n      tag_90\n      jump\t// in\n    tag_183:\n        /* \"#utility.yul\":3740:3862   */\n    tag_182:\n        /* \"#utility.yul\":3894:3900   */\n      dup3\n        /* \"#utility.yul\":3881:3901   */\n      calldataload\n        /* \"#utility.yul\":3871:3901   */\n      swap1\n      pop\n        /* \"#utility.yul\":3924:3942   */\n      0xffffffffffffffff\n        /* \"#utility.yul\":3916:3922   */\n      dup2\n        /* \"#utility.yul\":3913:3943   */\n      gt\n        /* \"#utility.yul\":3910:4027   */\n      iszero\n      tag_184\n      jumpi\n        /* \"#utility.yul\":3946:4025   */\n      tag_185\n      tag_91\n      jump\t// in\n    tag_185:\n        /* \"#utility.yul\":3910:4027   */\n    tag_184:\n        /* \"#utility.yul\":4060:4064   */\n      0x20\n        /* \"#utility.yul\":4052:4058   */\n      dup4\n        /* \"#utility.yul\":4048:4065   */\n      add\n        /* \"#utility.yul\":4036:4065   */\n      swap2\n      pop\n        /* \"#utility.yul\":4114:4117   */\n      dup4\n        /* \"#utility.yul\":4106:4110   */\n      0x01\n        /* \"#utility.yul\":4098:4104   */\n      dup3\n        /* \"#utility.yul\":4094:4111   */\n      mul\n        /* \"#utility.yul\":4084:4092   */\n      dup4\n        /* \"#utility.yul\":4080:4112   */\n      add\n        /* \"#utility.yul\":4077:4118   */\n      gt\n        /* \"#utility.yul\":4074:4202   */\n      iszero\n      tag_186\n      jumpi\n        /* \"#utility.yul\":4121:4200   */\n      tag_187\n      tag_92\n      jump\t// in\n    tag_187:\n        /* \"#utility.yul\":4074:4202   */\n    tag_186:\n        /* \"#utility.yul\":3655:4208   */\n      swap3\n      pop\n      swap3\n      swap1\n      pop\n      jump\t// out\n        /* \"#utility.yul\":4214:5088   */\n    tag_16:\n        /* \"#utility.yul\":4306:4312   */\n      0x00\n        /* \"#utility.yul\":4314:4320   */\n      0x00\n        /* \"#utility.yul\":4322:4328   */\n      0x00\n        /* \"#utility.yul\":4330:4336   */\n      0x00\n        /* \"#utility.yul\":4379:4381   */\n      0x40\n        /* \"#utility.yul\":4367:4376   */\n      dup6\n        /* \"#utility.yul\":4358:4365   */\n      dup8\n        /* \"#utility.yul\":4354:4377   */\n      sub\n        /* \"#utility.yul\":4350:4382   */\n      slt\n        /* \"#utility.yul\":4347:4466   */\n      iszero\n      tag_189\n      jumpi\n        /* \"#utility.yul\":4385:4464   */\n      tag_190\n      tag_76\n      jump\t// in\n    tag_190:\n        /* \"#utility.yul\":4347:4466   */\n    tag_189:\n        /* \"#utility.yul\":4533:4534   */\n      0x00\n        /* \"#utility.yul\":4522:4531   */\n      dup6\n        /* \"#utility.yul\":4518:4535   */\n      add\n        /* \"#utility.yul\":4505:4536   */\n      calldataload\n        /* \"#utility.yul\":4563:4581   */\n      0xffffffffffffffff\n        /* \"#utility.yul\":4555:4561   */\n      dup2\n        /* \"#utility.yul\":4552:4582   */\n      gt\n        /* \"#utility.yul\":4549:4666   */\n      iszero\n      tag_191\n      jumpi\n        /* \"#utility.yul\":4585:4664   */\n      tag_192\n      tag_77\n      jump\t// in\n    tag_192:\n        /* \"#utility.yul\":4549:4666   */\n    tag_191:\n        /* \"#utility.yul\":4698:4763   */\n      tag_193\n        /* \"#utility.yul\":4755:4762   */\n      dup8\n        /* \"#utility.yul\":4746:4752   */\n      dup3\n        /* \"#utility.yul\":4735:4744   */\n      dup9\n        /* \"#utility.yul\":4731:4753   */\n      add\n        /* \"#utility.yul\":4698:4763   */\n      tag_93\n      jump\t// in\n    tag_193:\n        /* \"#utility.yul\":4680:4763   */\n      swap5\n      pop\n      swap5\n      pop\n        /* \"#utility.yul\":4476:4773   */\n      pop\n        /* \"#utility.yul\":4840:4842   */\n      0x20\n        /* \"#utility.yul\":4829:4838   */\n      dup6\n        /* \"#utility.yul\":4825:4843   */\n      add\n        /* \"#utility.yul\":4812:4844   */\n      calldataload\n        /* \"#utility.yul\":4871:4889   */\n      0xffffffffffffffff\n        /* \"#utility.yul\":4863:4869   */\n      dup2\n        /* \"#utility.yul\":4860:4890   */\n      gt\n        /* \"#utility.yul\":4857:4974   */\n      iszero\n      tag_194\n      jumpi\n        /* \"#utility.yul\":4893:4972   */\n      tag_195\n      tag_77\n      jump\t// in\n    tag_195:\n        /* \"#utility.yul\":4857:4974   */\n    tag_194:\n        /* \"#utility.yul\":5006:5071   */\n      tag_196\n        /* \"#utility.yul\":5063:5070   */\n      dup8\n        /* \"#utility.yul\":5054:5060   */\n      dup3\n        /* \"#utility.yul\":5043:5052   */\n      dup9\n        /* \"#utility.yul\":5039:5061   */\n      add\n        /* \"#utility.yul\":5006:5071   */\n      tag_93\n      jump\t// in\n    tag_196:\n        /* \"#utility.yul\":4988:5071   */\n      swap3\n      pop\n      swap3\n      pop\n        /* \"#utility.yul\":4783:5081   */\n      pop\n        /* \"#utility.yul\":4214:5088   */\n      swap3\n      swap6\n      swap2\n      swap5\n      pop\n      swap3\n      pop\n      jump\t// out\n        /* \"#utility.yul\":5094:5216   */\n    tag_94:\n        /* \"#utility.yul\":5167:5191   */\n      tag_198\n        /* \"#utility.yul\":5185:5190   */\n      dup2\n        /* \"#utility.yul\":5167:5191   */\n      tag_85\n      jump\t// in\n    tag_198:\n        /* \"#utility.yul\":5160:5165   */\n      dup2\n        /* \"#utility.yul\":5157:5192   */\n      eq\n        /* \"#utility.yul\":5147:5210   */\n      tag_199\n      jumpi\n        /* \"#utility.yul\":5206:5207   */\n      0x00\n        /* \"#utility.yul\":5203:5204   */\n      0x00\n        /* \"#utility.yul\":5196:5208   */\n      revert\n        /* \"#utility.yul\":5147:5210   */\n    tag_199:\n        /* \"#utility.yul\":5094:5216   */\n      pop\n      jump\t// out\n        /* \"#utility.yul\":5222:5361   */\n    tag_95:\n        /* \"#utility.yul\":5268:5273   */\n      0x00\n        /* \"#utility.yul\":5306:5312   */\n      dup2\n        /* \"#utility.yul\":5293:5313   */\n      calldataload\n        /* \"#utility.yul\":5284:5313   */\n      swap1\n      pop\n        /* \"#utility.yul\":5322:5355   */\n      tag_201\n        /* \"#utility.yul\":5349:5354   */\n      dup2\n        /* \"#utility.yul\":5322:5355   */\n      tag_94\n      jump\t// in\n    tag_201:\n        /* \"#utility.yul\":5222:5361   */\n      swap3\n      swap2\n      pop\n      pop\n      jump\t// out\n        /* \"#utility.yul\":5367:5696   */\n    tag_20:\n        /* \"#utility.yul\":5426:5432   */\n      0x00\n        /* \"#utility.yul\":5475:5477   */\n      0x20\n        /* \"#utility.yul\":5463:5472   */\n      dup3\n        /* \"#utility.yul\":5454:5461   */\n      dup5\n        /* \"#utility.yul\":5450:5473   */\n      sub\n        /* \"#utility.yul\":5446:5478   */\n      slt\n        /* \"#utility.yul\":5443:5562   */\n      iszero\n      tag_203\n      jumpi\n        /* \"#utility.yul\":5481:5560   */\n      tag_204\n      tag_76\n      jump\t// in\n    tag_204:\n        /* \"#utility.yul\":5443:5562   */\n    tag_203:\n        /* \"#utility.yul\":5601:5602   */\n      0x00\n        /* \"#utility.yul\":5626:5679   */\n      tag_205\n        /* \"#utility.yul\":5671:5678   */\n      dup5\n        /* \"#utility.yul\":5662:5668   */\n      dup3\n        /* \"#utility.yul\":5651:5660   */\n      dup6\n        /* \"#utility.yul\":5647:5669   */\n      add\n        /* \"#utility.yul\":5626:5679   */\n      tag_95\n      jump\t// in\n    tag_205:\n        /* \"#utility.yul\":5616:5679   */\n      swap2\n      pop\n        /* \"#utility.yul\":5572:5689   */\n      pop\n        /* \"#utility.yul\":5367:5696   */\n      swap3\n      swap2\n      pop\n      pop\n      jump\t// out\n        /* \"#utility.yul\":5702:5801   */\n    tag_96:\n        /* \"#utility.yul\":5754:5760   */\n      0x00\n        /* \"#utility.yul\":5788:5793   */\n      dup2\n        /* \"#utility.yul\":5782:5794   */\n      mload\n        /* \"#utility.yul\":5772:5794   */\n      swap1\n      pop\n        /* \"#utility.yul\":5702:5801   */\n      swap2\n      swap1\n      pop\n      jump\t// out\n        /* \"#utility.yul\":5807:5976   */\n    tag_97:\n        /* \"#utility.yul\":5891:5902   */\n      0x00\n        /* \"#utility.yul\":5925:5931   */\n      dup3\n        /* \"#utility.yul\":5920:5923   */\n      dup3\n        /* \"#utility.yul\":5913:5932   */\n      mstore\n        /* \"#utility.yul\":5965:5969   */\n      0x20\n        /* \"#utility.yul\":5960:5963   */\n      dup3\n        /* \"#utility.yul\":5956:5970   */\n      add\n        /* \"#utility.yul\":5941:5970   */\n      swap1\n      pop\n        /* \"#utility.yul\":5807:5976   */\n      swap3\n      swap2\n      pop\n      pop\n      jump\t// out\n        /* \"#utility.yul\":5982:6121   */\n    tag_98:\n        /* \"#utility.yul\":6071:6077   */\n      dup3\n        /* \"#utility.yul\":6066:6069   */\n      dup2\n        /* \"#utility.yul\":6061:6064   */\n      dup4\n        /* \"#utility.yul\":6055:6078   */\n      mcopy\n        /* \"#utility.yul\":6112:6113   */\n      0x00\n        /* \"#utility.yul\":6103:6109   */\n      dup4\n        /* \"#utility.yul\":6098:6101   */\n      dup4\n        /* \"#utility.yul\":6094:6110   */\n      add\n        /* \"#utility.yul\":6087:6114   */\n      mstore\n        /* \"#utility.yul\":5982:6121   */\n      pop\n      pop\n      pop\n      jump\t// out\n        /* \"#utility.yul\":6127:6229   */\n    tag_99:\n        /* \"#utility.yul\":6168:6174   */\n      0x00\n        /* \"#utility.yul\":6219:6221   */\n      0x1f\n        /* \"#utility.yul\":6215:6222   */\n      not\n        /* \"#utility.yul\":6210:6212   */\n      0x1f\n        /* \"#utility.yul\":6203:6208   */\n      dup4\n        /* \"#utility.yul\":6199:6213   */\n      add\n        /* \"#utility.yul\":6195:6223   */\n      and\n        /* \"#utility.yul\":6185:6223   */\n      swap1\n      pop\n        /* \"#utility.yul\":6127:6229   */\n      swap2\n      swap1\n      pop\n      jump\t// out\n        /* \"#utility.yul\":6235:6612   */\n    tag_100:\n        /* \"#utility.yul\":6323:6326   */\n      0x00\n        /* \"#utility.yul\":6351:6390   */\n      tag_211\n        /* \"#utility.yul\":6384:6389   */\n      dup3\n        /* \"#utility.yul\":6351:6390   */\n      tag_96\n      jump\t// in\n    tag_211:\n        /* \"#utility.yul\":6406:6477   */\n      tag_212\n        /* \"#utility.yul\":6470:6476   */\n      dup2\n        /* \"#utility.yul\":6465:6468   */\n      dup6\n        /* \"#utility.yul\":6406:6477   */\n      tag_97\n      jump\t// in\n    tag_212:\n        /* \"#utility.yul\":6399:6477   */\n      swap4\n      pop\n        /* \"#utility.yul\":6486:6551   */\n      tag_213\n        /* \"#utility.yul\":6544:6550   */\n      dup2\n        /* \"#utility.yul\":6539:6542   */\n      dup6\n        /* \"#utility.yul\":6532:6536   */\n      0x20\n        /* \"#utility.yul\":6525:6530   */\n      dup7\n        /* \"#utility.yul\":6521:6537   */\n      add\n        /* \"#utility.yul\":6486:6551   */\n      tag_98\n      jump\t// in\n    tag_213:\n        /* \"#utility.yul\":6576:6605   */\n      tag_214\n        /* \"#utility.yul\":6598:6604   */\n      dup2\n        /* \"#utility.yul\":6576:6605   */\n      tag_99\n      jump\t// in\n    tag_214:\n        /* \"#utility.yul\":6571:6574   */\n      dup5\n        /* \"#utility.yul\":6567:6606   */\n      add\n        /* \"#utility.yul\":6560:6606   */\n      swap2\n      pop\n        /* \"#utility.yul\":6327:6612   */\n      pop\n        /* \"#utility.yul\":6235:6612   */\n      swap3\n      swap2\n      pop\n      pop\n      jump\t// out\n        /* \"#utility.yul\":6618:6695   */\n    tag_101:\n        /* \"#utility.yul\":6655:6662   */\n      0x00\n        /* \"#utility.yul\":6684:6689   */\n      dup2\n        /* \"#utility.yul\":6673:6689   */\n      swap1\n      pop\n        /* \"#utility.yul\":6618:6695   */\n      swap2\n      swap1\n      pop\n      jump\t// out\n        /* \"#utility.yul\":6701:6819   */\n    tag_102:\n        /* \"#utility.yul\":6788:6812   */\n      tag_217\n        /* \"#utility.yul\":6806:6811   */\n      dup2\n        /* \"#utility.yul\":6788:6812   */\n      tag_101\n      jump\t// in\n    tag_217:\n        /* \"#utility.yul\":6783:6786   */\n      dup3\n        /* \"#utility.yul\":6776:6813   */\n      mstore\n        /* \"#utility.yul\":6701:6819   */\n      pop\n      pop\n      jump\t// out\n        /* \"#utility.yul\":6825:6915   */\n    tag_103:\n        /* \"#utility.yul\":6859:6866   */\n      0x00\n        /* \"#utility.yul\":6902:6907   */\n      dup2\n        /* \"#utility.yul\":6895:6908   */\n      iszero\n        /* \"#utility.yul\":6888:6909   */\n      iszero\n        /* \"#utility.yul\":6877:6909   */\n      swap1\n      pop\n        /* \"#utility.yul\":6825:6915   */\n      swap2\n      swap1\n      pop\n      jump\t// out\n        /* \"#utility.yul\":6921:7030   */\n    tag_104:\n        /* \"#utility.yul\":7002:7023   */\n      tag_220\n        /* \"#utility.yul\":7017:7022   */\n      dup2\n        /* \"#utility.yul\":7002:7023   */\n      tag_103\n      jump\t// in\n    tag_220:\n        /* \"#utility.yul\":6997:7000   */\n      dup3\n        /* \"#utility.yul\":6990:7024   */\n      mstore\n        /* \"#utility.yul\":6921:7030   */\n      pop\n      pop\n      jump\t// out\n        /* \"#utility.yul\":7036:7154   */\n    tag_105:\n        /* \"#utility.yul\":7123:7147   */\n      tag_222\n        /* \"#utility.yul\":7141:7146   */\n      dup2\n        /* \"#utility.yul\":7123:7147   */\n      tag_79\n      jump\t// in\n    tag_222:\n        /* \"#utility.yul\":7118:7121   */\n      dup3\n        /* \"#utility.yul\":7111:7148   */\n      mstore\n        /* \"#utility.yul\":7036:7154   */\n      pop\n      pop\n      jump\t// out\n        /* \"#utility.yul\":7160:7994   */\n    tag_26:\n        /* \"#utility.yul\":7399:7403   */\n      0x00\n        /* \"#utility.yul\":7437:7440   */\n      0xa0\n        /* \"#utility.yul\":7426:7435   */\n      dup3\n        /* \"#utility.yul\":7422:7441   */\n      add\n        /* \"#utility.yul\":7414:7441   */\n      swap1\n      pop\n        /* \"#utility.yul\":7487:7496   */\n      dup2\n        /* \"#utility.yul\":7481:7485   */\n      dup2\n        /* \"#utility.yul\":7477:7497   */\n      sub\n        /* \"#utility.yul\":7473:7474   */\n      0x00\n        /* \"#utility.yul\":7462:7471   */\n      dup4\n        /* \"#utility.yul\":7458:7475   */\n      add\n        /* \"#utility.yul\":7451:7498   */\n      mstore\n        /* \"#utility.yul\":7515:7593   */\n      tag_224\n        /* \"#utility.yul\":7588:7592   */\n      dup2\n        /* \"#utility.yul\":7579:7585   */\n      dup9\n        /* \"#utility.yul\":7515:7593   */\n      tag_100\n      jump\t// in\n    tag_224:\n        /* \"#utility.yul\":7507:7593   */\n      swap1\n      pop\n        /* \"#utility.yul\":7640:7649   */\n      dup2\n        /* \"#utility.yul\":7634:7638   */\n      dup2\n        /* \"#utility.yul\":7630:7650   */\n      sub\n        /* \"#utility.yul\":7625:7627   */\n      0x20\n        /* \"#utility.yul\":7614:7623   */\n      dup4\n        /* \"#utility.yul\":7610:7628   */\n      add\n        /* \"#utility.yul\":7603:7651   */\n      mstore\n        /* \"#utility.yul\":7668:7746   */\n      tag_225\n        /* \"#utility.yul\":7741:7745   */\n      dup2\n        /* \"#utility.yul\":7732:7738   */\n      dup8\n        /* \"#utility.yul\":7668:7746   */\n      tag_100\n      jump\t// in\n    tag_225:\n        /* \"#utility.yul\":7660:7746   */\n      swap1\n      pop\n        /* \"#utility.yul\":7756:7828   */\n      tag_226\n        /* \"#utility.yul\":7824:7826   */\n      0x40\n        /* \"#utility.yul\":7813:7822   */\n      dup4\n        /* \"#utility.yul\":7809:7827   */\n      add\n        /* \"#utility.yul\":7800:7806   */\n      dup7\n        /* \"#utility.yul\":7756:7828   */\n      tag_102\n      jump\t// in\n    tag_226:\n        /* \"#utility.yul\":7838:7904   */\n      tag_227\n        /* \"#utility.yul\":7900:7902   */\n      0x60\n        /* \"#utility.yul\":7889:7898   */\n      dup4\n        /* \"#utility.yul\":7885:7903   */\n      add\n        /* \"#utility.yul\":7876:7882   */\n      dup6\n        /* \"#utility.yul\":7838:7904   */\n      tag_104\n      jump\t// in\n    tag_227:\n        /* \"#utility.yul\":7914:7987   */\n      tag_228\n        /* \"#utility.yul\":7982:7985   */\n      0x80\n        /* \"#utility.yul\":7971:7980   */\n      dup4\n        /* \"#utility.yul\":7967:7986   */\n      add\n        /* \"#utility.yul\":7958:7964   */\n      dup5\n        /* \"#utility.yul\":7914:7987   */\n      tag_105\n      jump\t// in\n    tag_228:\n        /* \"#utility.yul\":7160:7994   */\n      swap7\n      swap6\n      pop\n      pop\n      pop\n      pop\n      pop\n      pop\n      jump\t// out\n        /* \"#utility.yul\":8000:8117   */\n    tag_106:\n        /* \"#utility.yul\":8109:8110   */\n      0x00\n        /* \"#utility.yul\":8106:8107   */\n      0x00\n        /* \"#utility.yul\":8099:8111   */\n      revert\n        /* \"#utility.yul\":8123:8303   */\n    tag_107:\n        /* \"#utility.yul\":8171:8248   */\n      0x4e487b7100000000000000000000000000000000000000000000000000000000\n        /* \"#utility.yul\":8168:8169   */\n      0x00\n        /* \"#utility.yul\":8161:8249   */\n      mstore\n        /* \"#utility.yul\":8268:8272   */\n      0x41\n        /* \"#utility.yul\":8265:8266   */\n      0x04\n        /* \"#utility.yul\":8258:8273   */\n      mstore\n        /* \"#utility.yul\":8292:8296   */\n      0x24\n        /* \"#utility.yul\":8289:8290   */\n      0x00\n        /* \"#utility.yul\":8282:8297   */\n      revert\n        /* \"#utility.yul\":8309:8590   */\n    tag_108:\n        /* \"#utility.yul\":8392:8419   */\n      tag_232\n        /* \"#utility.yul\":8414:8418   */\n      dup3\n        /* \"#utility.yul\":8392:8419   */\n      tag_99\n      jump\t// in\n    tag_232:\n        /* \"#utility.yul\":8384:8390   */\n      dup2\n        /* \"#utility.yul\":8380:8420   */\n      add\n        /* \"#utility.yul\":8522:8528   */\n      dup2\n        /* \"#utility.yul\":8510:8520   */\n      dup2\n        /* \"#utility.yul\":8507:8529   */\n      lt\n        /* \"#utility.yul\":8486:8504   */\n      0xffffffffffffffff\n        /* \"#utility.yul\":8474:8484   */\n      dup3\n        /* \"#utility.yul\":8471:8505   */\n      gt\n        /* \"#utility.yul\":8468:8530   */\n      or\n        /* \"#utility.yul\":8465:8553   */\n      iszero\n      tag_233\n      jumpi\n        /* \"#utility.yul\":8533:8551   */\n      tag_234\n      tag_107\n      jump\t// in\n    tag_234:\n        /* \"#utility.yul\":8465:8553   */\n    tag_233:\n        /* \"#utility.yul\":8573:8583   */\n      dup1\n        /* \"#utility.yul\":8569:8571   */\n      0x40\n        /* \"#utility.yul\":8562:8584   */\n      mstore\n        /* \"#utility.yul\":8352:8590   */\n      pop\n        /* \"#utility.yul\":8309:8590   */\n      pop\n      pop\n      jump\t// out\n        /* \"#utility.yul\":8596:8725   */\n    tag_109:\n        /* \"#utility.yul\":8630:8636   */\n      0x00\n        /* \"#utility.yul\":8657:8677   */\n      tag_236\n      tag_75\n      jump\t// in\n    tag_236:\n        /* \"#utility.yul\":8647:8677   */\n      swap1\n      pop\n        /* \"#utility.yul\":8686:8719   */\n      tag_237\n        /* \"#utility.yul\":8714:8718   */\n      dup3\n        /* \"#utility.yul\":8706:8712   */\n      dup3\n        /* \"#utility.yul\":8686:8719   */\n      tag_108\n      jump\t// in\n    tag_237:\n        /* \"#utility.yul\":8596:8725   */\n      swap2\n      swap1\n      pop\n      jump\t// out\n        /* \"#utility.yul\":8731:9039   */\n    tag_110:\n        /* \"#utility.yul\":8793:8797   */\n      0x00\n        /* \"#utility.yul\":8883:8901   */\n      0xffffffffffffffff\n        /* \"#utility.yul\":8875:8881   */\n      dup3\n        /* \"#utility.yul\":8872:8902   */\n      gt\n        /* \"#utility.yul\":8869:8925   */\n      iszero\n      tag_239\n      jumpi\n        /* \"#utility.yul\":8905:8923   */\n      tag_240\n      tag_107\n      jump\t// in\n    tag_240:\n        /* \"#utility.yul\":8869:8925   */\n    tag_239:\n        /* \"#utility.yul\":8943:8972   */\n      tag_241\n        /* \"#utility.yul\":8965:8971   */\n      dup3\n        /* \"#utility.yul\":8943:8972   */\n      tag_99\n      jump\t// in\n    tag_241:\n        /* \"#utility.yul\":8935:8972   */\n      swap1\n      pop\n        /* \"#utility.yul\":9027:9031   */\n      0x20\n        /* \"#utility.yul\":9021:9025   */\n      dup2\n        /* \"#utility.yul\":9017:9032   */\n      add\n        /* \"#utility.yul\":9009:9032   */\n      swap1\n      pop\n        /* \"#utility.yul\":8731:9039   */\n      swap2\n      swap1\n      pop\n      jump\t// out\n        /* \"#utility.yul\":9045:9193   */\n    tag_111:\n        /* \"#utility.yul\":9143:9149   */\n      dup3\n        /* \"#utility.yul\":9138:9141   */\n      dup2\n        /* \"#utility.yul\":9133:9136   */\n      dup4\n        /* \"#utility.yul\":9120:9150   */\n      calldatacopy\n        /* \"#utility.yul\":9184:9185   */\n      0x00\n        /* \"#utility.yul\":9175:9181   */\n      dup4\n        /* \"#utility.yul\":9170:9173   */\n      dup4\n        /* \"#utility.yul\":9166:9182   */\n      add\n        /* \"#utility.yul\":9159:9186   */\n      mstore\n        /* \"#utility.yul\":9045:9193   */\n      pop\n      pop\n      pop\n      jump\t// out\n        /* \"#utility.yul\":9199:9624   */\n    tag_112:\n        /* \"#utility.yul\":9277:9282   */\n      0x00\n        /* \"#utility.yul\":9302:9368   */\n      tag_244\n        /* \"#utility.yul\":9318:9367   */\n      tag_245\n        /* \"#utility.yul\":9360:9366   */\n      dup5\n        /* \"#utility.yul\":9318:9367   */\n      tag_110\n      jump\t// in\n    tag_245:\n        /* \"#utility.yul\":9302:9368   */\n      tag_109\n      jump\t// in\n    tag_244:\n        /* \"#utility.yul\":9293:9368   */\n      swap1\n      pop\n        /* \"#utility.yul\":9391:9397   */\n      dup3\n        /* \"#utility.yul\":9384:9389   */\n      dup2\n        /* \"#utility.yul\":9377:9398   */\n      mstore\n        /* \"#utility.yul\":9429:9433   */\n      0x20\n        /* \"#utility.yul\":9422:9427   */\n      dup2\n        /* \"#utility.yul\":9418:9434   */\n      add\n        /* \"#utility.yul\":9467:9470   */\n      dup5\n        /* \"#utility.yul\":9458:9464   */\n      dup5\n        /* \"#utility.yul\":9453:9456   */\n      dup5\n        /* \"#utility.yul\":9449:9465   */\n      add\n        /* \"#utility.yul\":9446:9471   */\n      gt\n        /* \"#utility.yul\":9443:9555   */\n      iszero\n      tag_246\n      jumpi\n        /* \"#utility.yul\":9474:9553   */\n      tag_247\n      tag_106\n      jump\t// in\n    tag_247:\n        /* \"#utility.yul\":9443:9555   */\n    tag_246:\n        /* \"#utility.yul\":9564:9618   */\n      tag_248\n        /* \"#utility.yul\":9611:9617   */\n      dup5\n        /* \"#utility.yul\":9606:9609   */\n      dup3\n        /* \"#utility.yul\":9601:9604   */\n      dup6\n        /* \"#utility.yul\":9564:9618   */\n      tag_111\n      jump\t// in\n    tag_248:\n        /* \"#utility.yul\":9283:9624   */\n      pop\n        /* \"#utility.yul\":9199:9624   */\n      swap4\n      swap3\n      pop\n      pop\n      pop\n      jump\t// out\n        /* \"#utility.yul\":9644:9984   */\n    tag_113:\n        /* \"#utility.yul\":9700:9705   */\n      0x00\n        /* \"#utility.yul\":9749:9752   */\n      dup3\n        /* \"#utility.yul\":9742:9746   */\n      0x1f\n        /* \"#utility.yul\":9734:9740   */\n      dup4\n        /* \"#utility.yul\":9730:9747   */\n      add\n        /* \"#utility.yul\":9726:9753   */\n      slt\n        /* \"#utility.yul\":9716:9838   */\n      tag_250\n      jumpi\n        /* \"#utility.yul\":9757:9836   */\n      tag_251\n      tag_90\n      jump\t// in\n    tag_251:\n        /* \"#utility.yul\":9716:9838   */\n    tag_250:\n        /* \"#utility.yul\":9874:9880   */\n      dup2\n        /* \"#utility.yul\":9861:9881   */\n      calldataload\n        /* \"#utility.yul\":9899:9978   */\n      tag_252\n        /* \"#utility.yul\":9974:9977   */\n      dup5\n        /* \"#utility.yul\":9966:9972   */\n      dup3\n        /* \"#utility.yul\":9959:9963   */\n      0x20\n        /* \"#utility.yul\":9951:9957   */\n      dup7\n        /* \"#utility.yul\":9947:9964   */\n      add\n        /* \"#utility.yul\":9899:9978   */\n      tag_112\n      jump\t// in\n    tag_252:\n        /* \"#utility.yul\":9890:9978   */\n      swap2\n      pop\n        /* \"#utility.yul\":9706:9984   */\n      pop\n        /* \"#utility.yul\":9644:9984   */\n      swap3\n      swap2\n      pop\n      pop\n      jump\t// out\n        /* \"#utility.yul\":9990:10644   */\n    tag_29:\n        /* \"#utility.yul\":10068:10074   */\n      0x00\n        /* \"#utility.yul\":10076:10082   */\n      0x00\n        /* \"#utility.yul\":10125:10127   */\n      0x40\n        /* \"#utility.yul\":10113:10122   */\n      dup4\n        /* \"#utility.yul\":10104:10111   */\n      dup6\n        /* \"#utility.yul\":10100:10123   */\n      sub\n        /* \"#utility.yul\":10096:10128   */\n      slt\n        /* \"#utility.yul\":10093:10212   */\n      iszero\n      tag_254\n      jumpi\n        /* \"#utility.yul\":10131:10210   */\n      tag_255\n      tag_76\n      jump\t// in\n    tag_255:\n        /* \"#utility.yul\":10093:10212   */\n    tag_254:\n        /* \"#utility.yul\":10251:10252   */\n      0x00\n        /* \"#utility.yul\":10276:10329   */\n      tag_256\n        /* \"#utility.yul\":10321:10328   */\n      dup6\n        /* \"#utility.yul\":10312:10318   */\n      dup3\n        /* \"#utility.yul\":10301:10310   */\n      dup7\n        /* \"#utility.yul\":10297:10319   */\n      add\n        /* \"#utility.yul\":10276:10329   */\n      tag_81\n      jump\t// in\n    tag_256:\n        /* \"#utility.yul\":10266:10329   */\n      swap3\n      pop\n        /* \"#utility.yul\":10222:10339   */\n      pop\n        /* \"#utility.yul\":10406:10408   */\n      0x20\n        /* \"#utility.yul\":10395:10404   */\n      dup4\n        /* \"#utility.yul\":10391:10409   */\n      add\n        /* \"#utility.yul\":10378:10410   */\n      calldataload\n        /* \"#utility.yul\":10437:10455   */\n      0xffffffffffffffff\n        /* \"#utility.yul\":10429:10435   */\n      dup2\n        /* \"#utility.yul\":10426:10456   */\n      gt\n        /* \"#utility.yul\":10423:10540   */\n      iszero\n      tag_257\n      jumpi\n        /* \"#utility.yul\":10459:10538   */\n      tag_258\n      tag_77\n      jump\t// in\n    tag_258:\n        /* \"#utility.yul\":10423:10540   */\n    tag_257:\n        /* \"#utility.yul\":10564:10627   */\n      tag_259\n        /* \"#utility.yul\":10619:10626   */\n      dup6\n        /* \"#utility.yul\":10610:10616   */\n      dup3\n        /* \"#utility.yul\":10599:10608   */\n      dup7\n        /* \"#utility.yul\":10595:10617   */\n      add\n        /* \"#utility.yul\":10564:10627   */\n      tag_113\n      jump\t// in\n    tag_259:\n        /* \"#utility.yul\":10554:10627   */\n      swap2\n      pop\n        /* \"#utility.yul\":10349:10637   */\n      pop\n        /* \"#utility.yul\":9990:10644   */\n      swap3\n      pop\n      swap3\n      swap1\n      pop\n      jump\t// out\n        /* \"#utility.yul\":10650:10768   */\n    tag_114:\n        /* \"#utility.yul\":10737:10761   */\n      tag_261\n        /* \"#utility.yul\":10755:10760   */\n      dup2\n        /* \"#utility.yul\":10737:10761   */\n      tag_85\n      jump\t// in\n    tag_261:\n        /* \"#utility.yul\":10732:10735   */\n      dup3\n        /* \"#utility.yul\":10725:10762   */\n      mstore\n        /* \"#utility.yul\":10650:10768   */\n      pop\n      pop\n      jump\t// out\n        /* \"#utility.yul\":10774:10996   */\n    tag_32:\n        /* \"#utility.yul\":10867:10871   */\n      0x00\n        /* \"#utility.yul\":10905:10907   */\n      0x20\n        /* \"#utility.yul\":10894:10903   */\n      dup3\n        /* \"#utility.yul\":10890:10908   */\n      add\n        /* \"#utility.yul\":10882:10908   */\n      swap1\n      pop\n        /* \"#utility.yul\":10918:10989   */\n      tag_263\n        /* \"#utility.yul\":10986:10987   */\n      0x00\n        /* \"#utility.yul\":10975:10984   */\n      dup4\n        /* \"#utility.yul\":10971:10988   */\n      add\n        /* \"#utility.yul\":10962:10968   */\n      dup5\n        /* \"#utility.yul\":10918:10989   */\n      tag_114\n      jump\t// in\n    tag_263:\n        /* \"#utility.yul\":10774:10996   */\n      swap3\n      swap2\n      pop\n      pop\n      jump\t// out\n        /* \"#utility.yul\":11002:11165   */\n    tag_115:\n        /* \"#utility.yul\":11142:11157   */\n      0x4861736820726571756972656400000000000000000000000000000000000000\n        /* \"#utility.yul\":11138:11139   */\n      0x00\n        /* \"#utility.yul\":11130:11136   */\n      dup3\n        /* \"#utility.yul\":11126:11140   */\n      add\n        /* \"#utility.yul\":11119:11158   */\n      mstore\n        /* \"#utility.yul\":11002:11165   */\n      pop\n      jump\t// out\n        /* \"#utility.yul\":11171:11537   */\n    tag_116:\n        /* \"#utility.yul\":11313:11316   */\n      0x00\n        /* \"#utility.yul\":11334:11401   */\n      tag_266\n        /* \"#utility.yul\":11398:11400   */\n      0x0d\n        /* \"#utility.yul\":11393:11396   */\n      dup4\n        /* \"#utility.yul\":11334:11401   */\n      tag_97\n      jump\t// in\n    tag_266:\n        /* \"#utility.yul\":11327:11401   */\n      swap2\n      pop\n        /* \"#utility.yul\":11410:11503   */\n      tag_267\n        /* \"#utility.yul\":11499:11502   */\n      dup3\n        /* \"#utility.yul\":11410:11503   */\n      tag_115\n      jump\t// in\n    tag_267:\n        /* \"#utility.yul\":11528:11530   */\n      0x20\n        /* \"#utility.yul\":11523:11526   */\n      dup3\n        /* \"#utility.yul\":11519:11531   */\n      add\n        /* \"#utility.yul\":11512:11531   */\n      swap1\n      pop\n        /* \"#utility.yul\":11171:11537   */\n      swap2\n      swap1\n      pop\n      jump\t// out\n        /* \"#utility.yul\":11543:11962   */\n    tag_39:\n        /* \"#utility.yul\":11709:11713   */\n      0x00\n        /* \"#utility.yul\":11747:11749   */\n      0x20\n        /* \"#utility.yul\":11736:11745   */\n      dup3\n        /* \"#utility.yul\":11732:11750   */\n      add\n        /* \"#utility.yul\":11724:11750   */\n      swap1\n      pop\n        /* \"#utility.yul\":11796:11805   */\n      dup2\n        /* \"#utility.yul\":11790:11794   */\n      dup2\n        /* \"#utility.yul\":11786:11806   */\n      sub\n        /* \"#utility.yul\":11782:11783   */\n      0x00\n        /* \"#utility.yul\":11771:11780   */\n      dup4\n        /* \"#utility.yul\":11767:11784   */\n      add\n        /* \"#utility.yul\":11760:11807   */\n      mstore\n        /* \"#utility.yul\":11824:11955   */\n      tag_269\n        /* \"#utility.yul\":11950:11954   */\n      dup2\n        /* \"#utility.yul\":11824:11955   */\n      tag_116\n      jump\t// in\n    tag_269:\n        /* \"#utility.yul\":11816:11955   */\n      swap1\n      pop\n        /* \"#utility.yul\":11543:11962   */\n      swap2\n      swap1\n      pop\n      jump\t// out\n        /* \"#utility.yul\":11968:12141   */\n    tag_117:\n        /* \"#utility.yul\":12108:12133   */\n      0x446f63756d656e7420616c726561647920657869737473000000000000000000\n        /* \"#utility.yul\":12104:12105   */\n      0x00\n        /* \"#utility.yul\":12096:12102   */\n      dup3\n        /* \"#utility.yul\":12092:12106   */\n      add\n        /* \"#utility.yul\":12085:12134   */\n      mstore\n        /* \"#utility.yul\":11968:12141   */\n      pop\n      jump\t// out\n        /* \"#utility.yul\":12147:12513   */\n    tag_118:\n        /* \"#utility.yul\":12289:12292   */\n      0x00\n        /* \"#utility.yul\":12310:12377   */\n      tag_272\n        /* \"#utility.yul\":12374:12376   */\n      0x17\n        /* \"#utility.yul\":12369:12372   */\n      dup4\n        /* \"#utility.yul\":12310:12377   */\n      tag_97\n      jump\t// in\n    tag_272:\n        /* \"#utility.yul\":12303:12377   */\n      swap2\n      pop\n        /* \"#utility.yul\":12386:12479   */\n      tag_273\n        /* \"#utility.yul\":12475:12478   */\n      dup3\n        /* \"#utility.yul\":12386:12479   */\n      tag_117\n      jump\t// in\n    tag_273:\n        /* \"#utility.yul\":12504:12506   */\n      0x20\n        /* \"#utility.yul\":12499:12502   */\n      dup3\n        /* \"#utility.yul\":12495:12507   */\n      add\n        /* \"#utility.yul\":12488:12507   */\n      swap1\n      pop\n        /* \"#utility.yul\":12147:12513   */\n      swap2\n      swap1\n      pop\n      jump\t// out\n        /* \"#utility.yul\":12519:12938   */\n    tag_43:\n        /* \"#utility.yul\":12685:12689   */\n      0x00\n        /* \"#utility.yul\":12723:12725   */\n      0x20\n        /* \"#utility.yul\":12712:12721   */\n      dup3\n        /* \"#utility.yul\":12708:12726   */\n      add\n        /* \"#utility.yul\":12700:12726   */\n      swap1\n      pop\n        /* \"#utility.yul\":12772:12781   */\n      dup2\n        /* \"#utility.yul\":12766:12770   */\n      dup2\n        /* \"#utility.yul\":12762:12782   */\n      sub\n        /* \"#utility.yul\":12758:12759   */\n      0x00\n        /* \"#utility.yul\":12747:12756   */\n      dup4\n        /* \"#utility.yul\":12743:12760   */\n      add\n        /* \"#utility.yul\":12736:12783   */\n      mstore\n        /* \"#utility.yul\":12800:12931   */\n      tag_275\n        /* \"#utility.yul\":12926:12930   */\n      dup2\n        /* \"#utility.yul\":12800:12931   */\n      tag_118\n      jump\t// in\n    tag_275:\n        /* \"#utility.yul\":12792:12931   */\n      swap1\n      pop\n        /* \"#utility.yul\":12519:12938   */\n      swap2\n      swap1\n      pop\n      jump\t// out\n        /* \"#utility.yul\":12944:13124   */\n    tag_119:\n        /* \"#utility.yul\":12992:13069   */\n      0x4e487b7100000000000000000000000000000000000000000000000000000000\n        /* \"#utility.yul\":12989:12990   */\n      0x00\n        /* \"#utility.yul\":12982:13070   */\n      mstore\n        /* \"#utility.yul\":13089:13093   */\n      0x22\n        /* \"#utility.yul\":13086:13087   */\n      0x04\n        /* \"#utility.yul\":13079:13094   */\n      mstore\n        /* \"#utility.yul\":13113:13117   */\n      0x24\n        /* \"#utility.yul\":13110:13111   */\n      0x00\n        /* \"#utility.yul\":13103:13118   */\n      revert\n        /* \"#utility.yul\":13130:13450   */\n    tag_62:\n        /* \"#utility.yul\":13174:13180   */\n      0x00\n        /* \"#utility.yul\":13211:13212   */\n      0x02\n        /* \"#utility.yul\":13205:13209   */\n      dup3\n        /* \"#utility.yul\":13201:13213   */\n      div\n        /* \"#utility.yul\":13191:13213   */\n      swap1\n      pop\n        /* \"#utility.yul\":13258:13259   */\n      0x01\n        /* \"#utility.yul\":13252:13256   */\n      dup3\n        /* \"#utility.yul\":13248:13260   */\n      and\n        /* \"#utility.yul\":13279:13297   */\n      dup1\n        /* \"#utility.yul\":13269:13350   */\n      tag_278\n      jumpi\n        /* \"#utility.yul\":13335:13339   */\n      0x7f\n        /* \"#utility.yul\":13327:13333   */\n      dup3\n        /* \"#utility.yul\":13323:13340   */\n      and\n        /* \"#utility.yul\":13313:13340   */\n      swap2\n      pop\n        /* \"#utility.yul\":13269:13350   */\n    tag_278:\n        /* \"#utility.yul\":13397:13399   */\n      0x20\n        /* \"#utility.yul\":13389:13395   */\n      dup3\n        /* \"#utility.yul\":13386:13400   */\n      lt\n        /* \"#utility.yul\":13366:13384   */\n      dup2\n        /* \"#utility.yul\":13363:13401   */\n      sub\n        /* \"#utility.yul\":13360:13444   */\n      tag_279\n      jumpi\n        /* \"#utility.yul\":13416:13434   */\n      tag_280\n      tag_119\n      jump\t// in\n    tag_280:\n        /* \"#utility.yul\":13360:13444   */\n    tag_279:\n        /* \"#utility.yul\":13181:13450   */\n      pop\n        /* \"#utility.yul\":13130:13450   */\n      swap2\n      swap1\n      pop\n      jump\t// out\n        /* \"#utility.yul\":13456:13597   */\n    tag_120:\n        /* \"#utility.yul\":13505:13509   */\n      0x00\n        /* \"#utility.yul\":13528:13531   */\n      dup2\n        /* \"#utility.yul\":13520:13531   */\n      swap1\n      pop\n        /* \"#utility.yul\":13551:13554   */\n      dup2\n        /* \"#utility.yul\":13548:13549   */\n      0x00\n        /* \"#utility.yul\":13541:13555   */\n      mstore\n        /* \"#utility.yul\":13585:13589   */\n      0x20\n        /* \"#utility.yul\":13582:13583   */\n      0x00\n        /* \"#utility.yul\":13572:13590   */\n      keccak256\n        /* \"#utility.yul\":13564:13590   */\n      swap1\n      pop\n        /* \"#utility.yul\":13456:13597   */\n      swap2\n      swap1\n      pop\n      jump\t// out\n        /* \"#utility.yul\":13603:13696   */\n    tag_121:\n        /* \"#utility.yul\":13640:13646   */\n      0x00\n        /* \"#utility.yul\":13687:13689   */\n      0x20\n        /* \"#utility.yul\":13682:13684   */\n      0x1f\n        /* \"#utility.yul\":13675:13680   */\n      dup4\n        /* \"#utility.yul\":13671:13685   */\n      add\n        /* \"#utility.yul\":13667:13690   */\n      div\n        /* \"#utility.yul\":13657:13690   */\n      swap1\n      pop\n        /* \"#utility.yul\":13603:13696   */\n      swap2\n      swap1\n      pop\n      jump\t// out\n        /* \"#utility.yul\":13702:13809   */\n    tag_122:\n        /* \"#utility.yul\":13746:13754   */\n      0x00\n        /* \"#utility.yul\":13796:13801   */\n      dup3\n        /* \"#utility.yul\":13790:13794   */\n      dup3\n        /* \"#utility.yul\":13786:13802   */\n      shl\n        /* \"#utility.yul\":13765:13802   */\n      swap1\n      pop\n        /* \"#utility.yul\":13702:13809   */\n      swap3\n      swap2\n      pop\n      pop\n      jump\t// out\n        /* \"#utility.yul\":13815:14208   */\n    tag_123:\n        /* \"#utility.yul\":13884:13890   */\n      0x00\n        /* \"#utility.yul\":13934:13935   */\n      0x08\n        /* \"#utility.yul\":13922:13932   */\n      dup4\n        /* \"#utility.yul\":13918:13936   */\n      mul\n        /* \"#utility.yul\":13957:14054   */\n      tag_285\n        /* \"#utility.yul\":13987:14053   */\n      0xffffffffffffffffffffffffffffffffffffffffffffffffffffffffffffffff\n        /* \"#utility.yul\":13976:13985   */\n      dup3\n        /* \"#utility.yul\":13957:14054   */\n      tag_122\n      jump\t// in\n    tag_285:\n        /* \"#utility.yul\":14075:14114   */\n      tag_286\n        /* \"#utility.yul\":14105:14113   */\n      dup7\n        /* \"#utility.yul\":14094:14103   */\n      dup4\n        /* \"#utility.yul\":14075:14114   */\n      tag_122\n      jump\t// in\n    tag_286:\n        /* \"#utility.yul\":14063:14114   */\n      swap6\n      pop\n        /* \"#utility.yul\":14147:14151   */\n      dup1\n        /* \"#utility.yul\":14143:14152   */\n      not\n        /* \"#utility.yul\":14136:14141   */\n      dup5\n        /* \"#utility.yul\":14132:14153   */\n      and\n        /* \"#utility.yul\":14123:14153   */\n      swap4\n      pop\n        /* \"#utility.yul\":14196:14200   */\n      dup1\n        /* \"#utility.yul\":14186:14194   */\n      dup7\n        /* \"#utility.yul\":14182:14201   */\n      and\n        /* \"#utility.yul\":14175:14180   */\n      dup5\n        /* \"#utility.yul\":14172:14202   */\n      or\n        /* \"#utility.yul\":14162:14202   */\n      swap3\n      pop\n        /* \"#utility.yul\":13891:14208   */\n      pop\n      pop\n        /* \"#utility.yul\":13815:14208   */\n      swap4\n      swap3\n      pop\n      pop\n      pop\n      jump\t// out\n        /* \"#utility.yul\":14214:14274   */\n    tag_124:\n        /* \"#utility.yul\":14242:14245   */\n      0x00\n        /* \"#utility.yul\":14263:14268   */\n      dup2\n        /* \"#utility.yul\":14256:14268   */\n      swap1\n      pop\n        /* \"#utility.yul\":14214:14274   */\n      swap2\n      swap1\n      pop\n      jump\t// out\n        /* \"#utility.yul\":14280:14422   */\n    tag_125:\n        /* \"#utility.yul\":14330:14339   */\n      0x00\n        /* \"#utility.yul\":14363:14416   */\n      tag_289\n        /* \"#utility.yul\":14381:14415   */\n      tag_290\n        /* \"#utility.yul\":14390:14414   */\n      tag_291\n        /* \"#utility.yul\":14408:14413   */\n      dup5\n        /* \"#utility.yul\":14390:14414   */\n      tag_101\n      jump\t// in\n    tag_291:\n        /* \"#utility.yul\":14381:14415   */\n      tag_124\n      jump\t// in\n    tag_290:\n        /* \"#utility.yul\":14363:14416   */\n      tag_101\n      jump\t// in\n    tag_289:\n        /* \"#utility.yul\":14350:14416   */\n      swap1\n      pop\n        /* \"#utility.yul\":14280:14422   */\n      swap2\n      swap1\n      pop\n      jump\t// out\n        /* \"#utility.yul\":14428:14503   */\n    tag_126:\n        /* \"#utility.yul\":14471:14474   */\n      0x00\n        /* \"#utility.yul\":14492:14497   */\n      dup2\n        /* \"#utility.yul\":14485:14497   */\n      swap1\n      pop\n        /* \"#utility.yul\":14428:14503   */\n      swap2\n      swap1\n      pop\n      jump\t// out\n        /* \"#utility.yul\":14509:14778   */\n    tag_127:\n        /* \"#utility.yul\":14619:14658   */\n      tag_294\n        /* \"#utility.yul\":14650:14657   */\n      dup4\n        /* \"#utility.yul\":14619:14658   */\n      tag_125\n      jump\t// in\n    tag_294:\n        /* \"#utility.yul\":14680:14771   */\n      tag_295\n        /* \"#utility.yul\":14729:14770   */\n      tag_296\n        /* \"#utility.yul\":14753:14769   */\n      dup3\n        /* \"#utility.yul\":14729:14770   */\n      tag_126\n      jump\t// in\n    tag_296:\n        /* \"#utility.yul\":14721:14727   */\n      dup5\n        /* \"#utility.yul\":14714:14718   */\n      dup5\n        /* \"#utility.yul\":14708:14719   */\n      sload\n        /* \"#utility.yul\":14680:14771   */\n      tag_123\n      jump\t// in\n    tag_295:\n        /* \"#utility.yul\":14674:14678   */\n      dup3\n        /* \"#utility.yul\":14667:14772   */\n      sstore\n        /* \"#utility.yul\":14585:14778   */\n      pop\n        /* \"#utility.yul\":14509:14778   */\n      pop\n      pop\n      pop\n      jump\t// out\n        /* \"#utility.yul\":14784:14857   */\n    tag_128:\n        /* \"#utility.yul\":14829:14832   */\n      0x00\n        /* \"#utility.yul\":14850:14851   */\n      0x00\n        /* \"#utility.yul\":14843:14851   */\n      swap1\n      pop\n        /* \"#utility.yul\":14784:14857   */\n      swap1\n      jump\t// out\n        /* \"#utility.yul\":14863:15052   */\n    tag_129:\n        /* \"#utility.yul\":14940:14972   */\n      tag_299\n      tag_128\n      jump\t// in\n    tag_299:\n        /* \"#utility.yul\":14981:15046   */\n      tag_300\n        /* \"#utility.yul\":15039:15045   */\n      dup2\n        /* \"#utility.yul\":15031:15037   */\n      dup5\n        /* \"#utility.yul\":15025:15029   */\n      dup5\n        /* \"#utility.yul\":14981:15046   */\n      tag_127\n      jump\t// in\n    tag_300:\n        /* \"#utility.yul\":14916:15052   */\n      pop\n        /* \"#utility.yul\":14863:15052   */\n      pop\n      pop\n      jump\t// out\n        /* \"#utility.yul\":15058:15244   */\n    tag_130:\n        /* \"#utility.yul\":15118:15238   */\n    tag_302:\n        /* \"#utility.yul\":15135:15138   */\n      dup2\n        /* \"#utility.yul\":15128:15133   */\n      dup2\n        /* \"#utility.yul\":15125:15139   */\n      lt\n        /* \"#utility.yul\":15118:15238   */\n      iszero\n      tag_304\n      jumpi\n        /* \"#utility.yul\":15189:15228   */\n      tag_305\n        /* \"#utility.yul\":15226:15227   */\n      0x00\n        /* \"#utility.yul\":15219:15224   */\n      dup3\n        /* \"#utility.yul\":15189:15228   */\n      tag_129\n      jump\t// in\n    tag_305:\n        /* \"#utility.yul\":15162:15163   */\n      0x01\n        /* \"#utility.yul\":15155:15160   */\n      dup2\n        /* \"#utility.yul\":15151:15164   */\n      add\n        /* \"#utility.yul\":15142:15164   */\n      swap1\n      pop\n        /* \"#utility.yul\":15118:15238   */\n      jump(tag_302)\n    tag_304:\n        /* \"#utility.yul\":15058:15244   */\n      pop\n      pop\n      jump\t// out\n        /* \"#utility.yul\":15250:15793   */\n    tag_131:\n        /* \"#utility.yul\":15351:15353   */\n      0x1f\n        /* \"#utility.yul\":15346:15349   */\n      dup3\n        /* \"#utility.yul\":15343:15354   */\n      gt\n        /* \"#utility.yul\":15340:15786   */\n      iszero\n      tag_307\n      jumpi\n        /* \"#utility.yul\":15385:15423   */\n      tag_308\n        /* \"#utility.yul\":15417:15422   */\n      dup2\n        /* \"#utility.yul\":15385:15423   */\n      tag_120\n      jump\t// in\n    tag_308:\n        /* \"#utility.yul\":15469:15498   */\n      tag_309\n        /* \"#utility.yul\":15487:15497   */\n      dup5\n        /* \"#utility.yul\":15469:15498   */\n      tag_121\n      jump\t// in\n    tag_309:\n        /* \"#utility.yul\":15459:15467   */\n      dup2\n        /* \"#utility.yul\":15455:15499   */\n      add\n        /* \"#utility.yul\":15652:15654   */\n      0x20\n        /* \"#utility.yul\":15640:15650   */\n      dup6\n        /* \"#utility.yul\":15637:15655   */\n      lt\n        /* \"#utility.yul\":15634:15683   */\n      iszero\n      tag_310\n      jumpi\n        /* \"#utility.yul\":15673:15681   */\n      dup2\n        /* \"#utility.yul\":15658:15681   */\n      swap1\n      pop\n        /* \"#utility.yul\":15634:15683   */\n    tag_310:\n        /* \"#utility.yul\":15696:15776   */\n      tag_311\n        /* \"#utility.yul\":15752:15774   */\n      tag_312\n        /* \"#utility.yul\":15770:15773   */\n      dup6\n        /* \"#utility.yul\":15752:15774   */\n      tag_121\n      jump\t// in\n    tag_312:\n        /* \"#utility.yul\":15742:15750   */\n      dup4\n        /* \"#utility.yul\":15738:15775   */\n      add\n        /* \"#utility.yul\":15725:15736   */\n      dup3\n        /* \"#utility.yul\":15696:15776   */\n      tag_130\n      jump\t// in\n    tag_311:\n        /* \"#utility.yul\":15355:15786   */\n      pop\n      pop\n        /* \"#utility.yul\":15340:15786   */\n    tag_307:\n        /* \"#utility.yul\":15250:15793   */\n      pop\n      pop\n      pop\n      jump\t// out\n        /* \"#utility.yul\":15799:15916   */\n    tag_132:\n        /* \"#utility.yul\":15853:15861   */\n      0x00\n        /* \"#utility.yul\":15903:15908   */\n      dup3\n        /* \"#utility.yul\":15897:15901   */\n      dup3\n        /* \"#utility.yul\":15893:15909   */\n      shr\n        /* \"#utility.yul\":15872:15909   */\n      swap1\n      pop\n        /* \"#utility.yul\":15799:15916   */\n      swap3\n      swap2\n      pop\n      pop\n      jump\t// out\n        /* \"#utility.yul\":15922:16091   */\n    tag_133:\n        /* \"#utility.yul\":15966:15972   */\n      0x00\n        /* \"#utility.yul\":15999:16050   */\n      tag_315\n        /* \"#utility.yul\":16047:16048   */\n      0x00\n        /* \"#utility.yul\":16043:16049   */\n      not\n        /* \"#utility.yul\":16035:16040   */\n      dup5\n        /* \"#utility.yul\":16032:16033   */\n      0x08\n        /* \"#utility.yul\":16028:16041   */\n      mul\n        /* \"#utility.yul\":15999:16050   */\n      tag_132\n      jump\t// in\n    tag_315:\n        /* \"#utility.yul\":15995:16051   */\n      not\n        /* \"#utility.yul\":16080:16084   */\n      dup1\n        /* \"#utility.yul\":16074:16078   */\n      dup4\n        /* \"#utility.yul\":16070:16085   */\n      and\n        /* \"#utility.yul\":16060:16085   */\n      swap2\n      pop\n        /* \"#utility.yul\":15973:16091   */\n      pop\n        /* \"#utility.yul\":15922:16091   */\n      swap3\n      swap2\n      pop\n      pop\n      jump\t// out\n        /* \"#utility.yul\":16096:16391   */\n    tag_134:\n        /* \"#utility.yul\":16172:16176   */\n      0x00\n        /* \"#utility.yul\":16318:16347   */\n      tag_317\n        /* \"#utility.yul\":16343:16346   */\n      dup4\n        /* \"#utility.yul\":16337:16341   */\n      dup4\n        /* \"#utility.yul\":16318:16347   */\n      tag_133\n      jump\t// in\n    tag_317:\n        /* \"#utility.yul\":16310:16347   */\n      swap2\n      pop\n        /* \"#utility.yul\":16380:16383   */\n      dup3\n        /* \"#utility.yul\":16377:16378   */\n      0x02\n        /* \"#utility.yul\":16373:16384   */\n      mul\n        /* \"#utility.yul\":16367:16371   */\n      dup3\n        /* \"#utility.yul\":16364:16385   */\n      or\n        /* \"#utility.yul\":16356:16385   */\n      swap1\n      pop\n        /* \"#utility.yul\":16096:16391   */\n      swap3\n      swap2\n      pop\n      pop\n      jump\t// out\n        /* \"#utility.yul\":16396:17791   */\n    tag_45:\n        /* \"#utility.yul\":16513:16550   */\n      tag_319\n        /* \"#utility.yul\":16546:16549   */\n      dup3\n        /* \"#utility.yul\":16513:16550   */\n      tag_96\n      jump\t// in\n    tag_319:\n        /* \"#utility.yul\":16615:16633   */\n      0xffffffffffffffff\n        /* \"#utility.yul\":16607:16613   */\n      dup2\n        /* \"#utility.yul\":16604:16634   */\n      gt\n        /* \"#utility.yul\":16601:16657   */\n      iszero\n      tag_320\n      jumpi\n        /* \"#utility.yul\":16637:16655   */\n      tag_321\n      tag_107\n      jump\t// in\n    tag_321:\n        /* \"#utility.yul\":16601:16657   */\n    tag_320:\n        /* \"#utility.yul\":16681:16719   */\n      tag_322\n        /* \"#utility.yul\":16713:16717   */\n      dup3\n        /* \"#utility.yul\":16707:16718   */\n      sload\n        /* \"#utility.yul\":16681:16719   */\n      tag_62\n      jump\t// in\n    tag_322:\n        /* \"#utility.yul\":16766:16833   */\n      tag_323\n        /* \"#utility.yul\":16826:16832   */\n      dup3\n        /* \"#utility.yul\":16818:16824   */\n      dup3\n        /* \"#utility.yul\":16812:16816   */\n      dup6\n        /* \"#utility.yul\":16766:16833   */\n      tag_131\n      jump\t// in\n    tag_323:\n        /* \"#utility.yul\":16860:16861   */\n      0x00\n        /* \"#utility.yul\":16884:16888   */\n      0x20\n        /* \"#utility.yul\":16871:16888   */\n      swap1\n      pop\n        /* \"#utility.yul\":16916:16918   */\n      0x1f\n        /* \"#utility.yul\":16908:16914   */\n      dup4\n        /* \"#utility.yul\":16905:16919   */\n      gt\n        /* \"#utility.yul\":16933:16934   */\n      0x01\n        /* \"#utility.yul\":16928:17546   */\n      dup2\n      eq\n      tag_325\n      jumpi\n        /* \"#utility.yul\":17590:17591   */\n      0x00\n        /* \"#utility.yul\":17607:17613   */\n      dup5\n        /* \"#utility.yul\":17604:17681   */\n      iszero\n      tag_326\n      jumpi\n        /* \"#utility.yul\":17656:17665   */\n      dup3\n        /* \"#utility.yul\":17651:17654   */\n      dup8\n        /* \"#utility.yul\":17647:17666   */\n      add\n        /* \"#utility.yul\":17641:17667   */\n      mload\n        /* \"#utility.yul\":17632:17667   */\n      swap1\n      pop\n        /* \"#utility.yul\":17604:17681   */\n    tag_326:\n        /* \"#utility.yul\":17707:17774   */\n      tag_327\n        /* \"#utility.yul\":17767:17773   */\n      dup6\n        /* \"#utility.yul\":17760:17765   */\n      dup3\n        /* \"#utility.yul\":17707:17774   */\n      tag_134\n      jump\t// in\n    tag_327:\n        /* \"#utility.yul\":17701:17705   */\n      dup7\n        /* \"#utility.yul\":17694:17775   */\n      sstore\n        /* \"#utility.yul\":17563:17785   */\n      pop\n        /* \"#utility.yul\":16898:17785   */\n      jump(tag_324)\n        /* \"#utility.yul\":16928:17546   */\n    tag_325:\n        /* \"#utility.yul\":16980:16984   */\n      0x1f\n        /* \"#utility.yul\":16976:16985   */\n      not\n        /* \"#utility.yul\":16968:16974   */\n      dup5\n        /* \"#utility.yul\":16964:16986   */\n      and\n        /* \"#utility.yul\":17014:17051   */\n      tag_328\n        /* \"#utility.yul\":17046:17050   */\n      dup7\n        /* \"#utility.yul\":17014:17051   */\n      tag_120\n      jump\t// in\n    tag_328:\n        /* \"#utility.yul\":17073:17074   */\n      0x00\n        /* \"#utility.yul\":17087:17295   */\n    tag_329:\n        /* \"#utility.yul\":17101:17108   */\n      dup3\n        /* \"#utility.yul\":17098:17099   */\n      dup2\n        /* \"#utility.yul\":17095:17109   */\n      lt\n        /* \"#utility.yul\":17087:17295   */\n      iszero\n      tag_331\n      jumpi\n        /* \"#utility.yul\":17180:17189   */\n      dup5\n        /* \"#utility.yul\":17175:17178   */\n      dup10\n        /* \"#utility.yul\":17171:17190   */\n      add\n        /* \"#utility.yul\":17165:17191   */\n      mload\n        /* \"#utility.yul\":17157:17163   */\n      dup3\n        /* \"#utility.yul\":17150:17192   */\n      sstore\n        /* \"#utility.yul\":17231:17232   */\n      0x01\n        /* \"#utility.yul\":17223:17229   */\n      dup3\n        /* \"#utility.yul\":17219:17233   */\n      add\n        /* \"#utility.yul\":17209:17233   */\n      swap2\n      pop\n        /* \"#utility.yul\":17278:17280   */\n      0x20\n        /* \"#utility.yul\":17267:17276   */\n      dup6\n        /* \"#utility.yul\":17263:17281   */\n      add\n        /* \"#utility.yul\":17250:17281   */\n      swap5\n      pop\n        /* \"#utility.yul\":17124:17128   */\n      0x20\n        /* \"#utility.yul\":17121:17122   */\n      dup2\n        /* \"#utility.yul\":17117:17129   */\n      add\n        /* \"#utility.yul\":17112:17129   */\n      swap1\n      pop\n        /* \"#utility.yul\":17087:17295   */\n      jump(tag_329)\n    tag_331:\n        /* \"#utility.yul\":17323:17329   */\n      dup7\n        /* \"#utility.yul\":17314:17321   */\n      dup4\n        /* \"#utility.yul\":17311:17330   */\n      lt\n        /* \"#utility.yul\":17308:17487   */\n      iszero\n      tag_332\n      jumpi\n        /* \"#utility.yul\":17381:17390   */\n      dup5\n        /* \"#utility.yul\":17376:17379   */\n      dup10\n        /* \"#utility.yul\":17372:17391   */\n      add\n        /* \"#utility.yul\":17366:17392   */\n      mload\n        /* \"#utility.yul\":17424:17472   */\n      tag_333\n        /* \"#utility.yul\":17466:17470   */\n      0x1f\n        /* \"#utility.yul\":17458:17464   */\n      dup10\n        /* \"#utility.yul\":17454:17471   */\n      and\n        /* \"#utility.yul\":17443:17452   */\n      dup3\n        /* \"#utility.yul\":17424:17472   */\n      tag_133\n      jump\t// in\n    tag_333:\n        /* \"#utility.yul\":17416:17422   */\n      dup4\n        /* \"#utility.yul\":17409:17473   */\n      sstore\n        /* \"#utility.yul\":17331:17487   */\n      pop\n        /* \"#utility.yul\":17308:17487   */\n    tag_332:\n        /* \"#utility.yul\":17533:17534   */\n      0x01\n        /* \"#utility.yul\":17529:17530   */\n      0x02\n        /* \"#utility.yul\":17521:17527   */\n      dup9\n        /* \"#utility.yul\":17517:17531   */\n      mul\n        /* \"#utility.yul\":17513:17535   */\n      add\n        /* \"#utility.yul\":17507:17511   */\n      dup9\n        /* \"#utility.yul\":17500:17536   */\n      sstore\n        /* \"#utility.yul\":16935:17546   */\n      pop\n      pop\n      pop\n        /* \"#utility.yul\":16898:17785   */\n    tag_324:\n      pop\n        /* \"#utility.yul\":16488:17791   */\n      pop\n      pop\n      pop\n        /* \"#utility.yul\":16396:17791   */\n      pop\n      pop\n      jump\t// out\n        /* \"#utility.yul\":17821:18138   */\n    tag_135:\n        /* \"#utility.yul\":17919:17922   */\n      0x00\n        /* \"#utility.yul\":17940:18011   */\n      tag_335\n        /* \"#utility.yul\":18004:18010   */\n      dup4\n        /* \"#utility.yul\":17999:18002   */\n      dup6\n        /* \"#utility.yul\":17940:18011   */\n      tag_97\n      jump\t// in\n    tag_335:\n        /* \"#utility.yul\":17933:18011   */\n      swap4\n      pop\n        /* \"#utility.yul\":18021:18077   */\n      tag_336\n        /* \"#utility.yul\":18070:18076   */\n      dup4\n        /* \"#utility.yul\":18065:18068   */\n      dup6\n        /* \"#utility.yul\":18058:18063   */\n      dup5\n        /* \"#utility.yul\":18021:18077   */\n      tag_111\n      jump\t// in\n    tag_336:\n        /* \"#utility.yul\":18102:18131   */\n      tag_337\n        /* \"#utility.yul\":18124:18130   */\n      dup4\n        /* \"#utility.yul\":18102:18131   */\n      tag_99\n      jump\t// in\n    tag_337:\n        /* \"#utility.yul\":18097:18100   */\n      dup5\n        /* \"#utility.yul\":18093:18132   */\n      add\n        /* \"#utility.yul\":18086:18132   */\n      swap1\n      pop\n        /* \"#utility.yul\":17821:18138   */\n      swap4\n      swap3\n      pop\n      pop\n      pop\n      jump\t// out\n        /* \"#utility.yul\":18144:18698   */\n    tag_49:\n        /* \"#utility.yul\":18325:18329   */\n      0x00\n        /* \"#utility.yul\":18363:18365   */\n      0x40\n        /* \"#utility.yul\":18352:18361   */\n      dup3\n        /* \"#utility.yul\":18348:18366   */\n      add\n        /* \"#utility.yul\":18340:18366   */\n      swap1\n      pop\n        /* \"#utility.yul\":18412:18421   */\n      dup2\n        /* \"#utility.yul\":18406:18410   */\n      dup2\n        /* \"#utility.yul\":18402:18422   */\n      sub\n        /* \"#utility.yul\":18398:18399   */\n      0x00\n        /* \"#utility.yul\":18387:18396   */\n      dup4\n        /* \"#utility.yul\":18383:18400   */\n      add\n        /* \"#utility.yul\":18376:18423   */\n      mstore\n        /* \"#utility.yul\":18440:18528   */\n      tag_339\n        /* \"#utility.yul\":18523:18527   */\n      dup2\n        /* \"#utility.yul\":18514:18520   */\n      dup7\n        /* \"#utility.yul\":18506:18512   */\n      dup9\n        /* \"#utility.yul\":18440:18528   */\n      tag_135\n      jump\t// in\n    tag_339:\n        /* \"#utility.yul\":18432:18528   */\n      swap1\n      pop\n        /* \"#utility.yul\":18575:18584   */\n      dup2\n        /* \"#utility.yul\":18569:18573   */\n      dup2\n        /* \"#utility.yul\":18565:18585   */\n      sub\n        /* \"#utility.yul\":18560:18562   */\n      0x20\n        /* \"#utility.yul\":18549:18558   */\n      dup4\n        /* \"#utility.yul\":18545:18563   */\n      add\n        /* \"#utility.yul\":18538:18586   */\n      mstore\n        /* \"#utility.yul\":18603:18691   */\n      tag_340\n        /* \"#utility.yul\":18686:18690   */\n      dup2\n        /* \"#utility.yul\":18677:18683   */\n      dup5\n        /* \"#utility.yul\":18669:18675   */\n      dup7\n        /* \"#utility.yul\":18603:18691   */\n      tag_135\n      jump\t// in\n    tag_340:\n        /* \"#utility.yul\":18595:18691   */\n      swap1\n      pop\n        /* \"#utility.yul\":18144:18698   */\n      swap6\n      swap5\n      pop\n      pop\n      pop\n      pop\n      pop\n      jump\t// out\n        /* \"#utility.yul\":18704:18863   */\n    tag_136:\n        /* \"#utility.yul\":18844:18855   */\n      0x4e6f74206f776e65720000000000000000000000000000000000000000000000\n        /* \"#utility.yul\":18840:18841   */\n      0x00\n        /* \"#utility.yul\":18832:18838   */\n      dup3\n        /* \"#utility.yul\":18828:18842   */\n      add\n        /* \"#utility.yul\":18821:18856   */\n      mstore\n        /* \"#utility.yul\":18704:18863   */\n      pop\n      jump\t// out\n        /* \"#utility.yul\":18869:19234   */\n    tag_137:\n        /* \"#utility.yul\":19011:19014   */\n      0x00\n        /* \"#utility.yul\":19032:19098   */\n      tag_343\n        /* \"#utility.yul\":19096:19097   */\n      0x09\n        /* \"#utility.yul\":19091:19094   */\n      dup4\n        /* \"#utility.yul\":19032:19098   */\n      tag_97\n      jump\t// in\n    tag_343:\n        /* \"#utility.yul\":19025:19098   */\n      swap2\n      pop\n        /* \"#utility.yul\":19107:19200   */\n      tag_344\n        /* \"#utility.yul\":19196:19199   */\n      dup3\n        /* \"#utility.yul\":19107:19200   */\n      tag_136\n      jump\t// in\n    tag_344:\n        /* \"#utility.yul\":19225:19227   */\n      0x20\n        /* \"#utility.yul\":19220:19223   */\n      dup3\n        /* \"#utility.yul\":19216:19228   */\n      add\n        /* \"#utility.yul\":19209:19228   */\n      swap1\n      pop\n        /* \"#utility.yul\":18869:19234   */\n      swap2\n      swap1\n      pop\n      jump\t// out\n        /* \"#utility.yul\":19240:19659   */\n    tag_53:\n        /* \"#utility.yul\":19406:19410   */\n      0x00\n        /* \"#utility.yul\":19444:19446   */\n      0x20\n        /* \"#utility.yul\":19433:19442   */\n      dup3\n        /* \"#utility.yul\":19429:19447   */\n      add\n        /* \"#utility.yul\":19421:19447   */\n      swap1\n      pop\n        /* \"#utility.yul\":19493:19502   */\n      dup2\n        /* \"#utility.yul\":19487:19491   */\n      dup2\n        /* \"#utility.yul\":19483:19503   */\n      sub\n        /* \"#utility.yul\":19479:19480   */\n      0x00\n        /* \"#utility.yul\":19468:19477   */\n      dup4\n        /* \"#utility.yul\":19464:19481   */\n      add\n        /* \"#utility.yul\":19457:19504   */\n      mstore\n        /* \"#utility.yul\":19521:19652   */\n      tag_346\n        /* \"#utility.yul\":19647:19651   */\n      dup2\n        /* \"#utility.yul\":19521:19652   */\n      tag_137\n      jump\t// in\n    tag_346:\n        /* \"#utility.yul\":19513:19652   */\n      swap1\n      pop\n        /* \"#utility.yul\":19240:19659   */\n      swap2\n      swap1\n      pop\n      jump\t// out\n        /* \"#utility.yul\":19665:19830   */\n    tag_138:\n        /* \"#utility.yul\":19805:19822   */\n      0x416c7265616479207265766f6b65640000000000000000000000000000000000\n        /* \"#utility.yul\":19801:19802   */\n      0x00\n        /* \"#utility.yul\":19793:19799   */\n      dup3\n        /* \"#utility.yul\":19789:19803   */\n      add\n        /* \"#utility.yul\":19782:19823   */\n      mstore\n        /* \"#utility.yul\":19665:19830   */\n      pop\n      jump\t// out\n        /* \"#utility.yul\":19836:20202   */\n    tag_139:\n        /* \"#utility.yul\":19978:19981   */\n      0x00\n        /* \"#utility.yul\":19999:20066   */\n      tag_349\n        /* \"#utility.yul\":20063:20065   */\n      0x0f\n        /* \"#utility.yul\":20058:20061   */\n      dup4\n        /* \"#utility.yul\":19999:20066   */\n      tag_97\n      jump\t// in\n    tag_349:\n        /* \"#utility.yul\":19992:20066   */\n      swap2\n      pop\n        /* \"#utility.yul\":20075:20168   */\n      tag_350\n        /* \"#utility.yul\":20164:20167   */\n      dup3\n        /* \"#utility.yul\":20075:20168   */\n      tag_138\n      jump\t// in\n    tag_350:\n        /* \"#utility.yul\":20193:20195   */\n      0x20\n        /* \"#utility.yul\":20188:20191   */\n      dup3\n        /* \"#utility.yul\":20184:20196   */\n      add\n        /* \"#utility.yul\":20177:20196   */\n      swap1\n      pop\n        /* \"#utility.yul\":19836:20202   */\n      swap2\n      swap1\n      pop\n      jump\t// out\n        /* \"#utility.yul\":20208:20627   */\n    tag_56:\n        /* \"#utility.yul\":20374:20378   */\n      0x00\n        /* \"#utility.yul\":20412:20414   */\n      0x20\n        /* \"#utility.yul\":20401:20410   */\n      dup3\n        /* \"#utility.yul\":20397:20415   */\n      add\n        /* \"#utility.yul\":20389:20415   */\n      swap1\n      pop\n        /* \"#utility.yul\":20461:20470   */\n      dup2\n        /* \"#utility.yul\":20455:20459   */\n      dup2\n        /* \"#utility.yul\":20451:20471   */\n      sub\n        /* \"#utility.yul\":20447:20448   */\n      0x00\n        /* \"#utility.yul\":20436:20445   */\n      dup4\n        /* \"#utility.yul\":20432:20449   */\n      add\n        /* \"#utility.yul\":20425:20472   */\n      mstore\n        /* \"#utility.yul\":20489:20620   */\n      tag_352\n        /* \"#utility.yul\":20615:20619   */\n      dup2\n        /* \"#utility.yul\":20489:20620   */\n      tag_139\n      jump\t// in\n    tag_352:\n        /* \"#utility.yul\":20481:20620   */\n      swap1\n      pop\n        /* \"#utility.yul\":20208:20627   */\n      swap2\n      swap1\n      pop\n      jump\t// out\n        /* \"#utility.yul\":20633:20792   */\n    tag_140:\n        /* \"#utility.yul\":20773:20784   */\n      0x4e6f7420666f756e640000000000000000000000000000000000000000000000\n        /* \"#utility.yul\":20769:20770   */\n      0x00\n        /* \"#utility.yul\":20761:20767   */\n      dup3\n        /* \"#utility.yul\":20757:20771   */\n      add\n        /* \"#utility.yul\":20750:20785   */\n      mstore\n        /* \"#utility.yul\":20633:20792   */\n      pop\n      jump\t// out\n        /* \"#utility.yul\":20798:21163   */\n    tag_141:\n        /* \"#utility.yul\":20940:20943   */\n      0x00\n        /* \"#utility.yul\":20961:21027   */\n      tag_355\n        /* \"#utility.yul\":21025:21026   */\n      0x09\n        /* \"#utility.yul\":21020:21023   */\n      dup4\n        /* \"#utility.yul\":20961:21027   */\n      tag_97\n      jump\t// in\n    tag_355:\n        /* \"#utility.yul\":20954:21027   */\n      swap2\n      pop\n        /* \"#utility.yul\":21036:21129   */\n      tag_356\n        /* \"#utility.yul\":21125:21128   */\n      dup3\n        /* \"#utility.yul\":21036:21129   */\n      tag_140\n      jump\t// in\n    tag_356:\n        /* \"#utility.yul\":21154:21156   */\n      0x20\n        /* \"#utility.yul\":21149:21152   */\n      dup3\n        /* \"#utility.yul\":21145:21157   */\n      add\n        /* \"#utility.yul\":21138:21157   */\n      swap1\n      pop\n        /* \"#utility.yul\":20798:21163   */\n      swap2\n      swap1\n      pop\n      jump\t// out\n        /* \"#utility.yul\":21169:21588   */\n    tag_60:\n        /* \"#utility.yul\":21335:21339   */\n      0x00\n        /* \"#utility.yul\":21373:21375   */\n      0x20\n        /* \"#utility.yul\":21362:21371   */\n      dup3\n        /* \"#utility.yul\":21358:21376   */\n      add\n        /* \"#utility.yul\":21350:21376   */\n      swap1\n      pop\n        /* \"#utility.yul\":21422:21431   */\n      dup2\n        /* \"#utility.yul\":21416:21420   */\n      dup2\n        /* \"#utility.yul\":21412:21432   */\n      sub\n        /* \"#utility.yul\":21408:21409   */\n      0x00\n        /* \"#utility.yul\":21397:21406   */\n      dup4\n        /* \"#utility.yul\":21393:21410   */\n      add\n        /* \"#utility.yul\":21386:21433   */\n      mstore\n        /* \"#utility.yul\":21450:21581   */\n      tag_358\n        /* \"#utility.yul\":21576:21580   */\n      dup2\n        /* \"#utility.yul\":21450:21581   */\n      tag_141\n      jump\t// in\n    tag_358:\n        /* \"#utility.yul\":21442:21581   */\n      swap1\n      pop\n        /* \"#utility.yul\":21169:21588   */\n      swap2\n      swap1\n      pop\n      jump\t// out\n        /* \"#utility.yul\":21594:22017   */\n    tag_74:\n        /* \"#utility.yul\":21735:21739   */\n      0x00\n        /* \"#utility.yul\":21773:21775   */\n      0x40\n        /* \"#utility.yul\":21762:21771   */\n      dup3\n        /* \"#utility.yul\":21758:21776   */\n      add\n        /* \"#utility.yul\":21750:21776   */\n      swap1\n      pop\n        /* \"#utility.yul\":21786:21857   */\n      tag_360\n        /* \"#utility.yul\":21854:21855   */\n      0x00\n        /* \"#utility.yul\":21843:21852   */\n      dup4\n        /* \"#utility.yul\":21839:21856   */\n      add\n        /* \"#utility.yul\":21830:21836   */\n      dup6\n        /* \"#utility.yul\":21786:21857   */\n      tag_105\n      jump\t// in\n    tag_360:\n        /* \"#utility.yul\":21904:21913   */\n      dup2\n        /* \"#utility.yul\":21898:21902   */\n      dup2\n        /* \"#utility.yul\":21894:21914   */\n      sub\n        /* \"#utility.yul\":21889:21891   */\n      0x20\n        /* \"#utility.yul\":21878:21887   */\n      dup4\n        /* \"#utility.yul\":21874:21892   */\n      add\n        /* \"#utility.yul\":21867:21915   */\n      mstore\n        /* \"#utility.yul\":21932:22010   */\n      tag_361\n        /* \"#utility.yul\":22005:22009   */\n      dup2\n        /* \"#utility.yul\":21996:22002   */\n      dup5\n        /* \"#utility.yul\":21932:22010   */\n      tag_100\n      jump\t// in\n    tag_361:\n        /* \"#utility.yul\":21924:22010   */\n      swap1\n      pop\n        /* \"#utility.yul\":21594:22017   */\n      swap4\n      swap3\n      pop\n      pop\n      pop\n      jump\t// out\n\n    auxdata: 0xa264697066735822122018d314ccfeee991d22a1bcaefcb4d45c010ee5ddd0857fa012d747d75444de9d64736f6c634300081e0033\n}\n",
				"bytecode": {
					"linkReferences": {},
					"object": "6080604052348015600e575f5ffd5b506113828061001c5f395ff3fe608060405234801561000f575f5ffd5b5060043610610055575f3560e01c80633301292b146100595780634d2b197814610089578063952be80d146100a5578063b10d6b41146100c1578063c463b718146100f5575b5f5ffd5b610073600480360381019061006e91906108ec565b610125565b60405161008091906109d7565b60405180910390f35b6100a3600480360381019061009e9190610a58565b6101b8565b005b6100bf60048036038101906100ba9190610b00565b6104e2565b005b6100db60048036038101906100d69190610b00565b61063a565b6040516100ec959493929190610bdc565b60405180910390f35b61010f600480360381019061010a9190610d63565b61084f565b60405161011c9190610dcc565b60405180910390f35b606060015f8373ffffffffffffffffffffffffffffffffffffffff1673ffffffffffffffffffffffffffffffffffffffff1681526020019081526020015f208054806020026020016040519081016040528092919081815260200182805480156101ac57602002820191905f5260205f20905b815481526020019060010190808311610198575b50505050509050919050565b5f84849050116101fd576040517f08c379a00000000000000000000000000000000000000000000000000000000081526004016101f490610e2f565b60405180910390fd5b5f61024b3386868080601f0160208091040260200160405190810160405280939291908181526020018383808284375f81840152601f19601f8201169050808301925050505050505061084f565b90505f5f5f8381526020019081526020015f209050806003015f9054906101000a900460ff16156102b1576040517f08c379a00000000000000000000000000000000000000000000000000000000081526004016102a890610e97565b60405180910390fd5b6040518060a0016040528087878080601f0160208091040260200160405190810160405280939291908181526020018383808284375f81840152601f19601f82011690508083019250505050505050815260200185858080601f0160208091040260200160405190810160405280939291908181526020018383808284375f81840152601f19601f8201169050808301925050505050505081526020014281526020016001151581526020013373ffffffffffffffffffffffffffffffffffffffff168152505f5f8481526020019081526020015f205f820151815f01908161039a91906110b2565b5060208201518160010190816103b091906110b2565b50604082015181600201556060820151816003015f6101000a81548160ff02191690831515021790555060808201518160030160016101000a81548173ffffffffffffffffffffffffffffffffffffffff021916908373ffffffffffffffffffffffffffffffffffffffff16021790555090505060015f3373ffffffffffffffffffffffffffffffffffffffff1673ffffffffffffffffffffffffffffffffffffffff1681526020019081526020015f2082908060018154018082558091505060019003905f5260205f20015f90919091909150553373ffffffffffffffffffffffffffffffffffffffff16827f49876385ba0704e774b447f377bc9bbec7f83ad4e3b4f83ff78320341e597935888888886040516104d294939291906111ad565b60405180910390a3505050505050565b5f5f5f8381526020019081526020015f2090503373ffffffffffffffffffffffffffffffffffffffff168160030160019054906101000a900473ffffffffffffffffffffffffffffffffffffffff1673ffffffffffffffffffffffffffffffffffffffff1614610587576040517f08c379a000000000000000000000000000000000000000000000000000000000815260040161057e90611230565b60405180910390fd5b806003015f9054906101000a900460ff166105d7576040517f08c379a00000000000000000000000000000000000000000000000000000000081526004016105ce90611298565b60405180910390fd5b5f816003015f6101000a81548160ff0219169083151502179055503373ffffffffffffffffffffffffffffffffffffffff16827f0a7643bfbd115d98595cc7bd15944172c7ef0e4a7f48dcaf676dec4b74be936760405160405180910390a35050565b6060805f5f5f5f5f5f8881526020019081526020015f2090505f73ffffffffffffffffffffffffffffffffffffffff168160030160019054906101000a900473ffffffffffffffffffffffffffffffffffffffff1673ffffffffffffffffffffffffffffffffffffffff16036106e5576040517f08c379a00000000000000000000000000000000000000000000000000000000081526004016106dc90611300565b60405180910390fd5b805f01816001018260020154836003015f9054906101000a900460ff168460030160019054906101000a900473ffffffffffffffffffffffffffffffffffffffff1684805461073390610ee2565b80601f016020809104026020016040519081016040528092919081815260200182805461075f90610ee2565b80156107aa5780601f10610781576101008083540402835291602001916107aa565b820191905f5260205f20905b81548152906001019060200180831161078d57829003601f168201915b505050505094508380546107bd90610ee2565b80601f01602080910402602001604051908101604052809291908181526020018280546107e990610ee2565b80156108345780601f1061080b57610100808354040283529160200191610834565b820191905f5260205f20905b81548152906001019060200180831161081757829003601f168201915b50505050509350955095509550955095505091939590929450565b5f828260405160200161086392919061131e565b60405160208183030381529060405280519060200120905092915050565b5f604051905090565b5f5ffd5b5f5ffd5b5f73ffffffffffffffffffffffffffffffffffffffff82169050919050565b5f6108bb82610892565b9050919050565b6108cb816108b1565b81146108d5575f5ffd5b50565b5f813590506108e6816108c2565b92915050565b5f602082840312156109015761090061088a565b5b5f61090e848285016108d8565b91505092915050565b5f81519050919050565b5f82825260208201905092915050565b5f819050602082019050919050565b5f819050919050565b61095281610940565b82525050565b5f6109638383610949565b60208301905092915050565b5f602082019050919050565b5f61098582610917565b61098f8185610921565b935061099a83610931565b805f5b838110156109ca5781516109b18882610958565b97506109bc8361096f565b92505060018101905061099d565b5085935050505092915050565b5f6020820190508181035f8301526109ef818461097b565b905092915050565b5f5ffd5b5f5ffd5b5f5ffd5b5f5f83601f840112610a1857610a176109f7565b5b8235905067ffffffffffffffff811115610a3557610a346109fb565b5b602083019150836001820283011115610a5157610a506109ff565b5b9250929050565b5f5f5f5f60408587031215610a7057610a6f61088a565b5b5f85013567ffffffffffffffff811115610a8d57610a8c61088e565b5b610a9987828801610a03565b9450945050602085013567ffffffffffffffff811115610abc57610abb61088e565b5b610ac887828801610a03565b925092505092959194509250565b610adf81610940565b8114610ae9575f5ffd5b50565b5f81359050610afa81610ad6565b92915050565b5f60208284031215610b1557610b1461088a565b5b5f610b2284828501610aec565b91505092915050565b5f81519050919050565b5f82825260208201905092915050565b8281835e5f83830152505050565b5f601f19601f8301169050919050565b5f610b6d82610b2b565b610b778185610b35565b9350610b87818560208601610b45565b610b9081610b53565b840191505092915050565b5f819050919050565b610bad81610b9b565b82525050565b5f8115159050919050565b610bc781610bb3565b82525050565b610bd6816108b1565b82525050565b5f60a0820190508181035f830152610bf48188610b63565b90508181036020830152610c088187610b63565b9050610c176040830186610ba4565b610c246060830185610bbe565b610c316080830184610bcd565b9695505050505050565b5f5ffd5b7f4e487b71000000000000000000000000000000000000000000000000000000005f52604160045260245ffd5b610c7582610b53565b810181811067ffffffffffffffff82111715610c9457610c93610c3f565b5b80604052505050565b5f610ca6610881565b9050610cb28282610c6c565b919050565b5f67ffffffffffffffff821115610cd157610cd0610c3f565b5b610cda82610b53565b9050602081019050919050565b828183375f83830152505050565b5f610d07610d0284610cb7565b610c9d565b905082815260208101848484011115610d2357610d22610c3b565b5b610d2e848285610ce7565b509392505050565b5f82601f830112610d4a57610d496109f7565b5b8135610d5a848260208601610cf5565b91505092915050565b5f5f60408385031215610d7957610d7861088a565b5b5f610d86858286016108d8565b925050602083013567ffffffffffffffff811115610da757610da661088e565b5b610db385828601610d36565b9150509250929050565b610dc681610940565b82525050565b5f602082019050610ddf5f830184610dbd565b92915050565b7f48617368207265717569726564000000000000000000000000000000000000005f82015250565b5f610e19600d83610b35565b9150610e2482610de5565b602082019050919050565b5f6020820190508181035f830152610e4681610e0d565b9050919050565b7f446f63756d656e7420616c7265616479206578697374730000000000000000005f82015250565b5f610e81601783610b35565b9150610e8c82610e4d565b602082019050919050565b5f6020820190508181035f830152610eae81610e75565b9050919050565b7f4e487b71000000000000000000000000000000000000000000000000000000005f52602260045260245ffd5b5f6002820490506001821680610ef957607f821691505b602082108103610f0c57610f0b610eb5565b5b50919050565b5f819050815f5260205f209050919050565b5f6020601f8301049050919050565b5f82821b905092915050565b5f60088302610f6e7fffffffffffffffffffffffffffffffffffffffffffffffffffffffffffffffff82610f33565b610f788683610f33565b95508019841693508086168417925050509392505050565b5f819050919050565b5f610fb3610fae610fa984610b9b565b610f90565b610b9b565b9050919050565b5f819050919050565b610fcc83610f99565b610fe0610fd882610fba565b848454610f3f565b825550505050565b5f5f905090565b610ff7610fe8565b611002818484610fc3565b505050565b5b818110156110255761101a5f82610fef565b600181019050611008565b5050565b601f82111561106a5761103b81610f12565b61104484610f24565b81016020851015611053578190505b61106761105f85610f24565b830182611007565b50505b505050565b5f82821c905092915050565b5f61108a5f198460080261106f565b1980831691505092915050565b5f6110a2838361107b565b9150826002028217905092915050565b6110bb82610b2b565b67ffffffffffffffff8111156110d4576110d3610c3f565b5b6110de8254610ee2565b6110e9828285611029565b5f60209050601f83116001811461111a575f8415611108578287015190505b6111128582611097565b865550611179565b601f19841661112886610f12565b5f5b8281101561114f5784890151825560018201915060208501945060208101905061112a565b8683101561116c5784890151611168601f89168261107b565b8355505b6001600288020188555050505b505050505050565b5f61118c8385610b35565b9350611199838584610ce7565b6111a283610b53565b840190509392505050565b5f6040820190508181035f8301526111c6818688611181565b905081810360208301526111db818486611181565b905095945050505050565b7f4e6f74206f776e657200000000000000000000000000000000000000000000005f82015250565b5f61121a600983610b35565b9150611225826111e6565b602082019050919050565b5f6020820190508181035f8301526112478161120e565b9050919050565b7f416c7265616479207265766f6b656400000000000000000000000000000000005f82015250565b5f611282600f83610b35565b915061128d8261124e565b602082019050919050565b5f6020820190508181035f8301526112af81611276565b9050919050565b7f4e6f7420666f756e6400000000000000000000000000000000000000000000005f82015250565b5f6112ea600983610b35565b91506112f5826112b6565b602082019050919050565b5f6020820190508181035f830152611317816112de565b9050919050565b5f6040820190506113315f830185610bcd565b81810360208301526113438184610b63565b9050939250505056fea264697066735822122018d314ccfeee991d22a1bcaefcb4d45c010ee5ddd0857fa012d747d75444de9d64736f6c634300081e0033",
					"opcodes": "PUSH1 0x80 PUSH1 0x40 MSTORE CALLVALUE DUP1 ISZERO PUSH1 0xE JUMPI PUSH0 PUSH0 REVERT JUMPDEST POP PUSH2 0x1382 DUP1 PUSH2 0x1C PUSH0 CODECOPY PUSH0 RETURN INVALID PUSH1 0x80 PUSH1 0x40 MSTORE CALLVALUE DUP1 ISZERO PUSH2 0xF JUMPI PUSH0 PUSH0 REVERT JUMPDEST POP PUSH1 0x4 CALLDATASIZE LT PUSH2 0x55 JUMPI PUSH0 CALLDATALOAD PUSH1 0xE0 SHR DUP1 PUSH4 0x3301292B EQ PUSH2 0x59 JUMPI DUP1 PUSH4 0x4D2B1978 EQ PUSH2 0x89 JUMPI DUP1 PUSH4 0x952BE80D EQ PUSH2 0xA5 JUMPI DUP1 PUSH4 0xB10D6B41 EQ PUSH2 0xC1 JUMPI DUP1 PUSH4 0xC463B718 EQ PUSH2 0xF5 JUMPI JUMPDEST PUSH0 PUSH0 REVERT JUMPDEST PUSH2 0x73 PUSH1 0x4 DUP1 CALLDATASIZE SUB DUP2 ADD SWAP1 PUSH2 0x6E SWAP2 SWAP1 PUSH2 0x8EC JUMP JUMPDEST PUSH2 0x125 JUMP JUMPDEST PUSH1 0x40 MLOAD PUSH2 0x80 SWAP2 SWAP1 PUSH2 0x9D7 JUMP JUMPDEST PUSH1 0x40 MLOAD DUP1 SWAP2 SUB SWAP1 RETURN JUMPDEST PUSH2 0xA3 PUSH1 0x4 DUP1 CALLDATASIZE SUB DUP2 ADD SWAP1 PUSH2 0x9E SWAP2 SWAP1 PUSH2 0xA58 JUMP JUMPDEST PUSH2 0x1B8 JUMP JUMPDEST STOP JUMPDEST PUSH2 0xBF PUSH1 0x4 DUP1 CALLDATASIZE SUB DUP2 ADD SWAP1 PUSH2 0xBA SWAP2 SWAP1 PUSH2 0xB00 JUMP JUMPDEST PUSH2 0x4E2 JUMP JUMPDEST STOP JUMPDEST PUSH2 0xDB PUSH1 0x4 DUP1 CALLDATASIZE SUB DUP2 ADD SWAP1 PUSH2 0xD6 SWAP2 SWAP1 PUSH2 0xB00 JUMP JUMPDEST PUSH2 0x63A JUMP JUMPDEST PUSH1 0x40 MLOAD PUSH2 0xEC SWAP6 SWAP5 SWAP4 SWAP3 SWAP2 SWAP1 PUSH2 0xBDC JUMP JUMPDEST PUSH1 0x40 MLOAD DUP1 SWAP2 SUB SWAP1 RETURN JUMPDEST PUSH2 0x10F PUSH1 0x4 DUP1 CALLDATASIZE SUB DUP2 ADD SWAP1 PUSH2 0x10A SWAP2 SWAP1 PUSH2 0xD63 JUMP JUMPDEST PUSH2 0x84F JUMP JUMPDEST PUSH1 0x40 MLOAD PUSH2 0x11C SWAP2 SWAP1 PUSH2 0xDCC JUMP JUMPDEST PUSH1 0x40 MLOAD DUP1 SWAP2 SUB SWAP1 RETURN JUMPDEST PUSH1 0x60 PUSH1 0x1 PUSH0 DUP4 PUSH20 0xFFFFFFFFFFFFFFFFFFFFFFFFFFFFFFFFFFFFFFFF AND PUSH20 0xFFFFFFFFFFFFFFFFFFFFFFFFFFFFFFFFFFFFFFFF AND DUP2 MSTORE PUSH1 0x20 ADD SWAP1 DUP2 MSTORE PUSH1 0x20 ADD PUSH0 KECCAK256 DUP1 SLOAD DUP1 PUSH1 0x20 MUL PUSH1 0x20 ADD PUSH1 0x40 MLOAD SWAP1 DUP2 ADD PUSH1 0x40 MSTORE DUP1 SWAP3 SWAP2 SWAP1 DUP2 DUP2 MSTORE PUSH1 0x20 ADD DUP3 DUP1 SLOAD DUP1 ISZERO PUSH2 0x1AC JUMPI PUSH1 0x20 MUL DUP3 ADD SWAP2 SWAP1 PUSH0 MSTORE PUSH1 0x20 PUSH0 KECCAK256 SWAP1 JUMPDEST DUP2 SLOAD DUP2 MSTORE PUSH1 0x20 ADD SWAP1 PUSH1 0x1 ADD SWAP1 DUP1 DUP4 GT PUSH2 0x198 JUMPI JUMPDEST POP POP POP POP POP SWAP1 POP SWAP2 SWAP1 POP JUMP JUMPDEST PUSH0 DUP5 DUP5 SWAP1 POP GT PUSH2 0x1FD JUMPI PUSH1 0x40 MLOAD PUSH32 0x8C379A000000000000000000000000000000000000000000000000000000000 DUP2 MSTORE PUSH1 0x4 ADD PUSH2 0x1F4 SWAP1 PUSH2 0xE2F JUMP JUMPDEST PUSH1 0x40 MLOAD DUP1 SWAP2 SUB SWAP1 REVERT JUMPDEST PUSH0 PUSH2 0x24B CALLER DUP7 DUP7 DUP1 DUP1 PUSH1 0x1F ADD PUSH1 0x20 DUP1 SWAP2 DIV MUL PUSH1 0x20 ADD PUSH1 0x40 MLOAD SWAP1 DUP2 ADD PUSH1 0x40 MSTORE DUP1 SWAP4 SWAP3 SWAP2 SWAP1 DUP2 DUP2 MSTORE PUSH1 0x20 ADD DUP4 DUP4 DUP1 DUP3 DUP5 CALLDATACOPY PUSH0 DUP2 DUP5 ADD MSTORE PUSH1 0x1F NOT PUSH1 0x1F DUP3 ADD AND SWAP1 POP DUP1 DUP4 ADD SWAP3 POP POP POP POP POP POP POP PUSH2 0x84F JUMP JUMPDEST SWAP1 POP PUSH0 PUSH0 PUSH0 DUP4 DUP2 MSTORE PUSH1 0x20 ADD SWAP1 DUP2 MSTORE PUSH1 0x20 ADD PUSH0 KECCAK256 SWAP1 POP DUP1 PUSH1 0x3 ADD PUSH0 SWAP1 SLOAD SWAP1 PUSH2 0x100 EXP SWAP1 DIV PUSH1 0xFF AND ISZERO PUSH2 0x2B1 JUMPI PUSH1 0x40 MLOAD PUSH32 0x8C379A000000000000000000000000000000000000000000000000000000000 DUP2 MSTORE PUSH1 0x4 ADD PUSH2 0x2A8 SWAP1 PUSH2 0xE97 JUMP JUMPDEST PUSH1 0x40 MLOAD DUP1 SWAP2 SUB SWAP1 REVERT JUMPDEST PUSH1 0x40 MLOAD DUP1 PUSH1 0xA0 ADD PUSH1 0x40 MSTORE DUP1 DUP8 DUP8 DUP1 DUP1 PUSH1 0x1F ADD PUSH1 0x20 DUP1 SWAP2 DIV MUL PUSH1 0x20 ADD PUSH1 0x40 MLOAD SWAP1 DUP2 ADD PUSH1 0x40 MSTORE DUP1 SWAP4 SWAP3 SWAP2 SWAP1 DUP2 DUP2 MSTORE PUSH1 0x20 ADD DUP4 DUP4 DUP1 DUP3 DUP5 CALLDATACOPY PUSH0 DUP2 DUP5 ADD MSTORE PUSH1 0x1F NOT PUSH1 0x1F DUP3 ADD AND SWAP1 POP DUP1 DUP4 ADD SWAP3 POP POP POP POP POP POP POP DUP2 MSTORE PUSH1 0x20 ADD DUP6 DUP6 DUP1 DUP1 PUSH1 0x1F ADD PUSH1 0x20 DUP1 SWAP2 DIV MUL PUSH1 0x20 ADD PUSH1 0x40 MLOAD SWAP1 DUP2 ADD PUSH1 0x40 MSTORE DUP1 SWAP4 SWAP3 SWAP2 SWAP1 DUP2 DUP2 MSTORE PUSH1 0x20 ADD DUP4 DUP4 DUP1 DUP3 DUP5 CALLDATACOPY PUSH0 DUP2 DUP5 ADD MSTORE PUSH1 0x1F NOT PUSH1 0x1F DUP3 ADD AND SWAP1 POP DUP1 DUP4 ADD SWAP3 POP POP POP POP POP POP POP DUP2 MSTORE PUSH1 0x20 ADD TIMESTAMP DUP2 MSTORE PUSH1 0x20 ADD PUSH1 0x1 ISZERO ISZERO DUP2 MSTORE PUSH1 0x20 ADD CALLER PUSH20 0xFFFFFFFFFFFFFFFFFFFFFFFFFFFFFFFFFFFFFFFF AND DUP2 MSTORE POP PUSH0 PUSH0 DUP5 DUP2 MSTORE PUSH1 0x20 ADD SWAP1 DUP2 MSTORE PUSH1 0x20 ADD PUSH0 KECCAK256 PUSH0 DUP3 ADD MLOAD DUP2 PUSH0 ADD SWAP1 DUP2 PUSH2 0x39A SWAP2 SWAP1 PUSH2 0x10B2 JUMP JUMPDEST POP PUSH1 0x20 DUP3 ADD MLOAD DUP2 PUSH1 0x1 ADD SWAP1 DUP2 PUSH2 0x3B0 SWAP2 SWAP1 PUSH2 0x10B2 JUMP JUMPDEST POP PUSH1 0x40 DUP3 ADD MLOAD DUP2 PUSH1 0x2 ADD SSTORE PUSH1 0x60 DUP3 ADD MLOAD DUP2 PUSH1 0x3 ADD PUSH0 PUSH2 0x100 EXP DUP2 SLOAD DUP2 PUSH1 0xFF MUL NOT AND SWAP1 DUP4 ISZERO ISZERO MUL OR SWAP1 SSTORE POP PUSH1 0x80 DUP3 ADD MLOAD DUP2 PUSH1 0x3 ADD PUSH1 0x1 PUSH2 0x100 EXP DUP2 SLOAD DUP2 PUSH20 0xFFFFFFFFFFFFFFFFFFFFFFFFFFFFFFFFFFFFFFFF MUL NOT AND SWAP1 DUP4 PUSH20 0xFFFFFFFFFFFFFFFFFFFFFFFFFFFFFFFFFFFFFFFF AND MUL OR SWAP1 SSTORE POP SWAP1 POP POP PUSH1 0x1 PUSH0 CALLER PUSH20 0xFFFFFFFFFFFFFFFFFFFFFFFFFFFFFFFFFFFFFFFF AND PUSH20 0xFFFFFFFFFFFFFFFFFFFFFFFFFFFFFFFFFFFFFFFF AND DUP2 MSTORE PUSH1 0x20 ADD SWAP1 DUP2 MSTORE PUSH1 0x20 ADD PUSH0 KECCAK256 DUP3 SWAP1 DUP1 PUSH1 0x1 DUP2 SLOAD ADD DUP1 DUP3 SSTORE DUP1 SWAP2 POP POP PUSH1 0x1 SWAP1 SUB SWAP1 PUSH0 MSTORE PUSH1 0x20 PUSH0 KECCAK256 ADD PUSH0 SWAP1 SWAP2 SWAP1 SWAP2 SWAP1 SWAP2 POP SSTORE CALLER PUSH20 0xFFFFFFFFFFFFFFFFFFFFFFFFFFFFFFFFFFFFFFFF AND DUP3 PUSH32 0x49876385BA0704E774B447F377BC9BBEC7F83AD4E3B4F83FF78320341E597935 DUP9 DUP9 DUP9 DUP9 PUSH1 0x40 MLOAD PUSH2 0x4D2 SWAP5 SWAP4 SWAP3 SWAP2 SWAP1 PUSH2 0x11AD JUMP JUMPDEST PUSH1 0x40 MLOAD DUP1 SWAP2 SUB SWAP1 LOG3 POP POP POP POP POP POP JUMP JUMPDEST PUSH0 PUSH0 PUSH0 DUP4 DUP2 MSTORE PUSH1 0x20 ADD SWAP1 DUP2 MSTORE PUSH1 0x20 ADD PUSH0 KECCAK256 SWAP1 POP CALLER PUSH20 0xFFFFFFFFFFFFFFFFFFFFFFFFFFFFFFFFFFFFFFFF AND DUP2 PUSH1 0x3 ADD PUSH1 0x1 SWAP1 SLOAD SWAP1 PUSH2 0x100 EXP SWAP1 DIV PUSH20 0xFFFFFFFFFFFFFFFFFFFFFFFFFFFFFFFFFFFFFFFF AND PUSH20 0xFFFFFFFFFFFFFFFFFFFFFFFFFFFFFFFFFFFFFFFF AND EQ PUSH2 0x587 JUMPI PUSH1 0x40 MLOAD PUSH32 0x8C379A000000000000000000000000000000000000000000000000000000000 DUP2 MSTORE PUSH1 0x4 ADD PUSH2 0x57E SWAP1 PUSH2 0x1230 JUMP JUMPDEST PUSH1 0x40 MLOAD DUP1 SWAP2 SUB SWAP1 REVERT JUMPDEST DUP1 PUSH1 0x3 ADD PUSH0 SWAP1 SLOAD SWAP1 PUSH2 0x100 EXP SWAP1 DIV PUSH1 0xFF AND PUSH2 0x5D7 JUMPI PUSH1 0x40 MLOAD PUSH32 0x8C379A000000000000000000000000000000000000000000000000000000000 DUP2 MSTORE PUSH1 0x4 ADD PUSH2 0x5CE SWAP1 PUSH2 0x1298 JUMP JUMPDEST PUSH1 0x40 MLOAD DUP1 SWAP2 SUB SWAP1 REVERT JUMPDEST PUSH0 DUP2 PUSH1 0x3 ADD PUSH0 PUSH2 0x100 EXP DUP2 SLOAD DUP2 PUSH1 0xFF MUL NOT AND SWAP1 DUP4 ISZERO ISZERO MUL OR SWAP1 SSTORE POP CALLER PUSH20 0xFFFFFFFFFFFFFFFFFFFFFFFFFFFFFFFFFFFFFFFF AND DUP3 PUSH32 0xA7643BFBD115D98595CC7BD15944172C7EF0E4A7F48DCAF676DEC4B74BE9367 PUSH1 0x40 MLOAD PUSH1 0x40 MLOAD DUP1 SWAP2 SUB SWAP1 LOG3 POP POP JUMP JUMPDEST PUSH1 0x60 DUP1 PUSH0 PUSH0 PUSH0 PUSH0 PUSH0 PUSH0 DUP9 DUP2 MSTORE PUSH1 0x20 ADD SWAP1 DUP2 MSTORE PUSH1 0x20 ADD PUSH0 KECCAK256 SWAP1 POP PUSH0 PUSH20 0xFFFFFFFFFFFFFFFFFFFFFFFFFFFFFFFFFFFFFFFF AND DUP2 PUSH1 0x3 ADD PUSH1 0x1 SWAP1 SLOAD SWAP1 PUSH2 0x100 EXP SWAP1 DIV PUSH20 0xFFFFFFFFFFFFFFFFFFFFFFFFFFFFFFFFFFFFFFFF AND PUSH20 0xFFFFFFFFFFFFFFFFFFFFFFFFFFFFFFFFFFFFFFFF AND SUB PUSH2 0x6E5 JUMPI PUSH1 0x40 MLOAD PUSH32 0x8C379A000000000000000000000000000000000000000000000000000000000 DUP2 MSTORE PUSH1 0x4 ADD PUSH2 0x6DC SWAP1 PUSH2 0x1300 JUMP JUMPDEST PUSH1 0x40 MLOAD DUP1 SWAP2 SUB SWAP1 REVERT JUMPDEST DUP1 PUSH0 ADD DUP2 PUSH1 0x1 ADD DUP3 PUSH1 0x2 ADD SLOAD DUP4 PUSH1 0x3 ADD PUSH0 SWAP1 SLOAD SWAP1 PUSH2 0x100 EXP SWAP1 DIV PUSH1 0xFF AND DUP5 PUSH1 0x3 ADD PUSH1 0x1 SWAP1 SLOAD SWAP1 PUSH2 0x100 EXP SWAP1 DIV PUSH20 0xFFFFFFFFFFFFFFFFFFFFFFFFFFFFFFFFFFFFFFFF AND DUP5 DUP1 SLOAD PUSH2 0x733 SWAP1 PUSH2 0xEE2 JUMP JUMPDEST DUP1 PUSH1 0x1F ADD PUSH1 0x20 DUP1 SWAP2 DIV MUL PUSH1 0x20 ADD PUSH1 0x40 MLOAD SWAP1 DUP2 ADD PUSH1 0x40 MSTORE DUP1 SWAP3 SWAP2 SWAP1 DUP2 DUP2 MSTORE PUSH1 0x20 ADD DUP3 DUP1 SLOAD PUSH2 0x75F SWAP1 PUSH2 0xEE2 JUMP JUMPDEST DUP1 ISZERO PUSH2 0x7AA JUMPI DUP1 PUSH1 0x1F LT PUSH2 0x781 JUMPI PUSH2 0x100 DUP1 DUP4 SLOAD DIV MUL DUP4 MSTORE SWAP2 PUSH1 0x20 ADD SWAP2 PUSH2 0x7AA JUMP JUMPDEST DUP3 ADD SWAP2 SWAP1 PUSH0 MSTORE PUSH1 0x20 PUSH0 KECCAK256 SWAP1 JUMPDEST DUP2 SLOAD DUP2 MSTORE SWAP1 PUSH1 0x1 ADD SWAP1 PUSH1 0x20 ADD DUP1 DUP4 GT PUSH2 0x78D JUMPI DUP3 SWAP1 SUB PUSH1 0x1F AND DUP3 ADD SWAP2 JUMPDEST POP POP POP POP POP SWAP5 POP DUP4 DUP1 SLOAD PUSH2 0x7BD SWAP1 PUSH2 0xEE2 JUMP JUMPDEST DUP1 PUSH1 0x1F ADD PUSH1 0x20 DUP1 SWAP2 DIV MUL PUSH1 0x20 ADD PUSH1 0x40 MLOAD SWAP1 DUP2 ADD PUSH1 0x40 MSTORE DUP1 SWAP3 SWAP2 SWAP1 DUP2 DUP2 MSTORE PUSH1 0x20 ADD DUP3 DUP1 SLOAD PUSH2 0x7E9 SWAP1 PUSH2 0xEE2 JUMP JUMPDEST DUP1 ISZERO PUSH2 0x834 JUMPI DUP1 PUSH1 0x1F LT PUSH2 0x80B JUMPI PUSH2 0x100 DUP1 DUP4 SLOAD DIV MUL DUP4 MSTORE SWAP2 PUSH1 0x20 ADD SWAP2 PUSH2 0x834 JUMP JUMPDEST DUP3 ADD SWAP2 SWAP1 PUSH0 MSTORE PUSH1 0x20 PUSH0 KECCAK256 SWAP1 JUMPDEST DUP2 SLOAD DUP2 MSTORE SWAP1 PUSH1 0x1 ADD SWAP1 PUSH1 0x20 ADD DUP1 DUP4 GT PUSH2 0x817 JUMPI DUP3 SWAP1 SUB PUSH1 0x1F AND DUP3 ADD SWAP2 JUMPDEST POP POP POP POP POP SWAP4 POP SWAP6 POP SWAP6 POP SWAP6 POP SWAP6 POP SWAP6 POP POP SWAP2 SWAP4 SWAP6 SWAP1 SWAP3 SWAP5 POP JUMP JUMPDEST PUSH0 DUP3 DUP3 PUSH1 0x40 MLOAD PUSH1 0x20 ADD PUSH2 0x863 SWAP3 SWAP2 SWAP1 PUSH2 0x131E JUMP JUMPDEST PUSH1 0x40 MLOAD PUSH1 0x20 DUP2 DUP4 SUB SUB DUP2 MSTORE SWAP1 PUSH1 0x40 MSTORE DUP1 MLOAD SWAP1 PUSH1 0x20 ADD KECCAK256 SWAP1 POP SWAP3 SWAP2 POP POP JUMP JUMPDEST PUSH0 PUSH1 0x40 MLOAD SWAP1 POP SWAP1 JUMP JUMPDEST PUSH0 PUSH0 REVERT JUMPDEST PUSH0 PUSH0 REVERT JUMPDEST PUSH0 PUSH20 0xFFFFFFFFFFFFFFFFFFFFFFFFFFFFFFFFFFFFFFFF DUP3 AND SWAP1 POP SWAP2 SWAP1 POP JUMP JUMPDEST PUSH0 PUSH2 0x8BB DUP3 PUSH2 0x892 JUMP JUMPDEST SWAP1 POP SWAP2 SWAP1 POP JUMP JUMPDEST PUSH2 0x8CB DUP2 PUSH2 0x8B1 JUMP JUMPDEST DUP2 EQ PUSH2 0x8D5 JUMPI PUSH0 PUSH0 REVERT JUMPDEST POP JUMP JUMPDEST PUSH0 DUP2 CALLDATALOAD SWAP1 POP PUSH2 0x8E6 DUP2 PUSH2 0x8C2 JUMP JUMPDEST SWAP3 SWAP2 POP POP JUMP JUMPDEST PUSH0 PUSH1 0x20 DUP3 DUP5 SUB SLT ISZERO PUSH2 0x901 JUMPI PUSH2 0x900 PUSH2 0x88A JUMP JUMPDEST JUMPDEST PUSH0 PUSH2 0x90E DUP5 DUP3 DUP6 ADD PUSH2 0x8D8 JUMP JUMPDEST SWAP2 POP POP SWAP3 SWAP2 POP POP JUMP JUMPDEST PUSH0 DUP2 MLOAD SWAP1 POP SWAP2 SWAP1 POP JUMP JUMPDEST PUSH0 DUP3 DUP3 MSTORE PUSH1 0x20 DUP3 ADD SWAP1 POP SWAP3 SWAP2 POP POP JUMP JUMPDEST PUSH0 DUP2 SWAP1 POP PUSH1 0x20 DUP3 ADD SWAP1 POP SWAP2 SWAP1 POP JUMP JUMPDEST PUSH0 DUP2 SWAP1 POP SWAP2 SWAP1 POP JUMP JUMPDEST PUSH2 0x952 DUP2 PUSH2 0x940 JUMP JUMPDEST DUP3 MSTORE POP POP JUMP JUMPDEST PUSH0 PUSH2 0x963 DUP4 DUP4 PUSH2 0x949 JUMP JUMPDEST PUSH1 0x20 DUP4 ADD SWAP1 POP SWAP3 SWAP2 POP POP JUMP JUMPDEST PUSH0 PUSH1 0x20 DUP3 ADD SWAP1 POP SWAP2 SWAP1 POP JUMP JUMPDEST PUSH0 PUSH2 0x985 DUP3 PUSH2 0x917 JUMP JUMPDEST PUSH2 0x98F DUP2 DUP6 PUSH2 0x921 JUMP JUMPDEST SWAP4 POP PUSH2 0x99A DUP4 PUSH2 0x931 JUMP JUMPDEST DUP1 PUSH0 JUMPDEST DUP4 DUP2 LT ISZERO PUSH2 0x9CA JUMPI DUP2 MLOAD PUSH2 0x9B1 DUP9 DUP3 PUSH2 0x958 JUMP JUMPDEST SWAP8 POP PUSH2 0x9BC DUP4 PUSH2 0x96F JUMP JUMPDEST SWAP3 POP POP PUSH1 0x1 DUP2 ADD SWAP1 POP PUSH2 0x99D JUMP JUMPDEST POP DUP6 SWAP4 POP POP POP POP SWAP3 SWAP2 POP POP JUMP JUMPDEST PUSH0 PUSH1 0x20 DUP3 ADD SWAP1 POP DUP2 DUP2 SUB PUSH0 DUP4 ADD MSTORE PUSH2 0x9EF DUP2 DUP5 PUSH2 0x97B JUMP JUMPDEST SWAP1 POP SWAP3 SWAP2 POP POP JUMP JUMPDEST PUSH0 PUSH0 REVERT JUMPDEST PUSH0 PUSH0 REVERT JUMPDEST PUSH0 PUSH0 REVERT JUMPDEST PUSH0 PUSH0 DUP4 PUSH1 0x1F DUP5 ADD SLT PUSH2 0xA18 JUMPI PUSH2 0xA17 PUSH2 0x9F7 JUMP JUMPDEST JUMPDEST DUP3 CALLDATALOAD SWAP1 POP PUSH8 0xFFFFFFFFFFFFFFFF DUP2 GT ISZERO PUSH2 0xA35 JUMPI PUSH2 0xA34 PUSH2 0x9FB JUMP JUMPDEST JUMPDEST PUSH1 0x20 DUP4 ADD SWAP2 POP DUP4 PUSH1 0x1 DUP3 MUL DUP4 ADD GT ISZERO PUSH2 0xA51 JUMPI PUSH2 0xA50 PUSH2 0x9FF JUMP JUMPDEST JUMPDEST SWAP3 POP SWAP3 SWAP1 POP JUMP JUMPDEST PUSH0 PUSH0 PUSH0 PUSH0 PUSH1 0x40 DUP6 DUP8 SUB SLT ISZERO PUSH2 0xA70 JUMPI PUSH2 0xA6F PUSH2 0x88A JUMP JUMPDEST JUMPDEST PUSH0 DUP6 ADD CALLDATALOAD PUSH8 0xFFFFFFFFFFFFFFFF DUP2 GT ISZERO PUSH2 0xA8D JUMPI PUSH2 0xA8C PUSH2 0x88E JUMP JUMPDEST JUMPDEST PUSH2 0xA99 DUP8 DUP3 DUP9 ADD PUSH2 0xA03 JUMP JUMPDEST SWAP5 POP SWAP5 POP POP PUSH1 0x20 DUP6 ADD CALLDATALOAD PUSH8 0xFFFFFFFFFFFFFFFF DUP2 GT ISZERO PUSH2 0xABC JUMPI PUSH2 0xABB PUSH2 0x88E JUMP JUMPDEST JUMPDEST PUSH2 0xAC8 DUP8 DUP3 DUP9 ADD PUSH2 0xA03 JUMP JUMPDEST SWAP3 POP SWAP3 POP POP SWAP3 SWAP6 SWAP2 SWAP5 POP SWAP3 POP JUMP JUMPDEST PUSH2 0xADF DUP2 PUSH2 0x940 JUMP JUMPDEST DUP2 EQ PUSH2 0xAE9 JUMPI PUSH0 PUSH0 REVERT JUMPDEST POP JUMP JUMPDEST PUSH0 DUP2 CALLDATALOAD SWAP1 POP PUSH2 0xAFA DUP2 PUSH2 0xAD6 JUMP JUMPDEST SWAP3 SWAP2 POP POP JUMP JUMPDEST PUSH0 PUSH1 0x20 DUP3 DUP5 SUB SLT ISZERO PUSH2 0xB15 JUMPI PUSH2 0xB14 PUSH2 0x88A JUMP JUMPDEST JUMPDEST PUSH0 PUSH2 0xB22 DUP5 DUP3 DUP6 ADD PUSH2 0xAEC JUMP JUMPDEST SWAP2 POP POP SWAP3 SWAP2 POP POP JUMP JUMPDEST PUSH0 DUP2 MLOAD SWAP1 POP SWAP2 SWAP1 POP JUMP JUMPDEST PUSH0 DUP3 DUP3 MSTORE PUSH1 0x20 DUP3 ADD SWAP1 POP SWAP3 SWAP2 POP POP JUMP JUMPDEST DUP3 DUP2 DUP4 MCOPY PUSH0 DUP4 DUP4 ADD MSTORE POP POP POP JUMP JUMPDEST PUSH0 PUSH1 0x1F NOT PUSH1 0x1F DUP4 ADD AND SWAP1 POP SWAP2 SWAP1 POP JUMP JUMPDEST PUSH0 PUSH2 0xB6D DUP3 PUSH2 0xB2B JUMP JUMPDEST PUSH2 0xB77 DUP2 DUP6 PUSH2 0xB35 JUMP JUMPDEST SWAP4 POP PUSH2 0xB87 DUP2 DUP6 PUSH1 0x20 DUP7 ADD PUSH2 0xB45 JUMP JUMPDEST PUSH2 0xB90 DUP2 PUSH2 0xB53 JUMP JUMPDEST DUP5 ADD SWAP2 POP POP SWAP3 SWAP2 POP POP JUMP JUMPDEST PUSH0 DUP2 SWAP1 POP SWAP2 SWAP1 POP JUMP JUMPDEST PUSH2 0xBAD DUP2 PUSH2 0xB9B JUMP JUMPDEST DUP3 MSTORE POP POP JUMP JUMPDEST PUSH0 DUP2 ISZERO ISZERO SWAP1 POP SWAP2 SWAP1 POP JUMP JUMPDEST PUSH2 0xBC7 DUP2 PUSH2 0xBB3 JUMP JUMPDEST DUP3 MSTORE POP POP JUMP JUMPDEST PUSH2 0xBD6 DUP2 PUSH2 0x8B1 JUMP JUMPDEST DUP3 MSTORE POP POP JUMP JUMPDEST PUSH0 PUSH1 0xA0 DUP3 ADD SWAP1 POP DUP2 DUP2 SUB PUSH0 DUP4 ADD MSTORE PUSH2 0xBF4 DUP2 DUP9 PUSH2 0xB63 JUMP JUMPDEST SWAP1 POP DUP2 DUP2 SUB PUSH1 0x20 DUP4 ADD MSTORE PUSH2 0xC08 DUP2 DUP8 PUSH2 0xB63 JUMP JUMPDEST SWAP1 POP PUSH2 0xC17 PUSH1 0x40 DUP4 ADD DUP7 PUSH2 0xBA4 JUMP JUMPDEST PUSH2 0xC24 PUSH1 0x60 DUP4 ADD DUP6 PUSH2 0xBBE JUMP JUMPDEST PUSH2 0xC31 PUSH1 0x80 DUP4 ADD DUP5 PUSH2 0xBCD JUMP JUMPDEST SWAP7 SWAP6 POP POP POP POP POP POP JUMP JUMPDEST PUSH0 PUSH0 REVERT JUMPDEST PUSH32 0x4E487B7100000000000000000000000000000000000000000000000000000000 PUSH0 MSTORE PUSH1 0x41 PUSH1 0x4 MSTORE PUSH1 0x24 PUSH0 REVERT JUMPDEST PUSH2 0xC75 DUP3 PUSH2 0xB53 JUMP JUMPDEST DUP2 ADD DUP2 DUP2 LT PUSH8 0xFFFFFFFFFFFFFFFF DUP3 GT OR ISZERO PUSH2 0xC94 JUMPI PUSH2 0xC93 PUSH2 0xC3F JUMP JUMPDEST JUMPDEST DUP1 PUSH1 0x40 MSTORE POP POP POP JUMP JUMPDEST PUSH0 PUSH2 0xCA6 PUSH2 0x881 JUMP JUMPDEST SWAP1 POP PUSH2 0xCB2 DUP3 DUP3 PUSH2 0xC6C JUMP JUMPDEST SWAP2 SWAP1 POP JUMP JUMPDEST PUSH0 PUSH8 0xFFFFFFFFFFFFFFFF DUP3 GT ISZERO PUSH2 0xCD1 JUMPI PUSH2 0xCD0 PUSH2 0xC3F JUMP JUMPDEST JUMPDEST PUSH2 0xCDA DUP3 PUSH2 0xB53 JUMP JUMPDEST SWAP1 POP PUSH1 0x20 DUP2 ADD SWAP1 POP SWAP2 SWAP1 POP JUMP JUMPDEST DUP3 DUP2 DUP4 CALLDATACOPY PUSH0 DUP4 DUP4 ADD MSTORE POP POP POP JUMP JUMPDEST PUSH0 PUSH2 0xD07 PUSH2 0xD02 DUP5 PUSH2 0xCB7 JUMP JUMPDEST PUSH2 0xC9D JUMP JUMPDEST SWAP1 POP DUP3 DUP2 MSTORE PUSH1 0x20 DUP2 ADD DUP5 DUP5 DUP5 ADD GT ISZERO PUSH2 0xD23 JUMPI PUSH2 0xD22 PUSH2 0xC3B JUMP JUMPDEST JUMPDEST PUSH2 0xD2E DUP5 DUP3 DUP6 PUSH2 0xCE7 JUMP JUMPDEST POP SWAP4 SWAP3 POP POP POP JUMP JUMPDEST PUSH0 DUP3 PUSH1 0x1F DUP4 ADD SLT PUSH2 0xD4A JUMPI PUSH2 0xD49 PUSH2 0x9F7 JUMP JUMPDEST JUMPDEST DUP2 CALLDATALOAD PUSH2 0xD5A DUP5 DUP3 PUSH1 0x20 DUP7 ADD PUSH2 0xCF5 JUMP JUMPDEST SWAP2 POP POP SWAP3 SWAP2 POP POP JUMP JUMPDEST PUSH0 PUSH0 PUSH1 0x40 DUP4 DUP6 SUB SLT ISZERO PUSH2 0xD79 JUMPI PUSH2 0xD78 PUSH2 0x88A JUMP JUMPDEST JUMPDEST PUSH0 PUSH2 0xD86 DUP6 DUP3 DUP7 ADD PUSH2 0x8D8 JUMP JUMPDEST SWAP3 POP POP PUSH1 0x20 DUP4 ADD CALLDATALOAD PUSH8 0xFFFFFFFFFFFFFFFF DUP2 GT ISZERO PUSH2 0xDA7 JUMPI PUSH2 0xDA6 PUSH2 0x88E JUMP JUMPDEST JUMPDEST PUSH2 0xDB3 DUP6 DUP3 DUP7 ADD PUSH2 0xD36 JUMP JUMPDEST SWAP2 POP POP SWAP3 POP SWAP3 SWAP1 POP JUMP JUMPDEST PUSH2 0xDC6 DUP2 PUSH2 0x940 JUMP JUMPDEST DUP3 MSTORE POP POP JUMP JUMPDEST PUSH0 PUSH1 0x20 DUP3 ADD SWAP1 POP PUSH2 0xDDF PUSH0 DUP4 ADD DUP5 PUSH2 0xDBD JUMP JUMPDEST SWAP3 SWAP2 POP POP JUMP JUMPDEST PUSH32 0x4861736820726571756972656400000000000000000000000000000000000000 PUSH0 DUP3 ADD MSTORE POP JUMP JUMPDEST PUSH0 PUSH2 0xE19 PUSH1 0xD DUP4 PUSH2 0xB35 JUMP JUMPDEST SWAP2 POP PUSH2 0xE24 DUP3 PUSH2 0xDE5 JUMP JUMPDEST PUSH1 0x20 DUP3 ADD SWAP1 POP SWAP2 SWAP1 POP JUMP JUMPDEST PUSH0 PUSH1 0x20 DUP3 ADD SWAP1 POP DUP2 DUP2 SUB PUSH0 DUP4 ADD MSTORE PUSH2 0xE46 DUP2 PUSH2 0xE0D JUMP JUMPDEST SWAP1 POP SWAP2 SWAP1 POP JUMP JUMPDEST PUSH32 0x446F63756D656E7420616C726561647920657869737473000000000000000000 PUSH0 DUP3 ADD MSTORE POP JUMP JUMPDEST PUSH0 PUSH2 0xE81 PUSH1 0x17 DUP4 PUSH2 0xB35 JUMP JUMPDEST SWAP2 POP PUSH2 0xE8C DUP3 PUSH2 0xE4D JUMP JUMPDEST PUSH1 0x20 DUP3 ADD SWAP1 POP SWAP2 SWAP1 POP JUMP JUMPDEST PUSH0 PUSH1 0x20 DUP3 ADD SWAP1 POP DUP2 DUP2 SUB PUSH0 DUP4 ADD MSTORE PUSH2 0xEAE DUP2 PUSH2 0xE75 JUMP JUMPDEST SWAP1 POP SWAP2 SWAP1 POP JUMP JUMPDEST PUSH32 0x4E487B7100000000000000000000000000000000000000000000000000000000 PUSH0 MSTORE PUSH1 0x22 PUSH1 0x4 MSTORE PUSH1 0x24 PUSH0 REVERT JUMPDEST PUSH0 PUSH1 0x2 DUP3 DIV SWAP1 POP PUSH1 0x1 DUP3 AND DUP1 PUSH2 0xEF9 JUMPI PUSH1 0x7F DUP3 AND SWAP2 POP JUMPDEST PUSH1 0x20 DUP3 LT DUP2 SUB PUSH2 0xF0C JUMPI PUSH2 0xF0B PUSH2 0xEB5 JUMP JUMPDEST JUMPDEST POP SWAP2 SWAP1 POP JUMP JUMPDEST PUSH0 DUP2 SWAP1 POP DUP2 PUSH0 MSTORE PUSH1 0x20 PUSH0 KECCAK256 SWAP1 POP SWAP2 SWAP1 POP JUMP JUMPDEST PUSH0 PUSH1 0x20 PUSH1 0x1F DUP4 ADD DIV SWAP1 POP SWAP2 SWAP1 POP JUMP JUMPDEST PUSH0 DUP3 DUP3 SHL SWAP1 POP SWAP3 SWAP2 POP POP JUMP JUMPDEST PUSH0 PUSH1 0x8 DUP4 MUL PUSH2 0xF6E PUSH32 0xFFFFFFFFFFFFFFFFFFFFFFFFFFFFFFFFFFFFFFFFFFFFFFFFFFFFFFFFFFFFFFFF DUP3 PUSH2 0xF33 JUMP JUMPDEST PUSH2 0xF78 DUP7 DUP4 PUSH2 0xF33 JUMP JUMPDEST SWAP6 POP DUP1 NOT DUP5 AND SWAP4 POP DUP1 DUP7 AND DUP5 OR SWAP3 POP POP POP SWAP4 SWAP3 POP POP POP JUMP JUMPDEST PUSH0 DUP2 SWAP1 POP SWAP2 SWAP1 POP JUMP JUMPDEST PUSH0 PUSH2 0xFB3 PUSH2 0xFAE PUSH2 0xFA9 DUP5 PUSH2 0xB9B JUMP JUMPDEST PUSH2 0xF90 JUMP JUMPDEST PUSH2 0xB9B JUMP JUMPDEST SWAP1 POP SWAP2 SWAP1 POP JUMP JUMPDEST PUSH0 DUP2 SWAP1 POP SWAP2 SWAP1 POP JUMP JUMPDEST PUSH2 0xFCC DUP4 PUSH2 0xF99 JUMP JUMPDEST PUSH2 0xFE0 PUSH2 0xFD8 DUP3 PUSH2 0xFBA JUMP JUMPDEST DUP5 DUP5 SLOAD PUSH2 0xF3F JUMP JUMPDEST DUP3 SSTORE POP POP POP POP JUMP JUMPDEST PUSH0 PUSH0 SWAP1 POP SWAP1 JUMP JUMPDEST PUSH2 0xFF7 PUSH2 0xFE8 JUMP JUMPDEST PUSH2 0x1002 DUP2 DUP5 DUP5 PUSH2 0xFC3 JUMP JUMPDEST POP POP POP JUMP JUMPDEST JUMPDEST DUP2 DUP2 LT ISZERO PUSH2 0x1025 JUMPI PUSH2 0x101A PUSH0 DUP3 PUSH2 0xFEF JUMP JUMPDEST PUSH1 0x1 DUP2 ADD SWAP1 POP PUSH2 0x1008 JUMP JUMPDEST POP POP JUMP JUMPDEST PUSH1 0x1F DUP3 GT ISZERO PUSH2 0x106A JUMPI PUSH2 0x103B DUP2 PUSH2 0xF12 JUMP JUMPDEST PUSH2 0x1044 DUP5 PUSH2 0xF24 JUMP JUMPDEST DUP2 ADD PUSH1 0x20 DUP6 LT ISZERO PUSH2 0x1053 JUMPI DUP2 SWAP1 POP JUMPDEST PUSH2 0x1067 PUSH2 0x105F DUP6 PUSH2 0xF24 JUMP JUMPDEST DUP4 ADD DUP3 PUSH2 0x1007 JUMP JUMPDEST POP POP JUMPDEST POP POP POP JUMP JUMPDEST PUSH0 DUP3 DUP3 SHR SWAP1 POP SWAP3 SWAP2 POP POP JUMP JUMPDEST PUSH0 PUSH2 0x108A PUSH0 NOT DUP5 PUSH1 0x8 MUL PUSH2 0x106F JUMP JUMPDEST NOT DUP1 DUP4 AND SWAP2 POP POP SWAP3 SWAP2 POP POP JUMP JUMPDEST PUSH0 PUSH2 0x10A2 DUP4 DUP4 PUSH2 0x107B JUMP JUMPDEST SWAP2 POP DUP3 PUSH1 0x2 MUL DUP3 OR SWAP1 POP SWAP3 SWAP2 POP POP JUMP JUMPDEST PUSH2 0x10BB DUP3 PUSH2 0xB2B JUMP JUMPDEST PUSH8 0xFFFFFFFFFFFFFFFF DUP2 GT ISZERO PUSH2 0x10D4 JUMPI PUSH2 0x10D3 PUSH2 0xC3F JUMP JUMPDEST JUMPDEST PUSH2 0x10DE DUP3 SLOAD PUSH2 0xEE2 JUMP JUMPDEST PUSH2 0x10E9 DUP3 DUP3 DUP6 PUSH2 0x1029 JUMP JUMPDEST PUSH0 PUSH1 0x20 SWAP1 POP PUSH1 0x1F DUP4 GT PUSH1 0x1 DUP2 EQ PUSH2 0x111A JUMPI PUSH0 DUP5 ISZERO PUSH2 0x1108 JUMPI DUP3 DUP8 ADD MLOAD SWAP1 POP JUMPDEST PUSH2 0x1112 DUP6 DUP3 PUSH2 0x1097 JUMP JUMPDEST DUP7 SSTORE POP PUSH2 0x1179 JUMP JUMPDEST PUSH1 0x1F NOT DUP5 AND PUSH2 0x1128 DUP7 PUSH2 0xF12 JUMP JUMPDEST PUSH0 JUMPDEST DUP3 DUP2 LT ISZERO PUSH2 0x114F JUMPI DUP5 DUP10 ADD MLOAD DUP3 SSTORE PUSH1 0x1 DUP3 ADD SWAP2 POP PUSH1 0x20 DUP6 ADD SWAP5 POP PUSH1 0x20 DUP2 ADD SWAP1 POP PUSH2 0x112A JUMP JUMPDEST DUP7 DUP4 LT ISZERO PUSH2 0x116C JUMPI DUP5 DUP10 ADD MLOAD PUSH2 0x1168 PUSH1 0x1F DUP10 AND DUP3 PUSH2 0x107B JUMP JUMPDEST DUP4 SSTORE POP JUMPDEST PUSH1 0x1 PUSH1 0x2 DUP9 MUL ADD DUP9 SSTORE POP POP POP JUMPDEST POP POP POP POP POP POP JUMP JUMPDEST PUSH0 PUSH2 0x118C DUP4 DUP6 PUSH2 0xB35 JUMP JUMPDEST SWAP4 POP PUSH2 0x1199 DUP4 DUP6 DUP5 PUSH2 0xCE7 JUMP JUMPDEST PUSH2 0x11A2 DUP4 PUSH2 0xB53 JUMP JUMPDEST DUP5 ADD SWAP1 POP SWAP4 SWAP3 POP POP POP JUMP JUMPDEST PUSH0 PUSH1 0x40 DUP3 ADD SWAP1 POP DUP2 DUP2 SUB PUSH0 DUP4 ADD MSTORE PUSH2 0x11C6 DUP2 DUP7 DUP9 PUSH2 0x1181 JUMP JUMPDEST SWAP1 POP DUP2 DUP2 SUB PUSH1 0x20 DUP4 ADD MSTORE PUSH2 0x11DB DUP2 DUP5 DUP7 PUSH2 0x1181 JUMP JUMPDEST SWAP1 POP SWAP6 SWAP5 POP POP POP POP POP JUMP JUMPDEST PUSH32 0x4E6F74206F776E65720000000000000000000000000000000000000000000000 PUSH0 DUP3 ADD MSTORE POP JUMP JUMPDEST PUSH0 PUSH2 0x121A PUSH1 0x9 DUP4 PUSH2 0xB35 JUMP JUMPDEST SWAP2 POP PUSH2 0x1225 DUP3 PUSH2 0x11E6 JUMP JUMPDEST PUSH1 0x20 DUP3 ADD SWAP1 POP SWAP2 SWAP1 POP JUMP JUMPDEST PUSH0 PUSH1 0x20 DUP3 ADD SWAP1 POP DUP2 DUP2 SUB PUSH0 DUP4 ADD MSTORE PUSH2 0x1247 DUP2 PUSH2 0x120E JUMP JUMPDEST SWAP1 POP SWAP2 SWAP1 POP JUMP JUMPDEST PUSH32 0x416C7265616479207265766F6B65640000000000000000000000000000000000 PUSH0 DUP3 ADD MSTORE POP JUMP JUMPDEST PUSH0 PUSH2 0x1282 PUSH1 0xF DUP4 PUSH2 0xB35 JUMP JUMPDEST SWAP2 POP PUSH2 0x128D DUP3 PUSH2 0x124E JUMP JUMPDEST PUSH1 0x20 DUP3 ADD SWAP1 POP SWAP2 SWAP1 POP JUMP JUMPDEST PUSH0 PUSH1 0x20 DUP3 ADD SWAP1 POP DUP2 DUP2 SUB PUSH0 DUP4 ADD MSTORE PUSH2 0x12AF DUP2 PUSH2 0x1276 JUMP JUMPDEST SWAP1 POP SWAP2 SWAP1 POP JUMP JUMPDEST PUSH32 0x4E6F7420666F756E640000000000000000000000000000000000000000000000 PUSH0 DUP3 ADD MSTORE POP JUMP JUMPDEST PUSH0 PUSH2 0x12EA PUSH1 0x9 DUP4 PUSH2 0xB35 JUMP JUMPDEST SWAP2 POP PUSH2 0x12F5 DUP3 PUSH2 0x12B6 JUMP JUMPDEST PUSH1 0x20 DUP3 ADD SWAP1 POP SWAP2 SWAP1 POP JUMP JUMPDEST PUSH0 PUSH1 0x20 DUP3 ADD SWAP1 POP DUP2 DUP2 SUB PUSH0 DUP4 ADD MSTORE PUSH2 0x1317 DUP2 PUSH2 0x12DE JUMP JUMPDEST SWAP1 POP SWAP2 SWAP1 POP JUMP JUMPDEST PUSH0 PUSH1 0x40 DUP3 ADD SWAP1 POP PUSH2 0x1331 PUSH0 DUP4 ADD DUP6 PUSH2 0xBCD JUMP JUMPDEST DUP2 DUP2 SUB PUSH1 0x20 DUP4 ADD MSTORE PUSH2 0x1343 DUP2 DUP5 PUSH2 0xB63 JUMP JUMPDEST SWAP1 POP SWAP4 SWAP3 POP POP POP JUMP INVALID LOG2 PUSH5 0x6970667358 0x22 SLT KECCAK256 XOR 0xD3 EQ 0xCC INVALID RETURNCONTRACT 0x99 SAR 0x22 LOG1 0xBC 0xAE 0xFC 0xB4 0xD4 TLOAD ADD 0xE JUMPF 0xDDD0 DUP6 PUSH32 0xA012D747D75444DE9D64736F6C634300081E0033000000000000000000000000 "
				},
				"gasEstimates": {
					"creation": {
						"codeDepositCost": "998800",
						"executionCost": "1039",
						"totalCost": "999839"
					},
					"external": {
						"addDocument(string,string)": "infinite",
						"computeDocId(address,string)": "infinite",
						"getDocument(bytes32)": "infinite",
						"listDocuments(address)": "infinite",
						"revokeDocument(bytes32)": "30703"
					}
				},
				"methodIdentifiers": {
					"addDocument(string,string)": "4d2b1978",
					"computeDocId(address,string)": "c463b718",
					"getDocument(bytes32)": "b10d6b41",
					"listDocuments(address)": "3301292b",
					"revokeDocument(bytes32)": "952be80d"
				}
			},
			"storageLayout": {
				"storage": [
					{
						"astId": 18,
						"contract": "contracts/Counter.sol:DocumentLocker",
						"label": "documents",
						"offset": 0,
						"slot": "0",
						"type": "t_mapping(t_bytes32,t_struct(Document)13_storage)"
					},
					{
						"astId": 23,
						"contract": "contracts/Counter.sol:DocumentLocker",
						"label": "ownerDocs",
						"offset": 0,
						"slot": "1",
						"type": "t_mapping(t_address,t_array(t_bytes32)dyn_storage)"
					}
				],
				"types": {
					"t_address": {
						"encoding": "inplace",
						"label": "address",
						"numberOfBytes": "20"
					},
					"t_array(t_bytes32)dyn_storage": {
						"base": "t_bytes32",
						"encoding": "dynamic_array",
						"label": "bytes32[]",
						"numberOfBytes": "32"
					},
					"t_bool": {
						"encoding": "inplace",
						"label": "bool",
						"numberOfBytes": "1"
					},
					"t_bytes32": {
						"encoding": "inplace",
						"label": "bytes32",
						"numberOfBytes": "32"
					},
					"t_mapping(t_address,t_array(t_bytes32)dyn_storage)": {
						"encoding": "mapping",
						"key": "t_address",
						"label": "mapping(address => bytes32[])",
						"numberOfBytes": "32",
						"value": "t_array(t_bytes32)dyn_storage"
					},
					"t_mapping(t_bytes32,t_struct(Document)13_storage)": {
						"encoding": "mapping",
						"key": "t_bytes32",
						"label": "mapping(bytes32 => struct DocumentLocker.Document)",
						"numberOfBytes": "32",
						"value": "t_struct(Document)13_storage"
					},
					"t_string_storage": {
						"encoding": "bytes",
						"label": "string",
						"numberOfBytes": "32"
					},
					"t_struct(Document)13_storage": {
						"encoding": "inplace",
						"label": "struct DocumentLocker.Document",
						"members": [
							{
								"astId": 4,
								"contract": "contracts/Counter.sol:DocumentLocker",
								"label": "hash",
								"offset": 0,
								"slot": "0",
								"type": "t_string_storage"
							},
							{
								"astId": 6,
								"contract": "contracts/Counter.sol:DocumentLocker",
								"label": "name",
								"offset": 0,
								"slot": "1",
								"type": "t_string_storage"
							},
							{
								"astId": 8,
								"contract": "contracts/Counter.sol:DocumentLocker",
								"label": "createdAt",
								"offset": 0,
								"slot": "2",
								"type": "t_uint256"
							},
							{
								"astId": 10,
								"contract": "contracts/Counter.sol:DocumentLocker",
								"label": "active",
								"offset": 0,
								"slot": "3",
								"type": "t_bool"
							},
							{
								"astId": 12,
								"contract": "contracts/Counter.sol:DocumentLocker",
								"label": "owner",
								"offset": 1,
								"slot": "3",
								"type": "t_address"
							}
						],
						"numberOfBytes": "128"
					},
					"t_uint256": {
						"encoding": "inplace",
						"label": "uint256",
						"numberOfBytes": "32"
					}
				}
			},
			"userdoc": {
				"kind": "user",
				"methods": {
					"addDocument(string,string)": {
						"notice": "Add a new document. Fails if already exists and active."
					},
					"computeDocId(address,string)": {
						"notice": "Derive a stable ID from user + hash."
					},
					"getDocument(bytes32)": {
						"notice": "Read document by ID."
					},
					"listDocuments(address)": {
						"notice": "List document IDs for an owner."
					},
					"revokeDocument(bytes32)": {
						"notice": "Revoke an existing document (owner only)."
					}
				},
				"notice": "DocumentLocker: Minimal decentralized document registry. - Users can add document metadata hashes (e.g., IPFS CID or SHA-256). - Each document has an owner and timestamp. - Owner can revoke a document (soft delete/state change).",
				"version": 1
			}
		}
	}
}