{
  "_format": "hh-sol-artifact-1",
  "contractName": "DigiZone",
  "sourceName": "contracts/DigiZone.sol",
  "abi": [
    {
      "anonymous": false,
      "inputs": [
        {
          "indexed": true,
          "internalType": "address",
          "name": "user",
          "type": "address"
        },
        {
          "indexed": false,
          "internalType": "string",
          "name": "ipfsHash",
          "type": "string"
        }
      ],
      "name": "CredentialIssued",
      "type": "event"
    },
    {
      "anonymous": false,
      "inputs": [
        {
          "indexed": true,
          "internalType": "address",
          "name": "user",
          "type": "address"
        },
        {
          "indexed": false,
          "internalType": "uint256",
          "name": "index",
          "type": "uint256"
        }
      ],
      "name": "CredentialRevoked",
      "type": "event"
    },
    {
      "anonymous": false,
      "inputs": [
        {
          "indexed": true,
          "internalType": "address",
          "name": "user",
          "type": "address"
        },
        {
          "indexed": false,
          "internalType": "string",
          "name": "did",
          "type": "string"
        }
      ],
      "name": "DIDRegistered",
      "type": "event"
    },
    {
      "inputs": [
        {
          "internalType": "address",
          "name": "",
          "type": "address"
        },
        {
          "internalType": "uint256",
          "name": "",
          "type": "uint256"
        }
      ],
      "name": "credentials",
      "outputs": [
        {
          "internalType": "string",
          "name": "ipfsHash",
          "type": "string"
        },
        {
          "internalType": "uint256",
          "name": "issuedAt",
          "type": "uint256"
        },
        {
          "internalType": "bool",
          "name": "revoked",
          "type": "bool"
        }
      ],
      "stateMutability": "view",
      "type": "function"
    },
    {
      "inputs": [
        {
          "internalType": "address",
          "name": "",
          "type": "address"
        }
      ],
      "name": "dids",
      "outputs": [
        {
          "internalType": "string",
          "name": "",
          "type": "string"
        }
      ],
      "stateMutability": "view",
      "type": "function"
    },
    {
      "inputs": [
        {
          "internalType": "address",
          "name": "user",
          "type": "address"
        }
      ],
      "name": "getCredentials",
      "outputs": [
        {
          "components": [
            {
              "internalType": "string",
              "name": "ipfsHash",
              "type": "string"
            },
            {
              "internalType": "uint256",
              "name": "issuedAt",
              "type": "uint256"
            },
            {
              "internalType": "bool",
              "name": "revoked",
              "type": "bool"
            }
          ],
          "internalType": "struct DigiZone.Credential[]",
          "name": "",
          "type": "tuple[]"
        }
      ],
      "stateMutability": "view",
      "type": "function"
    },
    {
      "inputs": [
        {
          "internalType": "string",
          "name": "ipfsHash",
          "type": "string"
        }
      ],
      "name": "issueCredential",
      "outputs": [],
      "stateMutability": "nonpayable",
      "type": "function"
    },
    {
      "inputs": [
        {
          "internalType": "string",
          "name": "did",
          "type": "string"
        }
      ],
      "name": "registerDID",
      "outputs": [],
      "stateMutability": "nonpayable",
      "type": "function"
    },
    {
      "inputs": [
        {
          "internalType": "uint256",
          "name": "index",
          "type": "uint256"
        }
      ],
      "name": "revokeCredential",
      "outputs": [],
      "stateMutability": "nonpayable",
      "type": "function"
    }
  ],
  "bytecode": "0x6080604052348015600f57600080fd5b506110638061001f6000396000f3fe608060405234801561001057600080fd5b50600436106100625760003560e01c806303cb278a146100675780631b87278d146100995780633593f81b146100b5578063570810e2146100e5578063811f948714610101578063842706081461011d575b600080fd5b610081600480360381019061007c91906107cb565b61014d565b604051610090939291906108c5565b60405180910390f35b6100b360048036038101906100ae9190610903565b610229565b005b6100cf60048036038101906100ca9190610930565b610378565b6040516100dc919061095d565b60405180910390f35b6100ff60048036038101906100fa9190610ab4565b610418565b005b61011b60048036038101906101169190610ab4565b6104b5565b005b61013760048036038101906101329190610930565b6105ce565b6040516101449190610c77565b60405180910390f35b6001602052816000526040600020818154811061016957600080fd5b90600052602060002090600302016000915091505080600001805461018d90610cc8565b80601f01602080910402602001604051908101604052809291908181526020018280546101b990610cc8565b80156102065780601f106101db57610100808354040283529160200191610206565b820191906000526020600020905b8154815290600101906020018083116101e957829003601f168201915b5050505050908060010154908060020160009054906101000a900460ff16905083565b600160003373ffffffffffffffffffffffffffffffffffffffff1673ffffffffffffffffffffffffffffffffffffffff1681526020019081526020016000208054905081106102ad576040517f08c379a00000000000000000000000000000000000000000000000000000000081526004016102a490610d45565b60405180910390fd5b60018060003373ffffffffffffffffffffffffffffffffffffffff1673ffffffffffffffffffffffffffffffffffffffff16815260200190815260200160002082815481106102ff576102fe610d65565b5b906000526020600020906003020160020160006101000a81548160ff0219169083151502179055503373ffffffffffffffffffffffffffffffffffffffff167ff2fcadf579f414e0330984b542cd6af76f79cc0213bfd8d53adf88364f1d26218260405161036d9190610d94565b60405180910390a250565b6000602052806000526040600020600091509050805461039790610cc8565b80601f01602080910402602001604051908101604052809291908181526020018280546103c390610cc8565b80156104105780601f106103e557610100808354040283529160200191610410565b820191906000526020600020905b8154815290600101906020018083116103f357829003601f168201915b505050505081565b806000803373ffffffffffffffffffffffffffffffffffffffff1673ffffffffffffffffffffffffffffffffffffffff16815260200190815260200160002090816104639190610f5b565b503373ffffffffffffffffffffffffffffffffffffffff167fbfab59a7af78dfc896c3096604749fcee2db2e850297de42de5e6369f54bd3fb826040516104aa919061095d565b60405180910390a250565b600160003373ffffffffffffffffffffffffffffffffffffffff1673ffffffffffffffffffffffffffffffffffffffff168152602001908152602001600020604051806060016040528083815260200142815260200160001515815250908060018154018082558091505060019003906000526020600020906003020160009091909190915060008201518160000190816105509190610f5b565b506020820151816001015560408201518160020160006101000a81548160ff02191690831515021790555050503373ffffffffffffffffffffffffffffffffffffffff167fd4c8606c8f5e033bdf2d421963e26a29fde60cd3907a89758f5d8500b5b566bf826040516105c3919061095d565b60405180910390a250565b6060600160008373ffffffffffffffffffffffffffffffffffffffff1673ffffffffffffffffffffffffffffffffffffffff168152602001908152602001600020805480602002602001604051908101604052809291908181526020016000905b82821015610718578382906000526020600020906003020160405180606001604052908160008201805461066290610cc8565b80601f016020809104026020016040519081016040528092919081815260200182805461068e90610cc8565b80156106db5780601f106106b0576101008083540402835291602001916106db565b820191906000526020600020905b8154815290600101906020018083116106be57829003601f168201915b50505050508152602001600182015481526020016002820160009054906101000a900460ff1615151515815250508152602001906001019061062f565b505050509050919050565b6000604051905090565b600080fd5b600080fd5b600073ffffffffffffffffffffffffffffffffffffffff82169050919050565b600061076282610737565b9050919050565b61077281610757565b811461077d57600080fd5b50565b60008135905061078f81610769565b92915050565b6000819050919050565b6107a881610795565b81146107b357600080fd5b50565b6000813590506107c58161079f565b92915050565b600080604083850312156107e2576107e161072d565b5b60006107f085828601610780565b9250506020610801858286016107b6565b9150509250929050565b600081519050919050565b600082825260208201905092915050565b60005b8381101561084557808201518184015260208101905061082a565b60008484015250505050565b6000601f19601f8301169050919050565b600061086d8261080b565b6108778185610816565b9350610887818560208601610827565b61089081610851565b840191505092915050565b6108a481610795565b82525050565b60008115159050919050565b6108bf816108aa565b82525050565b600060608201905081810360008301526108df8186610862565b90506108ee602083018561089b565b6108fb60408301846108b6565b949350505050565b6000602082840312156109195761091861072d565b5b6000610927848285016107b6565b91505092915050565b6000602082840312156109465761094561072d565b5b600061095484828501610780565b91505092915050565b600060208201905081810360008301526109778184610862565b905092915050565b600080fd5b600080fd5b7f4e487b7100000000000000000000000000000000000000000000000000000000600052604160045260246000fd5b6109c182610851565b810181811067ffffffffffffffff821117156109e0576109df610989565b5b80604052505050565b60006109f3610723565b90506109ff82826109b8565b919050565b600067ffffffffffffffff821115610a1f57610a1e610989565b5b610a2882610851565b9050602081019050919050565b82818337600083830152505050565b6000610a57610a5284610a04565b6109e9565b905082815260208101848484011115610a7357610a72610984565b5b610a7e848285610a35565b509392505050565b600082601f830112610a9b57610a9a61097f565b5b8135610aab848260208601610a44565b91505092915050565b600060208284031215610aca57610ac961072d565b5b600082013567ffffffffffffffff811115610ae857610ae7610732565b5b610af484828501610a86565b91505092915050565b600081519050919050565b600082825260208201905092915050565b6000819050602082019050919050565b600082825260208201905092915050565b6000610b458261080b565b610b4f8185610b29565b9350610b5f818560208601610827565b610b6881610851565b840191505092915050565b610b7c81610795565b82525050565b610b8b816108aa565b82525050565b60006060830160008301518482036000860152610bae8282610b3a565b9150506020830151610bc36020860182610b73565b506040830151610bd66040860182610b82565b508091505092915050565b6000610bed8383610b91565b905092915050565b6000602082019050919050565b6000610c0d82610afd565b610c178185610b08565b935083602082028501610c2985610b19565b8060005b85811015610c655784840389528151610c468582610be1565b9450610c5183610bf5565b925060208a01995050600181019050610c2d565b50829750879550505050505092915050565b60006020820190508181036000830152610c918184610c02565b905092915050565b7f4e487b7100000000000000000000000000000000000000000000000000000000600052602260045260246000fd5b60006002820490506001821680610ce057607f821691505b602082108103610cf357610cf2610c99565b5b50919050565b7f496e76616c696420696e64657800000000000000000000000000000000000000600082015250565b6000610d2f600d83610816565b9150610d3a82610cf9565b602082019050919050565b60006020820190508181036000830152610d5e81610d22565b9050919050565b7f4e487b7100000000000000000000000000000000000000000000000000000000600052603260045260246000fd5b6000602082019050610da9600083018461089b565b92915050565b60008190508160005260206000209050919050565b60006020601f8301049050919050565b600082821b905092915050565b600060088302610e117fffffffffffffffffffffffffffffffffffffffffffffffffffffffffffffffff82610dd4565b610e1b8683610dd4565b95508019841693508086168417925050509392505050565b6000819050919050565b6000610e58610e53610e4e84610795565b610e33565b610795565b9050919050565b6000819050919050565b610e7283610e3d565b610e86610e7e82610e5f565b848454610de1565b825550505050565b600090565b610e9b610e8e565b610ea6818484610e69565b505050565b5b81811015610eca57610ebf600082610e93565b600181019050610eac565b5050565b601f821115610f0f57610ee081610daf565b610ee984610dc4565b81016020851015610ef8578190505b610f0c610f0485610dc4565b830182610eab565b50505b505050565b600082821c905092915050565b6000610f3260001984600802610f14565b1980831691505092915050565b6000610f4b8383610f21565b9150826002028217905092915050565b610f648261080b565b67ffffffffffffffff811115610f7d57610f7c610989565b5b610f878254610cc8565b610f92828285610ece565b600060209050601f831160018114610fc55760008415610fb3578287015190505b610fbd8582610f3f565b865550611025565b601f198416610fd386610daf565b60005b82811015610ffb57848901518255600182019150602085019450602081019050610fd6565b868310156110185784890151611014601f891682610f21565b8355505b6001600288020188555050505b50505050505056fea26469706673582212200ed797464ffb746a2baf1180a76c12f4eefecfb80fd1101b4b46d12e5a628fe064736f6c634300081c0033",
  "linkReferences": {},
  "deployedLinkReferences": {}
}